LX51 LINKER/LOCATER V4.66.41.0                                                          08/02/2018  17:16:59  PAGE 1


LX51 LINKER/LOCATER V4.66.41.0, INVOKED BY:
C:\KEIL_V5\C51\BIN\LX51.EXE COMMON {C:\DevKit_6_81_01\Z-WAVE\LIB\SLAVE_ENHANCED_232_ZW050X\ZW_SLAVE_ENHANCED_232_ZW050X.
>> LIB (ZW_VERSION)}, COMMON {C:\DevKit_6_81_01\Z-Wave\lib\libs2\LIBS2_SLAVE.LIB}, BANK1 {.\build_prj\CSZ1\Rels\ZW_firmw
>> are_bank1_mark.obj}, BANK1 {C:\DevKit_6_81_01\Z-WAVE\LIB\SLAVE_ENHANCED_232_ZW050X\ZW_SLAVE_ENHANCED_232_ZW050X.LIB (
>> ZW_NVM_REARRANGE, ZW_NVM_INIT, ZW_TRANSPORT, ZW_TRANSPORT_MULTI, ZW_SLAVE, ZW_ROUTING_ALL, ZW_HW_INIT, ZW_RF_DRIVER_I
>> NIT, ZW_TXQ_PROTOCOL, ZW_TX_QUEUE, LIST, ZW_CTIMER, ZW_SECURE_LEARN_SUPPORT, ZW_KEYSTORE)}, BANK1 {C:\DevKit_6_81_01\
>> Z-Wave\lib\libs2\LIBS2CRYPTO.LIB (CCM, AES_CMAC, CTR_DRBG, NEXTNONCE, KDERIV, CURVE25519, BIGINT)}, BANK3 {.\build_pr
>> j\CSZ1\Rels\ZW_firmware_bank3_mark.obj}, BANK3 {C:\DevKit_6_81_01\Z-WAVE\LIB\SLAVE_ENHANCED_232_ZW050X\ZW_SLAVE_ENHAN
>> CED_232_ZW050X.LIB (ZW_TRANSPORT_TIMER, ZW_MEM, ZW_MEM_SUPPORT, ZW_MEM_API, ZW_TRANSPORT_SUPPORT, ZW_NODEMASK, ZW_NVR
>> , ZW_CRC, ZW_EVENT, ZW_EXPLORE, ZW_EXPLORE_SUPPORT, ZW_EXPLORE_INCL_REQ, ZW_EXPLORE_EXCL_REQ, ZW_FIRMWARE_UPDATE_NVM,
>>  ZW_FIRMWARE_UPDATE_NVM_FLASH, ZW_FIRMWARE_UPDATE_NVM_WRITE, ZW_NOISE_DETECT, ZW_SECURITY_SCHEME0, SECURE_LEARN, ZW_S
>> 2_INCLUSION_GLUE)}, BANK3 {C:\DevKit_6_81_01\Z-Wave\lib\libs2\LIBS2_SLAVE.LIB (S2)}, BANK3 {C:\DevKit_6_81_01\Z-Wave\
>> lib\libs2\LIBS2CRYPTO.LIB (FE25519)}, BANK2 {.\build_prj\CSZ1\Rels\shade.obj}, BANK2 {.\build_prj\CSZ1\Rels\b_i2c.obj
>> }, BANK2 {.\build_prj\CSZ1\Rels\shadefunctions.obj}, BANK2 {.\build_prj\CSZ1\Rels\diag_protocol.obj}, BANK2 {.\build_
>> prj\CSZ1\Rels\eeprom.obj}, BANK2 {.\build_prj\CSZ1\Rels\ZW_nvm_descriptor.obj}, BANK2 {.\build_prj\CSZ1\Rels\ZW_nvr_a
>> pp_api.obj}, BANK2 {.\build_prj\CSZ1\Rels\ZW_string.obj}, BANK2 {.\build_prj\CSZ1\Rels\association_plus.obj}, BANK2 {
>> .\build_prj\CSZ1\Rels\ZW_tx_mutex.obj}, BANK2 {.\build_prj\CSZ1\Rels\agi.obj}, BANK2 {.\build_prj\CSZ1\Rels\CommandCl
>> assVersion.obj}, BANK2 {.\build_prj\CSZ1\Rels\CommandClassDeviceResetLocally.obj}, BANK2 {.\build_prj\CSZ1\Rels\Comma
>> ndClassAssociation.obj}, BANK2 {.\build_prj\CSZ1\Rels\CommandClassAssociationGroupInfo.obj}, BANK2 {.\build_prj\CSZ1\
>> Rels\CommandClassManufacturerSpecific.obj}, BANK2 {.\build_prj\CSZ1\Rels\CommandClassBasic.obj}, BANK2 {.\build_prj\C
>> SZ1\Rels\appl_timer.obj}, BANK2 {.\build_prj\CSZ1\Rels\CommandClassFirmwareUpdate.obj}, BANK2 {.\build_prj\CSZ1\Rels\
>> ota_util.obj}, BANK2 {.\build_prj\CSZ1\Rels\ZW_cmd_class_list.obj}, BANK2 {.\build_prj\CSZ1\Rels\CommandClassMultiCha
>> n.obj}, BANK2 {.\build_prj\CSZ1\Rels\CommandClassMultiChanAssociation.obj}, BANK2 {.\build_prj\CSZ1\Rels\ZW_transport
>> Endpoint.obj}, BANK2 {.\build_prj\CSZ1\Rels\endpoint_lookup.obj}, BANK2 {.\build_prj\CSZ1\Rels\ZW_firmware_bank2_mark
>> .obj}, BANK2 {.\build_prj\CSZ1\Rels\ZW_TransportMulticast.obj}, BANK2 {.\build_prj\CSZ1\Rels\ZW_TransportSecProtocol.
>> obj}, BANK2 {.\build_prj\CSZ1\Rels\ZAF_pm.obj}, BANK2 {.\build_prj\CSZ1\Rels\CommandClass.obj}, BANK2 {.\build_prj\CS
>> Z1\Rels\CommandClassSupervision.obj}, BANK2 {.\build_prj\CSZ1\Rels\NonZeroVars.obj}, COMMON {.\build_prj\CSZ1\Rels\ZW
>> _L51_BANK.obj}, COMMON {.\build_prj\CSZ1\Rels\ZW_app_version.obj}, COMMON {.\build_prj\CSZ1\Rels\ZW_firmware_descript
>> or_addr.obj}, COMMON {.\build_prj\CSZ1\Rels\ZW_firmware_descriptor.obj}, COMMON {C:\DevKit_6_81_01\Z-WAVE\LIB\SLAVE_E
>> NHANCED_232_ZW050X\ZW_SLAVE_ENHANCED_232_ZW050X.LIB (?C_STARTUP)}, COMMON {C:\KEIL_V5\C51\\LIB\C51FPL.LIB}, COMMON {C
>> :\DevKit_6_81_01\Z-WAVE\LIB\INIT_VARS\INIT_VARS.OBJ}, COMMON {C:\DevKit_6_81_01\Z-WAVE\LIB\RF_FREQ\ZW_RF_050X_US.OBJ}
>> , COMMON {C:\KEIL_V5\C51\\LIB\C51L.LIB} TO .\build_prj\CSZ1\Rels\CSZ1.aof BANKAREA (0X008000, 0X00FFFF) PRINT (.\buil
>> d_prj\CSZ1\list\CSZ1.map) DISABLEWARNING (8, 13, 16, 25, 47) NOOVERLAY CLASSES (BIT (I:0X0020.0-I:0X002F.7), DATA (D:
>> 0X0000-D:0X001F, D:0X0030-D:0X007F), IDATA (I:0X0080-I:0X00FF), XDATA (X:0X2000-X:0X4FFF), XDATA_UPPER (X:0X2000-X:0X
>> 4FFF), XDATA_LOWER (X:0X0000-X:0X0FFF), HDATA_LIB (X:0X010000-X:0X01FFFF), HDATA (X:0X010000-X:0X01FFFF), HCONST (C:0
>> X108000-C:0X10BFFF), XDATA_NON_ZERO_VARS_ZW (X:0X1200-X:0X1254), XDATA_NON_ZERO_VARS_APP (X:0X1255-X:0X127F), CODE (C
>> :0X1800-C:0X7F7F, C:0X7FB0-C:0XFFFB), CONST_NVM (C:0X7F80-C:0X7FAF), CONST (C:0X1800-C:0X7F7F, C:0X7FB0-C:0XFFFB)) SE
>> GMENTS (?CO?ZW_NVM, ?CO?EEPROM, ?CO?ZW_NVM_DESCRIPTOR, ?CO?APP_RFSETUP (C:0X7FB0), ?FD?ZW_NVM (X:0X010000), ?FD?EEPRO
>> M, ?FD?ZW_NVM_DESCRIPTOR, ?CO?ZW_FIRMWARE_DESCRIPTOR_ADDR (C:0X1808), ?CO?ZW_FIRMWARE_DESCRIPTOR (LAST), ?CO?ZW_FIRMW
>> ARE_BANK1_MARK (B1:LAST), ?CO?ZW_FIRMWARE_BANK2_MARK (B2:LAST), ?CO?ZW_FIRMWARE_BANK3_MARK (B3:LAST))


CPU MODE:     8051 MODE
MEMORY MODEL: LARGE


INPUT MODULES INCLUDED:
  C:\DevKit_6_81_01\Z-WAVE\LIB\SLAVE_ENHANCED_232_ZW050X\ZW_SLAVE_ENHANCED_232_ZW050X.LIB (ZW_VERSION)
         COMMENT TYPE 0: C51 V9.54
  C:\DevKit_6_81_01\Z-WAVE\LIB\SLAVE_ENHANCED_232_ZW050X\ZW_SLAVE_ENHANCED_232_ZW050X.LIB (ZW_MAIN)
         COMMENT TYPE 0: C51 V9.54
  C:\DevKit_6_81_01\Z-WAVE\LIB\SLAVE_ENHANCED_232_ZW050X\ZW_SLAVE_ENHANCED_232_ZW050X.LIB (ZW_MULTI_INT_050X)
         COMMENT TYPE 0: C51 V9.54
  C:\DevKit_6_81_01\Z-WAVE\LIB\SLAVE_ENHANCED_232_ZW050X\ZW_SLAVE_ENHANCED_232_ZW050X.LIB (ZW_NVM)
         COMMENT TYPE 0: C51 V9.54
  C:\DevKit_6_81_01\Z-WAVE\LIB\SLAVE_ENHANCED_232_ZW050X\ZW_SLAVE_ENHANCED_232_ZW050X.LIB (ZW_TIMER)
         COMMENT TYPE 0: C51 V9.54
  C:\DevKit_6_81_01\Z-WAVE\LIB\SLAVE_ENHANCED_232_ZW050X\ZW_SLAVE_ENHANCED_232_ZW050X.LIB (ZW_RF_DRIVER)
         COMMENT TYPE 0: C51 V9.54
  C:\DevKit_6_81_01\Z-WAVE\LIB\SLAVE_ENHANCED_232_ZW050X\ZW_SLAVE_ENHANCED_232_ZW050X.LIB (ZW_NON_ZERO_VARS)
         COMMENT TYPE 0: C51 V9.54
  C:\DevKit_6_81_01\Z-WAVE\LIB\SLAVE_ENHANCED_232_ZW050X\ZW_SLAVE_ENHANCED_232_ZW050X.LIB (ZW_BOOTLOADER_CAPABILITIES)
         COMMENT TYPE 0: C51 V9.54
  C:\DevKit_6_81_01\Z-WAVE\LIB\SLAVE_ENHANCED_232_ZW050X\ZW_SLAVE_ENHANCED_232_ZW050X.LIB (ZW_NETWORK_MANAGEMENT)
         COMMENT TYPE 0: C51 V9.54
  C:\DevKit_6_81_01\Z-WAVE\LIB\SLAVE_ENHANCED_232_ZW050X\ZW_SLAVE_ENHANCED_232_ZW050X.LIB (ZW_POWER_MANAGEMENT)
LX51 LINKER/LOCATER V4.66.41.0                                                        08/02/2018  17:16:59  PAGE 2


         COMMENT TYPE 0: C51 V9.54
  C:\DevKit_6_81_01\Z-WAVE\LIB\SLAVE_ENHANCED_232_ZW050X\ZW_SLAVE_ENHANCED_232_ZW050X.LIB (ZW_SECURITY_SCHEME2)
         COMMENT TYPE 0: C51 V9.54
  C:\DevKit_6_81_01\Z-WAVE\LIB\SLAVE_ENHANCED_232_ZW050X\ZW_SLAVE_ENHANCED_232_ZW050X.LIB (ZW_PHY_050X)
         COMMENT TYPE 0: C51 V9.54
  C:\DevKit_6_81_01\Z-WAVE\LIB\SLAVE_ENHANCED_232_ZW050X\ZW_SLAVE_ENHANCED_232_ZW050X.LIB (ZW_PHY_POWER_050X)
         COMMENT TYPE 0: C51 V9.54
  C:\DevKit_6_81_01\Z-WAVE\LIB\SLAVE_ENHANCED_232_ZW050X\ZW_SLAVE_ENHANCED_232_ZW050X.LIB (ZW_PHY_RF_050X)
         COMMENT TYPE 0: C51 V9.54
  C:\DevKit_6_81_01\Z-WAVE\LIB\SLAVE_ENHANCED_232_ZW050X\ZW_SLAVE_ENHANCED_232_ZW050X.LIB (ZW_PHY_UART0_050X)
         COMMENT TYPE 0: C51 V9.54
  C:\DevKit_6_81_01\Z-WAVE\LIB\SLAVE_ENHANCED_232_ZW050X\ZW_SLAVE_ENHANCED_232_ZW050X.LIB (ZW_PHY_GENERIC_SPI_IF)
         COMMENT TYPE 0: C51 V9.54
  C:\DevKit_6_81_01\Z-WAVE\LIB\SLAVE_ENHANCED_232_ZW050X\ZW_SLAVE_ENHANCED_232_ZW050X.LIB (ZW_LIB_VERSION)
         COMMENT TYPE 0: AX51 V3.13.0.0
  C:\DevKit_6_81_01\Z-WAVE\LIB\SLAVE_ENHANCED_232_ZW050X\ZW_SLAVE_ENHANCED_232_ZW050X.LIB (ZW_NVM_S2)
         COMMENT TYPE 0: C51 V9.54
  C:\DevKit_6_81_01\Z-WAVE\LIB\SLAVE_ENHANCED_232_ZW050X\ZW_SLAVE_ENHANCED_232_ZW050X.LIB (ZW_PHY_FRAME_HANDLER_050X)
         COMMENT TYPE 0: C51 V9.54
  C:\DevKit_6_81_01\Z-WAVE\LIB\SLAVE_ENHANCED_232_ZW050X\ZW_SLAVE_ENHANCED_232_ZW050X.LIB (ZW_PHY_SPI1_050X)
         COMMENT TYPE 0: C51 V9.54
  C:\DevKit_6_81_01\Z-Wave\lib\libs2\LIBS2_SLAVE.LIB (S2_INCLUSION)
         COMMENT TYPE 0: C51 V9.54
  .\build_prj\CSZ1\Rels\ZW_firmware_bank1_mark.obj (ZW_FIRMWARE_BANK1_MARK)
         COMMENT TYPE 0: C51 V9.54
  C:\DevKit_6_81_01\Z-WAVE\LIB\SLAVE_ENHANCED_232_ZW050X\ZW_SLAVE_ENHANCED_232_ZW050X.LIB (ZW_NVM_REARRANGE)
         COMMENT TYPE 0: C51 V9.54
  C:\DevKit_6_81_01\Z-WAVE\LIB\SLAVE_ENHANCED_232_ZW050X\ZW_SLAVE_ENHANCED_232_ZW050X.LIB (ZW_NVM_INIT)
         COMMENT TYPE 0: C51 V9.54
  C:\DevKit_6_81_01\Z-WAVE\LIB\SLAVE_ENHANCED_232_ZW050X\ZW_SLAVE_ENHANCED_232_ZW050X.LIB (ZW_TRANSPORT)
         COMMENT TYPE 0: C51 V9.54
  C:\DevKit_6_81_01\Z-WAVE\LIB\SLAVE_ENHANCED_232_ZW050X\ZW_SLAVE_ENHANCED_232_ZW050X.LIB (ZW_TRANSPORT_MULTI)
         COMMENT TYPE 0: C51 V9.54
  C:\DevKit_6_81_01\Z-WAVE\LIB\SLAVE_ENHANCED_232_ZW050X\ZW_SLAVE_ENHANCED_232_ZW050X.LIB (ZW_SLAVE)
         COMMENT TYPE 0: C51 V9.54
  C:\DevKit_6_81_01\Z-WAVE\LIB\SLAVE_ENHANCED_232_ZW050X\ZW_SLAVE_ENHANCED_232_ZW050X.LIB (ZW_ROUTING_ALL)
         COMMENT TYPE 0: C51 V9.54
  C:\DevKit_6_81_01\Z-WAVE\LIB\SLAVE_ENHANCED_232_ZW050X\ZW_SLAVE_ENHANCED_232_ZW050X.LIB (ZW_HW_INIT)
         COMMENT TYPE 0: C51 V9.54
  C:\DevKit_6_81_01\Z-WAVE\LIB\SLAVE_ENHANCED_232_ZW050X\ZW_SLAVE_ENHANCED_232_ZW050X.LIB (ZW_RF_DRIVER_INIT)
         COMMENT TYPE 0: C51 V9.54
  C:\DevKit_6_81_01\Z-WAVE\LIB\SLAVE_ENHANCED_232_ZW050X\ZW_SLAVE_ENHANCED_232_ZW050X.LIB (ZW_TXQ_PROTOCOL)
         COMMENT TYPE 0: C51 V9.54
  C:\DevKit_6_81_01\Z-WAVE\LIB\SLAVE_ENHANCED_232_ZW050X\ZW_SLAVE_ENHANCED_232_ZW050X.LIB (ZW_TX_QUEUE)
         COMMENT TYPE 0: C51 V9.54
  C:\DevKit_6_81_01\Z-WAVE\LIB\SLAVE_ENHANCED_232_ZW050X\ZW_SLAVE_ENHANCED_232_ZW050X.LIB (LIST)
         COMMENT TYPE 0: C51 V9.54
  C:\DevKit_6_81_01\Z-WAVE\LIB\SLAVE_ENHANCED_232_ZW050X\ZW_SLAVE_ENHANCED_232_ZW050X.LIB (ZW_CTIMER)
         COMMENT TYPE 0: C51 V9.54
  C:\DevKit_6_81_01\Z-WAVE\LIB\SLAVE_ENHANCED_232_ZW050X\ZW_SLAVE_ENHANCED_232_ZW050X.LIB (ZW_SECURE_LEARN_SUPPORT)
         COMMENT TYPE 0: C51 V9.54
  C:\DevKit_6_81_01\Z-WAVE\LIB\SLAVE_ENHANCED_232_ZW050X\ZW_SLAVE_ENHANCED_232_ZW050X.LIB (ZW_KEYSTORE)
         COMMENT TYPE 0: C51 V9.54
  C:\DevKit_6_81_01\Z-WAVE\LIB\SLAVE_ENHANCED_232_ZW050X\ZW_SLAVE_ENHANCED_232_ZW050X.LIB (APP_RFSETUP)
         COMMENT TYPE 0: C51 V9.54
  C:\DevKit_6_81_01\Z-Wave\lib\libs2\LIBS2CRYPTO.LIB (CCM)
         COMMENT TYPE 0: C51 V9.54
  C:\DevKit_6_81_01\Z-Wave\lib\libs2\LIBS2CRYPTO.LIB (AES_CMAC)
         COMMENT TYPE 0: C51 V9.54
  C:\DevKit_6_81_01\Z-Wave\lib\libs2\LIBS2CRYPTO.LIB (CTR_DRBG)
         COMMENT TYPE 0: C51 V9.54
  C:\DevKit_6_81_01\Z-Wave\lib\libs2\LIBS2CRYPTO.LIB (NEXTNONCE)
         COMMENT TYPE 0: C51 V9.54
  C:\DevKit_6_81_01\Z-Wave\lib\libs2\LIBS2CRYPTO.LIB (KDERIV)
         COMMENT TYPE 0: C51 V9.54
LX51 LINKER/LOCATER V4.66.41.0                                                        08/02/2018  17:16:59  PAGE 3


  C:\DevKit_6_81_01\Z-Wave\lib\libs2\LIBS2CRYPTO.LIB (CURVE25519)
         COMMENT TYPE 0: C51 V9.54
  C:\DevKit_6_81_01\Z-Wave\lib\libs2\LIBS2CRYPTO.LIB (BIGINT)
         COMMENT TYPE 0: AX51 V3.13.0.0
  C:\DevKit_6_81_01\Z-Wave\lib\libs2\LIBS2CRYPTO.LIB (ZW_S2_KEY_SCRAMBLER)
         COMMENT TYPE 0: C51 V9.54
  .\build_prj\CSZ1\Rels\ZW_firmware_bank3_mark.obj (ZW_FIRMWARE_BANK3_MARK)
         COMMENT TYPE 0: C51 V9.54
  C:\DevKit_6_81_01\Z-WAVE\LIB\SLAVE_ENHANCED_232_ZW050X\ZW_SLAVE_ENHANCED_232_ZW050X.LIB (ZW_TRANSPORT_TIMER)
         COMMENT TYPE 0: C51 V9.54
  C:\DevKit_6_81_01\Z-WAVE\LIB\SLAVE_ENHANCED_232_ZW050X\ZW_SLAVE_ENHANCED_232_ZW050X.LIB (ZW_MEM)
         COMMENT TYPE 0: C51 V9.54
  C:\DevKit_6_81_01\Z-WAVE\LIB\SLAVE_ENHANCED_232_ZW050X\ZW_SLAVE_ENHANCED_232_ZW050X.LIB (ZW_MEM_SUPPORT)
         COMMENT TYPE 0: C51 V9.54
  C:\DevKit_6_81_01\Z-WAVE\LIB\SLAVE_ENHANCED_232_ZW050X\ZW_SLAVE_ENHANCED_232_ZW050X.LIB (ZW_MEM_API)
         COMMENT TYPE 0: C51 V9.54
  C:\DevKit_6_81_01\Z-WAVE\LIB\SLAVE_ENHANCED_232_ZW050X\ZW_SLAVE_ENHANCED_232_ZW050X.LIB (ZW_TRANSPORT_SUPPORT)
         COMMENT TYPE 0: C51 V9.54
  C:\DevKit_6_81_01\Z-WAVE\LIB\SLAVE_ENHANCED_232_ZW050X\ZW_SLAVE_ENHANCED_232_ZW050X.LIB (ZW_NODEMASK)
         COMMENT TYPE 0: C51 V9.54
  C:\DevKit_6_81_01\Z-WAVE\LIB\SLAVE_ENHANCED_232_ZW050X\ZW_SLAVE_ENHANCED_232_ZW050X.LIB (ZW_NVR)
         COMMENT TYPE 0: C51 V9.54
  C:\DevKit_6_81_01\Z-WAVE\LIB\SLAVE_ENHANCED_232_ZW050X\ZW_SLAVE_ENHANCED_232_ZW050X.LIB (ZW_CRC)
         COMMENT TYPE 0: C51 V9.54
  C:\DevKit_6_81_01\Z-WAVE\LIB\SLAVE_ENHANCED_232_ZW050X\ZW_SLAVE_ENHANCED_232_ZW050X.LIB (ZW_EVENT)
         COMMENT TYPE 0: C51 V9.54
  C:\DevKit_6_81_01\Z-WAVE\LIB\SLAVE_ENHANCED_232_ZW050X\ZW_SLAVE_ENHANCED_232_ZW050X.LIB (ZW_EXPLORE)
         COMMENT TYPE 0: C51 V9.54
  C:\DevKit_6_81_01\Z-WAVE\LIB\SLAVE_ENHANCED_232_ZW050X\ZW_SLAVE_ENHANCED_232_ZW050X.LIB (ZW_EXPLORE_SUPPORT)
         COMMENT TYPE 0: C51 V9.54
  C:\DevKit_6_81_01\Z-WAVE\LIB\SLAVE_ENHANCED_232_ZW050X\ZW_SLAVE_ENHANCED_232_ZW050X.LIB (ZW_EXPLORE_INCL_REQ)
         COMMENT TYPE 0: C51 V9.54
  C:\DevKit_6_81_01\Z-WAVE\LIB\SLAVE_ENHANCED_232_ZW050X\ZW_SLAVE_ENHANCED_232_ZW050X.LIB (ZW_EXPLORE_EXCL_REQ)
         COMMENT TYPE 0: C51 V9.54
  C:\DevKit_6_81_01\Z-WAVE\LIB\SLAVE_ENHANCED_232_ZW050X\ZW_SLAVE_ENHANCED_232_ZW050X.LIB (ZW_FIRMWARE_UPDATE_NVM)
         COMMENT TYPE 0: C51 V9.54
  C:\DevKit_6_81_01\Z-WAVE\LIB\SLAVE_ENHANCED_232_ZW050X\ZW_SLAVE_ENHANCED_232_ZW050X.LIB (ZW_FIRMWARE_UPDATE_NVM_FLASH)
>> 
         COMMENT TYPE 0: C51 V9.54
  C:\DevKit_6_81_01\Z-WAVE\LIB\SLAVE_ENHANCED_232_ZW050X\ZW_SLAVE_ENHANCED_232_ZW050X.LIB (ZW_FIRMWARE_UPDATE_NVM_WRITE)
>> 
         COMMENT TYPE 0: C51 V9.54
  C:\DevKit_6_81_01\Z-WAVE\LIB\SLAVE_ENHANCED_232_ZW050X\ZW_SLAVE_ENHANCED_232_ZW050X.LIB (ZW_NOISE_DETECT)
         COMMENT TYPE 0: C51 V9.54
  C:\DevKit_6_81_01\Z-WAVE\LIB\SLAVE_ENHANCED_232_ZW050X\ZW_SLAVE_ENHANCED_232_ZW050X.LIB (ZW_SECURITY_SCHEME0)
         COMMENT TYPE 0: C51 V9.54
  C:\DevKit_6_81_01\Z-WAVE\LIB\SLAVE_ENHANCED_232_ZW050X\ZW_SLAVE_ENHANCED_232_ZW050X.LIB (SECURE_LEARN)
         COMMENT TYPE 0: C51 V9.54
  C:\DevKit_6_81_01\Z-WAVE\LIB\SLAVE_ENHANCED_232_ZW050X\ZW_SLAVE_ENHANCED_232_ZW050X.LIB (ZW_S2_INCLUSION_GLUE)
         COMMENT TYPE 0: C51 V9.54
  C:\DevKit_6_81_01\Z-WAVE\LIB\SLAVE_ENHANCED_232_ZW050X\ZW_SLAVE_ENHANCED_232_ZW050X.LIB (OTZ_CHECK_COMPRESSED_CRC)
         COMMENT TYPE 0: C51 V9.54
  C:\DevKit_6_81_01\Z-WAVE\LIB\SLAVE_ENHANCED_232_ZW050X\ZW_SLAVE_ENHANCED_232_ZW050X.LIB (ZW_PHY_FLASH_050X)
         COMMENT TYPE 0: C51 V9.54
  C:\DevKit_6_81_01\Z-WAVE\LIB\SLAVE_ENHANCED_232_ZW050X\ZW_SLAVE_ENHANCED_232_ZW050X.LIB (ZW_PHY_AES_050X)
         COMMENT TYPE 0: C51 V9.54
  C:\DevKit_6_81_01\Z-Wave\lib\libs2\LIBS2_SLAVE.LIB (S2)
         COMMENT TYPE 0: C51 V9.54
  C:\DevKit_6_81_01\Z-Wave\lib\libs2\LIBS2_SLAVE.LIB (TRANSPORT_SERVICE2)
         COMMENT TYPE 0: C51 V9.54
  C:\DevKit_6_81_01\Z-Wave\lib\libs2\LIBS2_SLAVE.LIB (TRANSPORT2_FSM)
         COMMENT TYPE 0: C51 V9.54
  C:\DevKit_6_81_01\Z-Wave\lib\libs2\LIBS2CRYPTO.LIB (FE25519)
         COMMENT TYPE 0: C51 V9.54
  .\build_prj\CSZ1\Rels\shade.obj (SHADE)
LX51 LINKER/LOCATER V4.66.41.0                                                        08/02/2018  17:16:59  PAGE 4


         COMMENT TYPE 0: C51 V9.54
  .\build_prj\CSZ1\Rels\b_i2c.obj (B_I2C)
         COMMENT TYPE 0: C51 V9.54
  .\build_prj\CSZ1\Rels\shadefunctions.obj (SHADEFUNCTIONS)
         COMMENT TYPE 0: C51 V9.54
  .\build_prj\CSZ1\Rels\diag_protocol.obj (DIAG_PROTOCOL)
         COMMENT TYPE 0: C51 V9.54
  .\build_prj\CSZ1\Rels\eeprom.obj (EEPROM)
         COMMENT TYPE 0: C51 V9.54
  .\build_prj\CSZ1\Rels\ZW_nvm_descriptor.obj (ZW_NVM_DESCRIPTOR)
         COMMENT TYPE 0: C51 V9.54
  .\build_prj\CSZ1\Rels\ZW_nvr_app_api.obj (ZW_NVR_APP_API)
         COMMENT TYPE 0: C51 V9.54
  .\build_prj\CSZ1\Rels\ZW_string.obj (ZW_STRING)
         COMMENT TYPE 0: C51 V9.54
  .\build_prj\CSZ1\Rels\association_plus.obj (ASSOCIATION_PLUS)
         COMMENT TYPE 0: C51 V9.54
  .\build_prj\CSZ1\Rels\ZW_tx_mutex.obj (ZW_TX_MUTEX)
         COMMENT TYPE 0: C51 V9.54
  .\build_prj\CSZ1\Rels\agi.obj (AGI)
         COMMENT TYPE 0: C51 V9.54
  .\build_prj\CSZ1\Rels\CommandClassVersion.obj (COMMANDCLASSVERSION)
         COMMENT TYPE 0: C51 V9.54
  .\build_prj\CSZ1\Rels\CommandClassDeviceResetLocally.obj (COMMANDCLASSDEVICERESETLOCALLY)
         COMMENT TYPE 0: C51 V9.54
  .\build_prj\CSZ1\Rels\CommandClassAssociation.obj (COMMANDCLASSASSOCIATION)
         COMMENT TYPE 0: C51 V9.54
  .\build_prj\CSZ1\Rels\CommandClassAssociationGroupInfo.obj (COMMANDCLASSASSOCIATIONGROUPINFO)
         COMMENT TYPE 0: C51 V9.54
  .\build_prj\CSZ1\Rels\CommandClassManufacturerSpecific.obj (COMMANDCLASSMANUFACTURERSPECIFIC)
         COMMENT TYPE 0: C51 V9.54
  .\build_prj\CSZ1\Rels\CommandClassBasic.obj (COMMANDCLASSBASIC)
         COMMENT TYPE 0: C51 V9.54
  .\build_prj\CSZ1\Rels\appl_timer.obj (APPL_TIMER)
         COMMENT TYPE 0: C51 V9.54
  .\build_prj\CSZ1\Rels\CommandClassFirmwareUpdate.obj (COMMANDCLASSFIRMWAREUPDATE)
         COMMENT TYPE 0: C51 V9.54
  .\build_prj\CSZ1\Rels\ota_util.obj (OTA_UTIL)
         COMMENT TYPE 0: C51 V9.54
  .\build_prj\CSZ1\Rels\ZW_cmd_class_list.obj (ZW_CMD_CLASS_LIST)
         COMMENT TYPE 0: C51 V9.54
  .\build_prj\CSZ1\Rels\CommandClassMultiChan.obj (COMMANDCLASSMULTICHAN)
         COMMENT TYPE 0: C51 V9.54
  .\build_prj\CSZ1\Rels\CommandClassMultiChanAssociation.obj (COMMANDCLASSMULTICHANASSOCIATION)
         COMMENT TYPE 0: C51 V9.54
  .\build_prj\CSZ1\Rels\ZW_transportEndpoint.obj (ZW_TRANSPORTENDPOINT)
         COMMENT TYPE 0: C51 V9.54
  .\build_prj\CSZ1\Rels\endpoint_lookup.obj (ENDPOINT_LOOKUP)
         COMMENT TYPE 0: C51 V9.54
  .\build_prj\CSZ1\Rels\ZW_firmware_bank2_mark.obj (ZW_FIRMWARE_BANK2_MARK)
         COMMENT TYPE 0: C51 V9.54
  .\build_prj\CSZ1\Rels\ZW_TransportMulticast.obj (ZW_TRANSPORTMULTICAST)
         COMMENT TYPE 0: C51 V9.54
  .\build_prj\CSZ1\Rels\ZW_TransportSecProtocol.obj (ZW_TRANSPORTSECPROTOCOL)
         COMMENT TYPE 0: C51 V9.54
  .\build_prj\CSZ1\Rels\ZAF_pm.obj (ZAF_PM)
         COMMENT TYPE 0: C51 V9.54
  .\build_prj\CSZ1\Rels\CommandClass.obj (COMMANDCLASS)
         COMMENT TYPE 0: C51 V9.54
  .\build_prj\CSZ1\Rels\CommandClassSupervision.obj (COMMANDCLASSSUPERVISION)
         COMMENT TYPE 0: C51 V9.54
  .\build_prj\CSZ1\Rels\NonZeroVars.obj (NONZEROVARS)
         COMMENT TYPE 0: C51 V9.54
  .\build_prj\CSZ1\Rels\ZW_L51_BANK.obj (?BANK?SWITCHING)
         COMMENT TYPE 0: AX51 V3.13.0.0
LX51 LINKER/LOCATER V4.66.41.0                                                        08/02/2018  17:16:59  PAGE 5


  .\build_prj\CSZ1\Rels\ZW_app_version.obj (ZW_APP_VERSION)
         COMMENT TYPE 0: AX51 V3.13.0.0
  .\build_prj\CSZ1\Rels\ZW_firmware_descriptor_addr.obj (ZW_FIRMWARE_DESCRIPTOR_ADDR)
         COMMENT TYPE 0: C51 V9.54
  .\build_prj\CSZ1\Rels\ZW_firmware_descriptor.obj (ZW_FIRMWARE_DESCRIPTOR)
         COMMENT TYPE 0: C51 V9.54
  C:\DevKit_6_81_01\Z-WAVE\LIB\SLAVE_ENHANCED_232_ZW050X\ZW_SLAVE_ENHANCED_232_ZW050X.LIB (?C_STARTUP)
         COMMENT TYPE 0: AX51 V3.13.0.0
  C:\DevKit_6_81_01\Z-WAVE\LIB\INIT_VARS\INIT_VARS.OBJ (?C_INIT)
         COMMENT TYPE 0: AX51 V3.13.0.0
  C:\DevKit_6_81_01\Z-WAVE\LIB\RF_FREQ\ZW_RF_050X_US.OBJ (ZW_RF_FTBL)
         COMMENT TYPE 0: C51 V9.54
  C:\KEIL_V5\C51\\LIB\C51L.LIB (?C?COPY)
         COMMENT TYPE 1: A51 / ASM51 Assembler
  C:\KEIL_V5\C51\\LIB\C51L.LIB (?C?CLDPTR)
         COMMENT TYPE 1: A51 / ASM51 Assembler
  C:\KEIL_V5\C51\\LIB\C51L.LIB (?C?CLDOPTR)
         COMMENT TYPE 1: A51 / ASM51 Assembler
  C:\KEIL_V5\C51\\LIB\C51L.LIB (?C?CILDPTR)
         COMMENT TYPE 1: A51 / ASM51 Assembler
  C:\KEIL_V5\C51\\LIB\C51L.LIB (?C?CILDOPTR)
         COMMENT TYPE 1: A51 / ASM51 Assembler
  C:\KEIL_V5\C51\\LIB\C51L.LIB (?C?CSTPTR)
         COMMENT TYPE 1: A51 / ASM51 Assembler
  C:\KEIL_V5\C51\\LIB\C51L.LIB (?C?CSTOPTR)
         COMMENT TYPE 1: A51 / ASM51 Assembler
  C:\KEIL_V5\C51\\LIB\C51L.LIB (?C?IMUL)
         COMMENT TYPE 1: A51 / ASM51 Assembler
  C:\KEIL_V5\C51\\LIB\C51L.LIB (?C?UIDIV)
         COMMENT TYPE 1: A51 / ASM51 Assembler
  C:\KEIL_V5\C51\\LIB\C51L.LIB (?C?SIDIV)
         COMMENT TYPE 1: A51 / ASM51 Assembler
  C:\KEIL_V5\C51\\LIB\C51L.LIB (?C?IILDX)
         COMMENT TYPE 1: A51 / ASM51 Assembler
  C:\KEIL_V5\C51\\LIB\C51L.LIB (?C?ILDIX)
         COMMENT TYPE 1: A51 / ASM51 Assembler
  C:\KEIL_V5\C51\\LIB\C51L.LIB (?C?ILDPTR)
         COMMENT TYPE 1: A51 / ASM51 Assembler
  C:\KEIL_V5\C51\\LIB\C51L.LIB (?C?ILDOPTR)
         COMMENT TYPE 1: A51 / ASM51 Assembler
  C:\KEIL_V5\C51\\LIB\C51L.LIB (?C?IILDOPTR)
         COMMENT TYPE 1: A51 / ASM51 Assembler
  C:\KEIL_V5\C51\\LIB\C51L.LIB (?C?ISTPTR)
         COMMENT TYPE 1: A51 / ASM51 Assembler
  C:\KEIL_V5\C51\\LIB\C51L.LIB (?C?ISTOPTR)
         COMMENT TYPE 1: A51 / ASM51 Assembler
  C:\KEIL_V5\C51\\LIB\C51L.LIB (?C?LADD)
         COMMENT TYPE 1: A51 / ASM51 Assembler
  C:\KEIL_V5\C51\\LIB\C51L.LIB (?C?LSUB)
         COMMENT TYPE 1: A51 / ASM51 Assembler
  C:\KEIL_V5\C51\\LIB\C51L.LIB (?C?LMUL)
         COMMENT TYPE 1: A51 / ASM51 Assembler
  C:\KEIL_V5\C51\\LIB\C51L.LIB (?C?ULDIV)
         COMMENT TYPE 1: A51 / ASM51 Assembler
  C:\KEIL_V5\C51\\LIB\C51L.LIB (?C?SLDIV)
         COMMENT TYPE 1: A51 / ASM51 Assembler
  C:\KEIL_V5\C51\\LIB\C51L.LIB (?C?LAND)
         COMMENT TYPE 1: A51 / ASM51 Assembler
  C:\KEIL_V5\C51\\LIB\C51L.LIB (?C?LOR)
         COMMENT TYPE 1: A51 / ASM51 Assembler
  C:\KEIL_V5\C51\\LIB\C51L.LIB (?C?LNEG)
         COMMENT TYPE 1: A51 / ASM51 Assembler
  C:\KEIL_V5\C51\\LIB\C51L.LIB (?C?SLCMP)
         COMMENT TYPE 1: A51 / ASM51 Assembler
  C:\KEIL_V5\C51\\LIB\C51L.LIB (?C?ULCMP)
LX51 LINKER/LOCATER V4.66.41.0                                                        08/02/2018  17:16:59  PAGE 6


         COMMENT TYPE 1: A51 / ASM51 Assembler
  C:\KEIL_V5\C51\\LIB\C51L.LIB (?C?ULSHR)
         COMMENT TYPE 1: A51 / ASM51 Assembler
  C:\KEIL_V5\C51\\LIB\C51L.LIB (?C?LSHL)
         COMMENT TYPE 1: A51 / ASM51 Assembler
  C:\KEIL_V5\C51\\LIB\C51L.LIB (?C?LLDPTR)
         COMMENT TYPE 1: A51 / ASM51 Assembler
  C:\KEIL_V5\C51\\LIB\C51L.LIB (?C?LLDOPTR)
         COMMENT TYPE 1: A51 / ASM51 Assembler
  C:\KEIL_V5\C51\\LIB\C51L.LIB (?C?LSTPTR)
         COMMENT TYPE 1: A51 / ASM51 Assembler
  C:\KEIL_V5\C51\\LIB\C51L.LIB (?C?LSTOPTR)
         COMMENT TYPE 1: A51 / ASM51 Assembler
  C:\KEIL_V5\C51\\LIB\C51L.LIB (?C?LLDXDATA)
         COMMENT TYPE 1: A51 / ASM51 Assembler
  C:\KEIL_V5\C51\\LIB\C51L.LIB (?C?LLDCODE)
         COMMENT TYPE 1: A51 / ASM51 Assembler
  C:\KEIL_V5\C51\\LIB\C51L.LIB (?C?LLDXDATA0)
         COMMENT TYPE 1: A51 / ASM51 Assembler
  C:\KEIL_V5\C51\\LIB\C51L.LIB (?C?LLDOPTR0)
         COMMENT TYPE 1: A51 / ASM51 Assembler
  C:\KEIL_V5\C51\\LIB\C51L.LIB (?C?LILDXDATA)
         COMMENT TYPE 1: A51 / ASM51 Assembler
  C:\KEIL_V5\C51\\LIB\C51L.LIB (?C?LSTXDATA)
         COMMENT TYPE 1: A51 / ASM51 Assembler
  C:\KEIL_V5\C51\\LIB\C51L.LIB (?C?LSTKXDATA)
         COMMENT TYPE 1: A51 / ASM51 Assembler
  C:\KEIL_V5\C51\\LIB\C51L.LIB (?C?LSTKPTR)
         COMMENT TYPE 1: A51 / ASM51 Assembler
  C:\KEIL_V5\C51\\LIB\C51L.LIB (?C?LSTKOPTR)
         COMMENT TYPE 1: A51 / ASM51 Assembler
  C:\KEIL_V5\C51\\LIB\C51L.LIB (?C?OFFX256)
         COMMENT TYPE 1: A51 / ASM51 Assembler
  C:\KEIL_V5\C51\\LIB\C51L.LIB (?C?OFFXADD)
         COMMENT TYPE 1: A51 / ASM51 Assembler
  C:\KEIL_V5\C51\\LIB\C51L.LIB (?C?PLDXDATA)
         COMMENT TYPE 1: A51 / ASM51 Assembler
  C:\KEIL_V5\C51\\LIB\C51L.LIB (?C?PLDIXDATA)
         COMMENT TYPE 1: A51 / ASM51 Assembler
  C:\KEIL_V5\C51\\LIB\C51L.LIB (?C?PSTXDATA)
         COMMENT TYPE 1: A51 / ASM51 Assembler
  C:\KEIL_V5\C51\\LIB\C51L.LIB (?C?PLDCODE)
         COMMENT TYPE 1: A51 / ASM51 Assembler
  C:\KEIL_V5\C51\\LIB\C51L.LIB (?C?PLDPTR)
         COMMENT TYPE 1: A51 / ASM51 Assembler
  C:\KEIL_V5\C51\\LIB\C51L.LIB (?C?PSTPTR)
         COMMENT TYPE 1: A51 / ASM51 Assembler
  C:\KEIL_V5\C51\\LIB\C51L.LIB (?C?PLDOPTR)
         COMMENT TYPE 1: A51 / ASM51 Assembler
  C:\KEIL_V5\C51\\LIB\C51L.LIB (?C?PSTOPTR)
         COMMENT TYPE 1: A51 / ASM51 Assembler
  C:\KEIL_V5\C51\\LIB\C51L.LIB (?C?CCASE)
         COMMENT TYPE 1: A51 / ASM51 Assembler
  C:\KEIL_V5\C51\\LIB\C51L.LIB (?C?LCASE)
         COMMENT TYPE 1: A51 / ASM51 Assembler
  C:\KEIL_V5\C51\\LIB\C51L.LIB (?C?ICALL)
         COMMENT TYPE 1: A51 / ASM51 Assembler
  C:\KEIL_V5\C51\\LIB\C51L.LIB (?C_XBP)
         COMMENT TYPE 1: A51 / ASM51 Assembler
  C:\KEIL_V5\C51\\LIB\C51L.LIB (?C?ADDXBP)
         COMMENT TYPE 1: A51 / ASM51 Assembler
  C:\KEIL_V5\C51\\LIB\C51L.LIB (?C?LIMUL)
         COMMENT TYPE 1: A51 / ASM51 Assembler
  C:\KEIL_V5\C51\\LIB\C51L.LIB (ABS)
         COMMENT TYPE 1: A51 / ASM51 Assembler
LX51 LINKER/LOCATER V4.66.41.0                                                        08/02/2018  17:16:59  PAGE 7


  C:\KEIL_V5\C51\\LIB\C51L.LIB (STRNCMP)
         COMMENT TYPE 1: C51 Compiler
  C:\KEIL_V5\C51\\LIB\C51L.LIB (?C?MEMCMP)
         COMMENT TYPE 1: A51 / ASM51 Assembler
  C:\KEIL_V5\C51\\LIB\C51L.LIB (?C?MEMSET)
         COMMENT TYPE 1: A51 / ASM51 Assembler
  C:\KEIL_V5\C51\\LIB\C51L.LIB (?C?LLDIDATA)
         COMMENT TYPE 1: A51 / ASM51 Assembler
  C:\KEIL_V5\C51\\LIB\C51L.LIB (?C?LLDPDATA)
         COMMENT TYPE 1: A51 / ASM51 Assembler
  C:\KEIL_V5\C51\\LIB\C51L.LIB (?C?LLDIDATA0)
         COMMENT TYPE 1: A51 / ASM51 Assembler
  C:\KEIL_V5\C51\\LIB\C51L.LIB (?C?LLDPDATA0)
         COMMENT TYPE 1: A51 / ASM51 Assembler
  C:\KEIL_V5\C51\\LIB\C51L.LIB (?C?LLDCODE0)
         COMMENT TYPE 1: A51 / ASM51 Assembler
  C:\KEIL_V5\C51\\LIB\C51L.LIB (?C?LSTIDATA)
         COMMENT TYPE 1: A51 / ASM51 Assembler
  C:\KEIL_V5\C51\\LIB\C51L.LIB (?C?LSTPDATA)
         COMMENT TYPE 1: A51 / ASM51 Assembler
  C:\KEIL_V5\C51\\LIB\C51L.LIB (?C?LSTKIDATA)
         COMMENT TYPE 1: A51 / ASM51 Assembler
  C:\KEIL_V5\C51\\LIB\C51L.LIB (?C?LSTKPDATA)
         COMMENT TYPE 1: A51 / ASM51 Assembler
  C:\KEIL_V5\C51\\LIB\C51L.LIB (?C?PLDIDATA)
         COMMENT TYPE 1: A51 / ASM51 Assembler
  C:\KEIL_V5\C51\\LIB\C51L.LIB (?C?PSTIDATA)
         COMMENT TYPE 1: A51 / ASM51 Assembler
  C:\KEIL_V5\C51\\LIB\C51L.LIB (?C?PLDPDATA)
         COMMENT TYPE 1: A51 / ASM51 Assembler
  C:\KEIL_V5\C51\\LIB\C51L.LIB (?C?PSTPDATA)
         COMMENT TYPE 1: A51 / ASM51 Assembler


ACTIVE MEMORY CLASSES OF MODULE:  .\build_prj\CSZ1\Rels\CSZ1.aof (ZW_VERSION)

BASE        START       END         USED      MEMORY CLASS
==========================================================
I:000020H.0 I:000020H.0 I:00002FH.7 00000EH.4 BIT
I:000000H   I:000000H   I:00001FH   00006CH   DATA
            I:000030H   I:00007FH               
I:000000H   I:000080H   I:0000FFH   00006DH   IDATA
X:000000H   X:002000H   X:004FFFH   0023E0H   XDATA
X:000000H   X:002000H   X:004FFFH             XDATA_UPPER
X:000000H   X:000000H   X:000FFFH   000A9CH   XDATA_LOWER
X:000000H   X:010000H   X:01FFFFH   001211H   HDATA_LIB
X:000000H   X:010000H   X:01FFFFH   000210H   HDATA
B00:0000H   C:108000H   C:10BFFFH             HCONST
X:000000H   X:001200H   X:001254H   00004AH   XDATA_NON_ZERO_VARS_ZW
X:000000H   X:001255H   X:00127FH   00002AH   XDATA_NON_ZERO_VARS_APP
C:000000H   C:001800H   C:007F7FH   01A6E5H   CODE
            C:007FB0H   C:00FFFBH               
C:000000H   C:007F80H   C:007FAFH   000028H   CONST_NVM
C:000000H   C:001800H   C:007F7FH   0002ECH   CONST
            C:007FB0H   C:00FFFBH               


MEMORY MAP OF MODULE:  .\build_prj\CSZ1\Rels\CSZ1.aof (ZW_VERSION)


START     STOP      LENGTH    ALIGN  RELOC    MEMORY CLASS   SEGMENT NAME
=========================================================================

* * * * * * * * * * *   D A T A   M E M O R Y   * * * * * * * * * * * * *
000000H   000007H   000008H   ---    AT..     DATA           "REG BANK 0"
LX51 LINKER/LOCATER V4.66.41.0                                                        08/02/2018  17:16:59  PAGE 8


000008H   00000FH   000008H   ---    AT..     DATA           "REG BANK 1"
000010H   00001FH   000010H   BYTE   UNIT     DATA           ?DT?ZW_RF_DRIVER
000020H.0 000023H.2 000003H.3 BIT    UNIT     BIT            ?BI?SHADE
000023H.3 000024H.0 000000H.6 BIT    UNIT     BIT            ?BI?ZW_SLAVE
000024H.1 000024H.5 000000H.5 BIT    UNIT     BIT            ?BI?ZW_TRANSPORT
000024H.6 000025H.1 000000H.4 BIT    UNIT     BIT            ?BI?ZW_EXPLORE
000025H.2 000025H.4 000000H.3 BIT    UNIT     BIT            ?BI?ZW_MAIN
000025H.5 000025H.7 000000H.3 BIT    UNIT     BIT            ?BI?ZW_RF_DRIVER
000026H.0 000026H.2 000000H.3 BIT    UNIT     BIT            ?BI?ZW_ROUTING_ALL
000026H.3 000026H.5 000000H.3 BIT    UNIT     BIT            ?BI?ZW_TRANSPORT_SUPPORT
000026H.6 000027H.0 000000H.3 BIT    UNIT     BIT            ?BI?DIAG_PROTOCOL
000027H.1 000027H.2 000000H.2 BIT    UNIT     BIT            ?BI?RF_SENSOR_MODE_ENABLE?ZW_PHY_RF_050X
000027H.3 000027H.4 000000H.2 BIT    UNIT     BIT            ?BI?INCSEQNO?ZW_TRANSPORT
000027H.5 000027H.6 000000H.2 BIT    UNIT     BIT            ?BI?ZW_TRANSPORT_TIMER
000027H.7 000028H.0 000000H.2 BIT    UNIT     BIT            ?BI?_HANDLESTARTCHANGECMD?SHADE
000028H.1 000028H.2 000000H.2 BIT    UNIT     BIT            ?BI?_MYHANDLECOMMANDCLASSMULTILEVELSWITCH?SHADE
000028H.3 000028H.4 000000H.2 BIT    UNIT     BIT            ?BI?I2C_WRITE_BYTE?B_I2C
000028H.5 000028H.6 000000H.2 BIT    UNIT     BIT            ?BI?I2C_READ_BYTE?B_I2C
000028H.7 000029H.0 000000H.2 BIT    UNIT     BIT            ?BI?OTAHOSTFWU_STATUS?OTA_UTIL
000029H.1 000029H.1 000000H.1 BIT    UNIT     BIT            ?BI?GETTICKTIME?ZW_TIMER
000029H.2 000029H.2 000000H.1 BIT    UNIT     BIT            ?BI?_SWITCHTOTX?ZW_RF_DRIVER
000029H.3 000029H.3 000000H.1 BIT    UNIT     BIT            ?BI?_RFTRANSMITNOW?ZW_RF_DRIVER
000029H.4 000029H.4 000000H.1 BIT    UNIT     BIT            ?BI?RF_ENABLEFLIRSBROADCAST?ZW_RF_DRIVER
000029H.5 000029H.5 000000H.1 BIT    UNIT     BIT            ?BI?ZW_CLEARNETWORKSTATS?ZW_RF_DRIVER
000029H.6 000029H.6 000000H.1 BIT    UNIT     BIT            ?BI?_ZW_GETNETWORKSTATS?ZW_RF_DRIVER
000029H.7 000029H.7 000000H.1 BIT    UNIT     BIT            ?BI?ZW_NETWORK_MANAGEMENT
00002AH.0 00002AH.0 000000H.1 BIT    UNIT     BIT            ?BI?__PLL_WAIT_LOCK_AND_SEQUENCER_DONE?ZW_PHY_RF_050X
00002AH.1 00002AH.1 000000H.1 BIT    UNIT     BIT            ?BI?__PLL_SET_BANK5?ZW_PHY_RF_050X
00002AH.2 00002AH.2 000000H.1 BIT    UNIT     BIT            ?BI?__RF_SET_IF_SETTING?ZW_PHY_RF_050X
00002AH.3 00002AH.3 000000H.1 BIT    UNIT     BIT            ?BI?_RF_GENERAL_SETUP?ZW_PHY_RF_050X
00002AH.4 00002AH.4 000000H.1 BIT    UNIT     BIT            ?BI?_RF_ONETIME_INIT?ZW_PHY_RF_050X
00002AH.5 00002AH.5 000000H.1 BIT    UNIT     BIT            ?BI?_RF_ONETIME_INIT_AND_RX?ZW_PHY_RF_050X
00002AH.6 00002AH.6 000000H.1 BIT    UNIT     BIT            ?BI?_RF_SWITCH_TO_TX?ZW_PHY_RF_050X
00002AH.7 00002AH.7 000000H.1 BIT    UNIT     BIT            ?BI?RF_DEMODULATOR_ENABLE?ZW_PHY_RF_050X
00002BH.0 00002BH.0 000000H.1 BIT    UNIT     BIT            ?BI?RF_DEMODULATOR_ENABLE_FAST?ZW_PHY_RF_050X
00002BH.1 00002BH.1 000000H.1 BIT    UNIT     BIT            ?BI?ZW_PHY_GENERIC_SPI_IF
00002BH.2 00002BH.2 000000H.1 BIT    UNIT     BIT            ?BI?_STOREROUTEEXPLORE?ZW_ROUTING_ALL
00002BH.3 00002BH.3 000000H.1 BIT    UNIT     BIT            ?BI?ZW_HW_INIT
00002BH.4 00002BH.4 000000H.1 BIT    UNIT     BIT            ?BI?_SEND_AND_RAISE?ZW_SECURE_LEARN_SUPPORT
00002BH.5 00002BH.5 000000H.1 BIT    UNIT     BIT            ?BI?_SECURITY_ADD_BEGIN?ZW_SECURE_LEARN_SUPPORT
00002BH.6 00002BH.6 000000H.1 BIT    UNIT     BIT            ?BI?_DUPLICATEFRAME?SHADE
00002BH.7 00002BH.7 000000H.1 BIT    UNIT     BIT            ?BI?ZCB_OTASTART?SHADE
00002CH.0 00002CH.0 000000H.1 BIT    UNIT     BIT            ?BI?_SETMOTORPOSITION?SHADE
00002CH.1 00002CH.1 000000H.1 BIT    UNIT     BIT            ?BI?I2C_WRITE_BIT?B_I2C
00002CH.2 00002CH.2 000000H.1 BIT    UNIT     BIT            ?BI?I2C_READ_BIT?B_I2C
00002CH.3 00002CH.3 000000H.1 BIT    UNIT     BIT            ?BI?B_I2C
00002CH.4 00002CH.4 000000H.1 BIT    UNIT     BIT            ?BI?_READMOTOR?SHADEFUNCTIONS
00002CH.5 00002CH.5 000000H.1 BIT    UNIT     BIT            ?BI?_WRITEMOTOR?SHADEFUNCTIONS
00002CH.6 00002CH.6 000000H.1 BIT    UNIT     BIT            ?BI?ISMOTORRUNNING?SHADEFUNCTIONS
00002CH.7 00002CH.7 000000H.1 BIT    UNIT     BIT            ?BI?DECODEUARTCOMMAND?DIAG_PROTOCOL
00002DH.0 00002DH.0 000000H.1 BIT    UNIT     BIT            ?BI?_ASSOCIATIONADDNODE?ASSOCIATION_PLUS
00002DH.1 00002DH.1 000000H.1 BIT    UNIT     BIT            ?BI?ASSOCIATIONINIT?ASSOCIATION_PLUS
00002DH.2 00002DH.2 000000H.1 BIT    UNIT     BIT            ?BI?ASSOCIATIONINITENDPOINTSUPPORT?ASSOCIATION_PLUS
00002DH.3 00002DH.3 000000H.1 BIT    UNIT     BIT            ?BI?_REQUESTBUFFERSUPERVISIONPAYLOADACTIVATE?ZW_TX_MUTEX
00002DH.4 00002DH.4 000000H.1 BIT    UNIT     BIT            ?BI?APPL_TIMER
00002DH.5 00002DH.5 000000H.1 BIT    UNIT     BIT            ?BI?_SENDFIRMWAREUPDATESTATUSREPORT?OTA_UTIL
00002DH.6 00002DH.6 000000H.1 BIT    UNIT     BIT            ?BI?GETENDPOINTCMDCLASSLIST?ZW_TRANSPORTENDPOINT
00002DH.7 00002DH.7 000000H.1 BIT    UNIT     BIT            ?BI?_CHECK_NOT_LEGAL_RESPONSE_JOB?ZW_TRANSPORTENDPOINT
00002EH.0 00002EH.0 000000H.1 BIT    UNIT     BIT            ?BI?SETFLAGSUPERVISIONENCAP?ZW_TRANSPORTENDPOINT
00002EH.1 00002EH.1 000000H.1 BIT    UNIT     BIT            ?BI?ZW_TRANSPORTMULTICAST
00002EH.2 00002EH.2 000000H.1 BIT    UNIT     BIT            ?BI?GETCOMMANDCLASSLIST?ZW_TRANSPORTSECPROTOCOL
00002EH.3 00002EH.3 000000H.1 BIT    UNIT     BIT            ?BI?ZAF_PM
00002EH.4 00002FH   000001H.4 ---    ---      **GAP**
000030H   00004FH   000020H   BYTE   UNIT     DATA           ?DT?_bigint_mul?BIGINT
000050H   000057H   000008H   BYTE   UNIT     DATA           ?DT?ZW_HW_INIT
LX51 LINKER/LOCATER V4.66.41.0                                                        08/02/2018  17:16:59  PAGE 9


000058H   00005DH   000006H   BYTE   UNIT     DATA           ?DT?ZW_EXPLORE
00005EH   000063H   000006H   BYTE   UNIT     DATA           ?DT?SHADE
000064H   000067H   000004H   BYTE   UNIT     DATA           ?DT?ZW_TRANSPORT
000068H   00006BH   000004H   BYTE   UNIT     DATA           ?DT?ZW_SLAVE
00006CH   00006DH   000002H   BYTE   UNIT     DATA           ?DT?ZW_TIMER
00006EH   00006FH   000002H   BYTE   UNIT     DATA           ?C?LIB_DATA
000070H   000070H   000001H   BYTE   UNIT     DATA           ?DT?ZW_MULTI_INT_050X
000071H   000071H   000001H   BYTE   UNIT     DATA           ?DT?TIMERACTION?ZW_TIMER
000072H   000072H   000001H   BYTE   UNIT     DATA           ?DT?ZW_TX_QUEUE
000073H   000073H   000001H   BYTE   UNIT     DATA           ?DT?ZW_TRANSPORT_TIMER
000074H   000074H   000001H   BYTE   UNIT     DATA           ?DT?_ZCB_LEARNMODECALLBACK?SHADE
000075H   000075H   000001H   BYTE   UNIT     DATA           ?DT?_APPLICATIONNETWORKLEARNMODECOMPLETED?SHADE
000076H   000076H   000001H   BYTE   UNIT     DATA           ?DT?_SENDBATTERY?SHADE
000077H   000077H   000001H   BYTE   UNIT     DATA           ?DT?_MYHANDLECOMMANDCLASSMULTILEVELSWITCH?SHADE
000078H   000078H   000001H   BYTE   UNIT     DATA           ?DT?LOADCONFIGURATION?SHADE
000079H   000079H   000001H   BYTE   UNIT     DATA           ?DT?B_I2C
00007AH   00007AH   000001H   BYTE   UNIT     DATA           ?DT?SHADEFUNCTIONS
00007BH   00007BH   000001H   BYTE   UNIT     DATA           ?BANK?DATA
00007CH   00007FH   000004H   ---    ---      **GAP**
000080H   00009FH   000020H   BYTE   UNIT     IDATA          ?ID?_bigint_add?BIGINT
0000A0H   0000A7H   000008H   BYTE   UNIT     IDATA          ?ID?ZW_EXPLORE
0000A8H   0000AEH   000007H   BYTE   UNIT     IDATA          ?ID?ZW_TRANSPORT
0000AFH   0000B0H   000002H   BYTE   UNIT     IDATA          ?ID?_START_GP_TIMER?ZW_TRANSPORT_SUPPORT
0000B1H   0000ECH   00003CH   BYTE   UNIT     IDATA          ?STACK

* * * * * * * * * * *   C O D E   M E M O R Y   * * * * * * * * * * * * *

***   CODE BANK 1   ***
008000H   008096H   000097H   BYTE   UNIT     CODE/B1        ?PR?_bigint_mul?BIGINT
008097H   0080FAH   000064H   BYTE   UNIT     CODE/B1        ?PR?_bigint_add?BIGINT
0080FBH   00815EH   000064H   BYTE   UNIT     CODE/B1        ?PR?_bigint_sub?BIGINT
00815FH   0081A9H   00004BH   BYTE   UNIT     CODE/B1        ?PR?_bigint_cmov?BIGINT
0081AAH   008231H   000088H   BYTE   UNIT     CODE/B1        ?PR?_FINDCORRESPONDINGOLDNVMMODULEDESCRIPTOR?ZW_NVM_REARRA
                                                             -NGE
008232H   0084DEH   0002ADH   BYTE   UNIT     CODE/B1        ?PR?REARRANGENVMMODULES?ZW_NVM_REARRANGE
0084DFH   0084F6H   000018H   BYTE   UNIT     CODE/B1        ?L?COM017D
0084F7H   0084FEH   000008H   BYTE   UNIT     CODE/B1        ?L?COM0339
0084FFH   008509H   00000BH   BYTE   UNIT     CODE/B1        ?L?COM0328
00850AH   00864CH   000143H   BYTE   UNIT     CODE/B1        ?PR?_CINITNVMVARIABLES?ZW_NVM_INIT
00864DH   008661H   000015H   BYTE   UNIT     CODE/B1        ?L?COM02D1
008662H   00868CH   00002BH   BYTE   UNIT     CODE/B1        ?L?COM0145
00868DH   008693H   000007H   BYTE   UNIT     CODE/B1        ?L?COM02F1
008694H   0086E7H   000054H   BYTE   UNIT     CODE/B1        ?PR?_WORK_CSWAP?CURVE25519
0086E8H   0086FCH   000015H   BYTE   UNIT     CODE/B1        ?L?COM015A
0086FDH   008715H   000019H   BYTE   UNIT     CODE/B1        ?L?COM0285
008716H   0087C7H   0000B2H   BYTE   UNIT     CODE/B1        ?PR?_NVM_MOVEDATA?ZW_NVM_REARRANGE
0087C8H   0087CDH   000006H   BYTE   UNIT     CODE/B1        ?PR?ZW_GETSECURITYKEYS?ZW_KEYSTORE
0087CEH   0087E1H   000014H   BYTE   UNIT     CODE/B1        ?PR?_ZCB_TSCALLBACKFUNC?ZW_TRANSPORT
0087E2H   0087E2H   000001H   BYTE   UNIT     CODE/B1        ?PR?_ZCB_TRANSPORTDUMMYAPPLICATIONCALLBACK?ZW_TRANSPORT
0087E3H   008816H   000034H   BYTE   UNIT     CODE/B1        ?PR?_TRANSPORTTRANSMITCOMPLETE?ZW_TRANSPORT
008817H   008867H   000051H   BYTE   UNIT     CODE/B1        ?PR?_TIMEOUTCONVERT?ZW_TRANSPORT
008868H   008871H   00000AH   BYTE   UNIT     CODE/B1        ?L?COM0022
008872H   00890EH   00009DH   BYTE   UNIT     CODE/B1        ?PR?_PROTOCOLWAITFORACK?ZW_TXQ_PROTOCOL
00890FH   008931H   000023H   BYTE   UNIT     CODE/B1        ?PR?_TRANSMITTIMERSTART?ZW_TRANSPORT
008932H   008EBFH   00058EH   BYTE   UNIT     CODE/B1        ?PR?_RECEIVEHANDLER?ZW_TRANSPORT
008EC0H   008EE3H   000024H   BYTE   UNIT     CODE/B1        ?L?COM0001
008EE4H   008EEBH   000008H   BYTE   UNIT     CODE/B1        ?L?COM00FA
008EECH   008F59H   00006EH   BYTE   UNIT     CODE/B1        ?PR?_ROUTEMATCHESACTIVE?ZW_TRANSPORT
008F5AH   008F5FH   000006H   BYTE   UNIT     CODE/B1        ?L?COM0409
008F60H   008F62H   000003H   BYTE   UNIT     CODE/B1        ?PR?ROUTECACHEDRESET?ZW_ROUTING_ALL
008F63H   008F6AH   000008H   BYTE   UNIT     CODE/B1        ?PR?TRANSMITTIMERSTOP?ZW_TRANSPORT
008F6BH   008F9BH   000031H   BYTE   UNIT     CODE/B1        ?PR?_TRANSMITTIMERSTART_NOSPEED?ZW_TRANSPORT
008F9CH   0098E2H   000947H   BYTE   UNIT     CODE/B1        ?PR?_ISMYFRAME?ZW_TRANSPORT
0098E3H   0098F0H   00000EH   BYTE   UNIT     CODE/B1        ?L?COM0025
0098F1H   0098FAH   00000AH   BYTE   UNIT     CODE/B1        ?L?COM0073
LX51 LINKER/LOCATER V4.66.41.0                                                        08/02/2018  17:16:59  PAGE 10


0098FBH   009D18H   00041EH   BYTE   UNIT     CODE/B1        ?PR?_BUILDTXHEADER?ZW_TRANSPORT
009D19H   009D26H   00000EH   BYTE   UNIT     CODE/B1        ?L?COM0047
009D27H   009D2DH   000007H   BYTE   UNIT     CODE/B1        ?L?COM0411
009D2EH   009D34H   000007H   BYTE   UNIT     CODE/B1        ?L?COM039F
009D35H   009D3EH   00000AH   BYTE   UNIT     CODE/B1        ?L?COM002B
009D3FH   009D55H   000017H   BYTE   UNIT     CODE/B1        ?L?COM0061
009D56H   009D65H   000010H   BYTE   UNIT     CODE/B1        ?L?COM004D
009D66H   009D6CH   000007H   BYTE   UNIT     CODE/B1        ?L?COM01DC
009D6DH   009D73H   000007H   BYTE   UNIT     CODE/B1        ?L?COM029C
009D74H   009D7AH   000007H   BYTE   UNIT     CODE/B1        ?L?COM03A3
009D7BH   009D83H   000009H   BYTE   UNIT     CODE/B1        ?L?COM01AF
009D84H   009D8DH   00000AH   BYTE   UNIT     CODE/B1        ?L?COM0082
009D8EH   009D97H   00000AH   BYTE   UNIT     CODE/B1        ?L?COM02F9
009D98H   009D9DH   000006H   BYTE   UNIT     CODE/B1        ?PR?_GETTRANSMITSPEEDOPTIONS?ZW_TRANSPORT
009D9EH   009DA6H   000009H   BYTE   UNIT     CODE/B1        ?PR?DELAYTIMERSTOP?ZW_TRANSPORT
009DA7H   009F98H   0001F2H   BYTE   UNIT     CODE/B1        ?PR?_SENDROUTEACK?ZW_TRANSPORT
009F99H   009FA9H   000011H   BYTE   UNIT     CODE/B1        ?L?COM0090
009FAAH   009FB0H   000007H   BYTE   UNIT     CODE/B1        ?L?COM04A1
009FB1H   009FCCH   00001CH   BYTE   UNIT     CODE/B1        ?PR?RETURNROUTERESETPRIORITY?ZW_TRANSPORT
009FCDH   00A2F9H   00032DH   BYTE   UNIT     CODE/B1        ?PR?RETRANSMITFAIL?ZW_TRANSPORT
00A2FAH   00A30BH   000012H   BYTE   UNIT     CODE/B1        ?L?COM014D
00A30CH   00A312H   000007H   BYTE   UNIT     CODE/B1        ?L?COM0670
00A313H   00A31BH   000009H   BYTE   UNIT     CODE/B1        ?L?COM04CD
00A31CH   00A36EH   000053H   BYTE   UNIT     CODE/B1        ?PR?ZW_SETDEFAULT?ZW_SLAVE
00A36FH   00A378H   00000AH   BYTE   UNIT     CODE/B1        ?PR?_RETURNROUTECLEARPRIORITY?ZW_TRANSPORT
00A379H   00A401H   000089H   BYTE   UNIT     CODE/B1        ?PR?_ZCB_RETURNROUTEFINDPRIORITY?ZW_TRANSPORT
00A402H   00A491H   000090H   BYTE   UNIT     CODE/B1        ?PR?_RETURNROUTECHANGEPRIORITY?ZW_TRANSPORT
00A492H   00A731H   0002A0H   BYTE   UNIT     CODE/B1        ?PR?_ENQUEUESINGLEDATAPTR?ZW_TRANSPORT
00A732H   00A739H   000008H   BYTE   UNIT     CODE/B1        ?L?COM01B1
00A73AH   00A743H   00000AH   BYTE   UNIT     CODE/B1        ?L?COM0075
00A744H   00A74BH   000008H   BYTE   UNIT     CODE/B1        ?L?COM0672
00A74CH   00A756H   00000BH   BYTE   UNIT     CODE/B1        ?L?COM03BF
00A757H   00A8E5H   00018FH   BYTE   UNIT     CODE/B1        ?PR?_ZCB_ZWREPEATCOMPLETE?ZW_TRANSPORT
00A8E6H   00A8ECH   000007H   BYTE   UNIT     CODE/B1        ?L?COM0104
00A8EDH   00A9B5H   0000C9H   BYTE   UNIT     CODE/B1        ?PR?_RETURNROUTEFINDNEXT?ZW_TRANSPORT
00A9B6H   00A9FEH   000049H   BYTE   UNIT     CODE/B1        ?PR?_RETURNROUTEFINDFIRST?ZW_TRANSPORT
00A9FFH   00AA17H   000019H   BYTE   UNIT     CODE/B1        ?PR?TXRANDOM?ZW_TRANSPORT
00AA18H   00AA1FH   000008H   BYTE   UNIT     CODE/B1        ?L?COM0674
00AA20H   00AA23H   000004H   BYTE   UNIT     CODE/B1        ?PR?_ZW_SENDTESTFRAME?ZW_SLAVE
00AA24H   00AA98H   000075H   BYTE   UNIT     CODE/B1        ?PR?_SENDTESTFRAME?ZW_SLAVE
00AA99H   00AB09H   000071H   BYTE   UNIT     CODE/B1        ?PR?_ENQUEUESINGLEDATA?ZW_TRANSPORT
00AB0AH   00AB17H   00000EH   BYTE   UNIT     CODE/B1        ?L?COM00FE
00AB18H   00AD18H   000201H   BYTE   UNIT     CODE/B1        ?PR?_UPDATERESPONSEROUTELASTRETURNROUTE?ZW_SLAVE
00AD19H   00AD26H   00000EH   BYTE   UNIT     CODE/B1        ?L?COM0141
00AD27H   00AD3BH   000015H   BYTE   UNIT     CODE/B1        ?L?COM00BA
00AD3CH   00AD5AH   00001FH   BYTE   UNIT     CODE/B1        ?L?COM00EE
00AD5BH   00AE2FH   0000D5H   BYTE   UNIT     CODE/B1        ?PR?_STORERETURNROUTESPEED?ZW_SLAVE
00AE30H   00AE3BH   00000CH   BYTE   UNIT     CODE/B1        ?L?COM0281
00AE3CH   00AE4AH   00000FH   BYTE   UNIT     CODE/B1        ?L?COM021C
00AE4BH   00AEFAH   0000B0H   BYTE   UNIT     CODE/B1        ?PR?_HANDLESUCRETURNROUTE?ZW_SLAVE
00AEFBH   00AF02H   000008H   BYTE   UNIT     CODE/B1        ?L?COM0675
00AF03H   00AF0CH   00000AH   BYTE   UNIT     CODE/B1        ?L?COM042C
00AF0DH   00AF17H   00000BH   BYTE   UNIT     CODE/B1        ?L?COM013B
00AF18H   00AF25H   00000EH   BYTE   UNIT     CODE/B1        ?L?COM0355
00AF26H   00AF54H   00002FH   BYTE   UNIT     CODE/B1        ?PR?_ZW_ISNODEWITHINDIRECTRANGE?ZW_SLAVE
00AF55H   00AF5CH   000008H   BYTE   UNIT     CODE/B1        ?L?COM04D3
00AF5DH   00AF64H   000008H   BYTE   UNIT     CODE/B1        ?L?COM04BA
00AF65H   00AF6CH   000008H   BYTE   UNIT     CODE/B1        ?L?COM0668
00AF6DH   00AF75H   000009H   BYTE   UNIT     CODE/B1        ?L?COM034C
00AF76H   00AF7EH   000009H   BYTE   UNIT     CODE/B1        ?PR?_SETTRANSMITSPEEDOPTIONS?ZW_TRANSPORT
00AF7FH   00AF88H   00000AH   BYTE   UNIT     CODE/B1        ?L?COM02BF
00AF89H   00AF91H   000009H   BYTE   UNIT     CODE/B1        ?L?COM05A3
00AF92H   00AF99H   000008H   BYTE   UNIT     CODE/B1        ?PR?_ZW_SETLEARNMODE?ZW_SLAVE
00AF9AH   00B029H   000090H   BYTE   UNIT     CODE/B1        ?PR?_INTERNSETLEARNMODE?ZW_SLAVE
00B02AH   00B0A2H   000079H   BYTE   UNIT     CODE/B1        ?PR?_ZCB_ASSIGNCOMPLETE?ZW_SLAVE
LX51 LINKER/LOCATER V4.66.41.0                                                        08/02/2018  17:16:59  PAGE 11


00B0A3H   00B859H   0007B7H   BYTE   UNIT     CODE/B1        ?PR?_COMMANDHANDLER?ZW_SLAVE
00B85AH   00B93DH   0000E4H   BYTE   UNIT     CODE/B1        ?PR?_HANDLETRANSFERACK?ZW_TRANSPORT
00B93EH   00BA2FH   0000F2H   BYTE   UNIT     CODE/B1        ?PR?_TXPERMANENTLYDONE?ZW_TXQ_PROTOCOL
00BA30H   00BBC8H   000199H   BYTE   UNIT     CODE/B1        ?PR?_STOREROUTE?ZW_ROUTING_ALL
00BBC9H   00BBDCH   000014H   BYTE   UNIT     CODE/B1        ?L?COM00DA
00BBDDH   00BBE4H   000008H   BYTE   UNIT     CODE/B1        ?L?COM0382
00BBE5H   00BBF6H   000012H   BYTE   UNIT     CODE/B1        ?L?COM00F6
00BBF7H   00BC01H   00000BH   BYTE   UNIT     CODE/B1        ?L?COM0095
00BC02H   00BC0CH   00000BH   BYTE   UNIT     CODE/B1        ?L?COM020C
00BC0DH   00BC0FH   000003H   BYTE   UNIT     CODE/B1        ?PR?ZW_GETMAXPAYLOADSIZE?ZW_TRANSPORT
00BC10H   00BC7AH   00006BH   BYTE   UNIT     CODE/B1        ?PR?_SETTRANSMITHOMEID?ZW_TRANSPORT
00BC7BH   00BD42H   0000C8H   BYTE   UNIT     CODE/B1        ?PR?_STOREROUTEEXPLORE?ZW_ROUTING_ALL
00BD43H   00BD4DH   00000BH   BYTE   UNIT     CODE/B1        ?L?COM02CF
00BD4EH   00BD59H   00000CH   BYTE   UNIT     CODE/B1        ?L?COM0245
00BD5AH   00BD67H   00000EH   BYTE   UNIT     CODE/B1        ?L?COM0187
00BD68H   00BDA7H   000040H   BYTE   UNIT     CODE/B1        ?PR?_UPDATERSSIINREPEATEDFRAME?ZW_TRANSPORT
00BDA8H   00BDB6H   00000FH   BYTE   UNIT     CODE/B1        ?L?COM0390
00BDB7H   00BE13H   00005DH   BYTE   UNIT     CODE/B1        ?PR?INCSEQNO?ZW_TRANSPORT
00BE14H   00BE52H   00003FH   BYTE   UNIT     CODE/B1        ?PR?_ZCB_NEIGHBORCOMPLETE?ZW_SLAVE
00BE53H   00BF1AH   0000C8H   BYTE   UNIT     CODE/B1        ?PR?_FINDNEIGHBORS?ZW_SLAVE
00BF1BH   00C131H   000217H   BYTE   UNIT     CODE/B1        ?PR?_FORMAT_AAD?CCM
00C132H   00C13EH   00000DH   BYTE   UNIT     CODE/B1        ?L?COM00A9
00C13FH   00C17BH   00003DH   BYTE   UNIT     CODE/B1        ?PR?_BIT_XOR?CCM
00C17CH   00C286H   00010BH   BYTE   UNIT     CODE/B1        ?PR?_FORMAT_PAYLOAD_BLOCK?CCM
00C287H   00C294H   00000EH   BYTE   UNIT     CODE/B1        ?L?COM017B
00C295H   00C29FH   00000BH   BYTE   UNIT     CODE/B1        ?L?COM0179
00C2A0H   00C2B5H   000016H   BYTE   UNIT     CODE/B1        ?L?COM010C
00C2B6H   00C2BFH   00000AH   BYTE   UNIT     CODE/B1        ?L?COM0349
00C2C0H   00C2C7H   000008H   BYTE   UNIT     CODE/B1        ?L?COM065B
00C2C8H   00C2D0H   000009H   BYTE   UNIT     CODE/B1        ?L?COM030B
00C2D1H   00C2D9H   000009H   BYTE   UNIT     CODE/B1        ?L?COM049B
00C2DAH   00C2DFH   000006H   BYTE   UNIT     CODE/B1        ?L?COM04B8
00C2E0H   00C2E9H   00000AH   BYTE   UNIT     CODE/B1        ?L?COM054C
00C2EAH   00C30DH   000024H   BYTE   UNIT     CODE/B1        ?PR?_CIPH_BLOCK?CCM
00C30EH   00C3FBH   0000EEH   BYTE   UNIT     CODE/B1        ?PR?_ZCB_PROTOCOLTRANSMITCOMPLETE?ZW_TXQ_PROTOCOL
00C3FCH   00C402H   000007H   BYTE   UNIT     CODE/B1        ?L?COM0196
00C403H   00C548H   000146H   BYTE   UNIT     CODE/B1        ?PR?_CCM_DECRYPT_AND_AUTH?CCM
00C549H   00C552H   00000AH   BYTE   UNIT     CODE/B1        ?L?COM02F3
00C553H   00C561H   00000FH   BYTE   UNIT     CODE/B1        ?L?COM01C2
00C562H   00C5A7H   000046H   BYTE   UNIT     CODE/B1        ?PR?_PADDING?AES_CMAC
00C5A8H   00C71CH   000175H   BYTE   UNIT     CODE/B1        ?PR?_ENQUEUECOMMON?ZW_TRANSPORT
00C71DH   00C739H   00001DH   BYTE   UNIT     CODE/B1        ?PR?_TXQUEUEQUEUEELEMENT?ZW_TX_QUEUE
00C73AH   00C73BH   000002H   BYTE   UNIT     CODE/B1        ?PR?_TXQUEUEREQUEUEELEMENT?ZW_TX_QUEUE
00C73CH   00C836H   0000FBH   BYTE   UNIT     CODE/B1        ?PR?_TRANSPORTENQUEUEEXPLOREFRAME?ZW_TRANSPORT
00C837H   00C863H   00002DH   BYTE   UNIT     CODE/B1        ?PR?_RETURNROUTEGETSPEED?ZW_TRANSPORT
00C864H   00C870H   00000DH   BYTE   UNIT     CODE/B1        ?L?COM01FF
00C871H   00C87CH   00000CH   BYTE   UNIT     CODE/B1        ?L?COM0289
00C87DH   00C88EH   000012H   BYTE   UNIT     CODE/B1        ?L?COM01CB
00C88FH   00C893H   000005H   BYTE   UNIT     CODE/B1        ?PR?CLEANUPAFTERFAILEDTXELEMALLOC?ZW_TRANSPORT
00C894H   00C8BEH   00002BH   BYTE   UNIT     CODE/B1        ?PR?_CONVERTHEADERINFOTOFRAMETYPE?ZW_TRANSPORT
00C8BFH   00C984H   0000C6H   BYTE   UNIT     CODE/B1        ?PR?TRANSMITRETURNROUTESETUP?ZW_TRANSPORT
00C985H   00CA32H   0000AEH   BYTE   UNIT     CODE/B1        ?PR?_AES_CTR_DRBG_UPDATE?CTR_DRBG
00CA33H   00CA3DH   00000BH   BYTE   UNIT     CODE/B1        ?L?COM0447
00CA3EH   00CA44H   000007H   BYTE   UNIT     CODE/B1        ?L?COM05A4
00CA45H   00CA5CH   000018H   BYTE   UNIT     CODE/B1        ?PR?ZCB_DELAYEDRETRANSMITFAIL?ZW_TRANSPORT
00CA5DH   00CBD8H   00017CH   BYTE   UNIT     CODE/B1        ?PR?_ZW_SENDDATAEX?ZW_TRANSPORT
00CBD9H   00CBE4H   00000CH   BYTE   UNIT     CODE/B1        ?L?COM0088
00CBE5H   00CBECH   000008H   BYTE   UNIT     CODE/B1        ?L?COM04F5
00CBEDH   00CBF5H   000009H   BYTE   UNIT     CODE/B1        ?L?COM05ED
00CBF6H   00CBFCH   000007H   BYTE   UNIT     CODE/B1        ?L?COM02F6
00CBFDH   00CC03H   000007H   BYTE   UNIT     CODE/B1        ?L?COM0540
00CC04H   00CC0BH   000008H   BYTE   UNIT     CODE/B1        ?L?COM02A4
00CC0CH   00CC0CH   000001H   BYTE   UNIT     CODE/B1        ?PR?_ZCB_ZWTRANSMITCOMPLETE?ZW_TRANSPORT
00CC0DH   00CC37H   00002BH   BYTE   UNIT     CODE/B1        ?PR?CHECKSEQNO?ZW_TRANSPORT
00CC38H   00CCBCH   000085H   BYTE   UNIT     CODE/B1        ?PR?PROTOCOLWAITACKTIMEOUT?ZW_TXQ_PROTOCOL
LX51 LINKER/LOCATER V4.66.41.0                                                        08/02/2018  17:16:59  PAGE 12


00CCBDH   00CD66H   0000AAH   BYTE   UNIT     CODE/B1        ?PR?_FORMAT_B0?CCM
00CD67H   00CE54H   0000EEH   BYTE   UNIT     CODE/B1        ?PR?_CCM_ENCRYPT_AND_AUTH?CCM
00CE55H   00CE5EH   00000AH   BYTE   UNIT     CODE/B1        ?L?COM029E
00CE5FH   00CE66H   000008H   BYTE   UNIT     CODE/B1        ?L?COM00BE
00CE67H   00CE75H   00000FH   BYTE   UNIT     CODE/B1        ?PR?_ZW_SETLISTENBEFORETALKTHRESHOLD?ZW_TRANSPORT
00CE76H   00CE7DH   000008H   BYTE   UNIT     CODE/B1        ?L?COM0392
00CE7EH   00CE9DH   000020H   BYTE   UNIT     CODE/B1        ?PR?_CHOOSESPEEDFORDESTINATION_SLAVE?ZW_TRANSPORT
00CE9EH   00CEA6H   000009H   BYTE   UNIT     CODE/B1        ?L?COM01ED
00CEA7H   00CEB1H   00000BH   BYTE   UNIT     CODE/B1        ?L?COM0431
00CEB2H   00CEBAH   000009H   BYTE   UNIT     CODE/B1        ?L?COM05E3
00CEBBH   00CEC4H   00000AH   BYTE   UNIT     CODE/B1        ?L?COM00A7
00CEC5H   00CECFH   00000BH   BYTE   UNIT     CODE/B1        ?L?COM008B
00CED0H   00CEEFH   000020H   BYTE   UNIT     CODE/B1        ?PR?_NETWORKTIMERSTOP?ZW_SLAVE
00CEF0H   00CEF7H   000008H   BYTE   UNIT     CODE/B1        ?L?COM0606
00CEF8H   00CEFFH   000008H   BYTE   UNIT     CODE/B1        ?L?COM061E
00CF00H   00CF07H   000008H   BYTE   UNIT     CODE/B1        ?L?COM0620
00CF08H   00CF0FH   000008H   BYTE   UNIT     CODE/B1        ?L?COM0657
00CF10H   00CF15H   000006H   BYTE   UNIT     CODE/B1        ?PR?_SETSPEEDOPTIONS?ZW_TRANSPORT
00CF16H   00CF86H   000071H   BYTE   UNIT     CODE/B1        ?PR?_NEXT_NONCE_INSTANTIATE?NEXTNONCE
00CF87H   00CFEAH   000064H   BYTE   UNIT     CODE/B1        ?PR?_AES_CTR_DRBG_INSTANTIATE?CTR_DRBG
00CFEBH   00D005H   00001BH   BYTE   UNIT     CODE/B1        ?PR?_AES_CTR_DRBG_RESEED?CTR_DRBG
00D006H   00D01BH   000016H   BYTE   UNIT     CODE/B1        ?PR?_ZW_TRANSPORT_COMMANDCLASSVERSIONGET?ZW_TRANSPORT
00D01CH   00D049H   00002EH   BYTE   UNIT     CODE/B1        ?PR?_ISKEYSUPPORTED?ZW_TRANSPORT
00D04AH   00D0BDH   000074H   BYTE   UNIT     CODE/B1        ?PR?_ZW_SENDDATAMULTIEX?ZW_TRANSPORT
00D0BEH   00D0C5H   000008H   BYTE   UNIT     CODE/B1        ?L?COM066D
00D0C6H   00D0CEH   000009H   BYTE   UNIT     CODE/B1        ?L?COM05EC
00D0CFH   00D0D8H   00000AH   BYTE   UNIT     CODE/B1        ?L?COM01F0
00D0D9H   00D0E7H   00000FH   BYTE   UNIT     CODE/B1        ?PR?ZW_SENDDATAABORT?ZW_TRANSPORT
00D0E8H   00D16FH   000088H   BYTE   UNIT     CODE/B1        ?PR?_HANDLEROUTEDACK?ZW_TRANSPORT
00D170H   00D2F9H   00018AH   BYTE   UNIT     CODE/B1        ?PR?_SECURITYCOMMANDHANDLER?ZW_SECURE_LEARN_SUPPORT
00D2FAH   00D309H   000010H   BYTE   UNIT     CODE/B1        ?L?COM0132
00D30AH   00D314H   00000BH   BYTE   UNIT     CODE/B1        ?L?COM01EE
00D315H   00D31FH   00000BH   BYTE   UNIT     CODE/B1        ?L?COM0120
00D320H   00D341H   000022H   BYTE   UNIT     CODE/B1        ?L?COM00A2
00D342H   00D353H   000012H   BYTE   UNIT     CODE/B1        ?L?COM0194
00D354H   00D360H   00000DH   BYTE   UNIT     CODE/B1        ?PR?RUNCYCLE?ZW_SECURE_LEARN_SUPPORT
00D361H   00D370H   000010H   BYTE   UNIT     CODE/B1        ?PR?SECURITY_LEARN_EXIT?ZW_SECURE_LEARN_SUPPORT
00D371H   00D383H   000013H   BYTE   UNIT     CODE/B1        ?PR?_ZCB_SEND_DATA_CALLBACK?ZW_SECURE_LEARN_SUPPORT
00D384H   00D3B1H   00002EH   BYTE   UNIT     CODE/B1        ?PR?SECURITY_INIT?ZW_SECURE_LEARN_SUPPORT
00D3B2H   00D409H   000058H   BYTE   UNIT     CODE/B1        ?PR?_SECURE_LEARNIFACEL_SEND_SCHEME_REPORT?ZW_SECURE_LEARN
                                                             -_SUPPORT
00D40AH   00D45BH   000052H   BYTE   UNIT     CODE/B1        ?PR?_SEND_AND_RAISE?ZW_SECURE_LEARN_SUPPORT
00D45CH   00D46CH   000011H   BYTE   UNIT     CODE/B1        ?PR?_ZCB_SEND_KEY_VERIFY_CALLBACK?ZW_SECURE_LEARN_SUPPORT
00D46DH   00D4E8H   00007CH   BYTE   UNIT     CODE/B1        ?PR?_ZCB_SECURELEARNPROTOCOLCALLBACK?ZW_SLAVE
00D4E9H   00D4F1H   000009H   BYTE   UNIT     CODE/B1        ?L?COM05B7
00D4F2H   00D4FBH   00000AH   BYTE   UNIT     CODE/B1        ?L?COM04BC
00D4FCH   00D50AH   00000FH   BYTE   UNIT     CODE/B1        ?PR?SECURITY_RESET?ZW_SECURE_LEARN_SUPPORT
00D50BH   00D541H   000037H   BYTE   UNIT     CODE/B1        ?PR?_KEYSTORE_NETWORK_KEY_CLEAR?ZW_KEYSTORE
00D542H   00D550H   00000FH   BYTE   UNIT     CODE/B1        ?L?COM0449
00D551H   00D567H   000017H   BYTE   UNIT     CODE/B1        ?PR?_KEYSTORE_NETWORK_KEY_WRITE?ZW_KEYSTORE
00D568H   00D5BAH   000053H   BYTE   UNIT     CODE/B1        ?PR?_KEYSTORE_NETWORK_KEY_WRITE_IMPL?ZW_KEYSTORE
00D5BBH   00D5C3H   000009H   BYTE   UNIT     CODE/B1        ?L?COM03AB
00D5C4H   00D5CCH   000009H   BYTE   UNIT     CODE/B1        ?L?COM05E4
00D5CDH   00D5DFH   000013H   BYTE   UNIT     CODE/B1        ?L?COM01BD
00D5E0H   00D5E5H   000006H   BYTE   UNIT     CODE/B1        ?PR?_ZW_SETSECURITYS0NETWORKKEY?ZW_KEYSTORE
00D5E6H   00D5F1H   00000CH   BYTE   UNIT     CODE/B1        ?L?COM0201
00D5F2H   00D669H   000078H   BYTE   UNIT     CODE/B1        ?PR?UPDATERXSTATUS?ZW_TRANSPORT
00D66AH   00D676H   00000DH   BYTE   UNIT     CODE/B1        ?L?COM0368
00D677H   00D69AH   000024H   BYTE   UNIT     CODE/B1        ?PR?_SECURITY_LEARN_BEGIN?ZW_SECURE_LEARN_SUPPORT
00D69BH   00D6BEH   000024H   BYTE   UNIT     CODE/B1        ?PR?_SECURITY_LEARN_BEGIN_EARLY?ZW_SECURE_LEARN_SUPPORT
00D6BFH   00D6C4H   000006H   BYTE   UNIT     CODE/B1        ?PR?_SECURE_LEARN_SET_ERRNO?ZW_SECURE_LEARN_SUPPORT
00D6C5H   00D6F1H   00002DH   BYTE   UNIT     CODE/B1        ?PR?_KEYSTORE_PRIVATE_KEY_WRITE?ZW_KEYSTORE
00D6F2H   00D6F8H   000007H   BYTE   UNIT     CODE/B1        ?L?COM0626
00D6F9H   00D75AH   000062H   BYTE   UNIT     CODE/B1        ?PR?_ZW_S2_KEY_SCRAMBLER_DESCRAMBLE?ZW_S2_KEY_SCRAMBLER
00D75BH   00D79EH   000044H   BYTE   UNIT     CODE/B1        ?PR?_KEYSTORE_PRIVATE_KEY_READ?ZW_KEYSTORE
LX51 LINKER/LOCATER V4.66.41.0                                                        08/02/2018  17:16:59  PAGE 13


00D79FH   00D79FH   000001H   BYTE   UNIT     CODE/B1        ?PR?SECURE_LEARNIFACE_UPDATE_CALLBACK?ZW_SECURE_LEARN_SUPP
                                                             -ORT
00D7A0H   00D7A9H   00000AH   BYTE   UNIT     CODE/B1        ?L?COM03FE
00D7AAH   00D7CEH   000025H   BYTE   UNIT     CODE/B1        ?PR?_KEYSTORE_PUBLIC_DSK_READ?ZW_KEYSTORE
00D7CFH   00D7D6H   000008H   BYTE   UNIT     CODE/B1        ?L?COM065D
00D7D7H   00D7E1H   00000BH   BYTE   UNIT     CODE/B1        ?L?COM0369
00D7E2H   00D7ECH   00000BH   BYTE   UNIT     CODE/B1        ?L?COM0453
00D7EDH   00D7FEH   000012H   BYTE   UNIT     CODE/B1        ?PR?SETTRANSMITPAUSE?ZW_TRANSPORT
00D7FFH   00D807H   000009H   BYTE   UNIT     CODE/B1        ?PR?_ISSPECIALRSSIVALUE?ZW_TRANSPORT
00D808H   00D8A5H   00009EH   BYTE   UNIT     CODE/B1        ?PR?_CALCULATERSSI?ZW_TRANSPORT
00D8A6H   00D8AEH   000009H   BYTE   UNIT     CODE/B1        ?L?COM05EA
00D8AFH   00D8B8H   00000AH   BYTE   UNIT     CODE/B1        ?L?COM0237
00D8B9H   00D8C7H   00000FH   BYTE   UNIT     CODE/B1        ?PR?TRANSPORTINIT?ZW_TRANSPORT
00D8C8H   00D8D4H   00000DH   BYTE   UNIT     CODE/B1        ?PR?FLUSHRESPONSESPEEDS?ZW_TRANSPORT
00D8D5H   00D8E8H   000014H   BYTE   UNIT     CODE/B1        ?PR?TRANSPORTVARINIT?ZW_TRANSPORT
00D8E9H   00D92BH   000043H   BYTE   UNIT     CODE/B1        ?PR?_ZW_RXTOTXOPTIONS?ZW_TRANSPORT
00D92CH   00D939H   00000EH   BYTE   UNIT     CODE/B1        ?L?COM00C9
00D93AH   00D93FH   000006H   BYTE   UNIT     CODE/B1        ?PR?_ZW_ENABLEROUTEDRSSIFEEDBACK?ZW_TRANSPORT
00D940H   00D9A4H   000065H   BYTE   UNIT     CODE/B1        ?PR?_SENDMULTICASTFRAME?ZW_TRANSPORT_MULTI
00D9A5H   00D9ACH   000008H   BYTE   UNIT     CODE/B1        ?L?COM066B
00D9ADH   00D9DDH   000031H   BYTE   UNIT     CODE/B1        ?L?COM01AC
00D9DEH   00DA4CH   00006FH   BYTE   UNIT     CODE/B1        ?PR?_TXQUEUEGETELEMENT?ZW_TX_QUEUE
00DA4DH   00DA57H   00000BH   BYTE   UNIT     CODE/B1        ?L?COM0115
00DA58H   00DB95H   00013EH   BYTE   UNIT     CODE/B1        ?PR?TXQUEUESERVICETRANSMIT?ZW_TX_QUEUE
00DB96H   00DBA4H   00000FH   BYTE   UNIT     CODE/B1        ?L?COM0228
00DBA5H   00DBABH   000007H   BYTE   UNIT     CODE/B1        ?L?COM0433
00DBACH   00DBB4H   000009H   BYTE   UNIT     CODE/B1        ?L?COM0469
00DBB5H   00DBBEH   00000AH   BYTE   UNIT     CODE/B1        ?PR?TXQUEUEWAITFORIDLE?ZW_TX_QUEUE
00DBBFH   00DBD4H   000016H   BYTE   UNIT     CODE/B1        ?PR?TXQUEUEISEMPTY?ZW_TX_QUEUE
00DBD5H   00DC27H   000053H   BYTE   UNIT     CODE/B1        ?PR?_TXQUEUERELEASEELEMENT?ZW_TX_QUEUE
00DC28H   00DC30H   000009H   BYTE   UNIT     CODE/B1        ?L?COM042A
00DC31H   00DC44H   000014H   BYTE   UNIT     CODE/B1        ?PR?TXQUEUEINIT?ZW_TX_QUEUE
00DC45H   00DC60H   00001CH   BYTE   UNIT     CODE/B1        ?PR?_LIST_INIT?LIST
00DC61H   00DCE7H   000087H   BYTE   UNIT     CODE/B1        ?PR?_LIST_REMOVE?LIST
00DCE8H   00DCEDH   000006H   BYTE   UNIT     CODE/B1        ?L?COM0598
00DCEEH   00DCF1H   000004H   BYTE   UNIT     CODE/B1        ?PR?CTIMER_INIT?ZW_CTIMER
00DCF2H   00DCFEH   00000DH   BYTE   UNIT     CODE/B1        ?PR?_CTIMER_STOP?ZW_CTIMER
00DCFFH   00DD0DH   00000FH   BYTE   UNIT     CODE/B1        ?L?COM02BA
00DD0EH   00DD67H   00005AH   BYTE   UNIT     CODE/B1        ?PR?_CTIMER_SET?ZW_CTIMER
00DD68H   00DDD3H   00006CH   BYTE   UNIT     CODE/B1        ?PR?_LIST_ADD?LIST
00DDD4H   00DDD9H   000006H   BYTE   UNIT     CODE/B1        ?L?COM0530
00DDDAH   00DE7FH   0000A6H   BYTE   UNIT     CODE/B1        ?PR?_CTIMER_POLL?ZW_CTIMER
00DE80H   00DE89H   00000AH   BYTE   UNIT     CODE/B1        ?L?COM0493
00DE8AH   00DEA7H   00001EH   BYTE   UNIT     CODE/B1        ?PR?_TXQUEUEEMPTYEVENT_ADD?ZW_TX_QUEUE
00DEA8H   00DEB3H   00000CH   BYTE   UNIT     CODE/B1        ?L?COM0231
00DEB4H   00DF03H   000050H   BYTE   UNIT     CODE/B1        ?PR?_KEYSTORE_NETWORK_KEY_READ_IMPL?ZW_KEYSTORE
00DF04H   00DF06H   000003H   BYTE   UNIT     CODE/B1        ?PR?_LIST_HEAD?LIST
00DF07H   00DF60H   00005AH   BYTE   UNIT     CODE/B1        ?PR?_ZW_GETNODETYPEBASIC?ZW_SLAVE
00DF61H   00DF65H   000005H   BYTE   UNIT     CODE/B1        ?PR?SECURE_LEARNIFACE_STATE_START_TIMEOUT?ZW_SECURE_LEARN_
                                                             -SUPPORT
00DF66H   00DF6FH   00000AH   BYTE   UNIT     CODE/B1        ?L?COM0291
00DF70H   00DF89H   00001AH   BYTE   UNIT     CODE/B1        ?PR?TXQUEUEISIDLE?ZW_TX_QUEUE
00DF8AH   00DFA8H   00001FH   BYTE   UNIT     CODE/B1        ?PR?_SECURE_LEARN_SETTIMER?ZW_SECURE_LEARN_SUPPORT
00DFA9H   00E01EH   000076H   BYTE   UNIT     CODE/B1        ?PR?_ZCB_MULTICASTCOMPLETEDFUNC?ZW_TRANSPORT_MULTI
00E01FH   00E027H   000009H   BYTE   UNIT     CODE/B1        ?L?COM04F3
00E028H   00E030H   000009H   BYTE   UNIT     CODE/B1        ?L?COM05B2
00E031H   00E0CFH   00009FH   BYTE   UNIT     CODE/B1        ?PR?_ZW_SENDDATAMULTIWORKER?ZW_TRANSPORT_MULTI
00E0D0H   00E0D7H   000008H   BYTE   UNIT     CODE/B1        ?L?COM066A
00E0D8H   00E0ECH   000015H   BYTE   UNIT     CODE/B1        ?L?COM0378
00E0EDH   00E11DH   000031H   BYTE   UNIT     CODE/B1        ?PR?_ZW_REQUESTNODEINFO?ZW_SLAVE
00E11EH   00E133H   000016H   BYTE   UNIT     CODE/B1        ?L?COM007E
00E134H   00E18DH   00005AH   BYTE   UNIT     CODE/B1        ?PR?_ZW_SENDNODEINFORMATION?ZW_SLAVE
00E18EH   00E19FH   000012H   BYTE   UNIT     CODE/B1        ?L?COM030D
00E1A0H   00E1ACH   00000DH   BYTE   UNIT     CODE/B1        ?L?COM036B
00E1ADH   00E223H   000077H   BYTE   UNIT     CODE/B1        ?PR?_ZW_REQUESTNETWORKUPDATEINTERNAL?ZW_SLAVE
LX51 LINKER/LOCATER V4.66.41.0                                                        08/02/2018  17:16:59  PAGE 14


00E224H   00E22AH   000007H   BYTE   UNIT     CODE/B1        ?L?COM04B9
00E22BH   00E233H   000009H   BYTE   UNIT     CODE/B1        ?L?COM03D4
00E234H   00E258H   000025H   BYTE   UNIT     CODE/B1        ?PR?_ZCB_CTRLASKEDFORHELPCALLBACK?ZW_SLAVE
00E259H   00E267H   00000FH   BYTE   UNIT     CODE/B1        ?L?COM02C7
00E268H   00E2B7H   000050H   BYTE   UNIT     CODE/B1        ?PR?_ZW_REQUESTNEWROUTEDESTINATIONS?ZW_SLAVE
00E2B8H   00E2C2H   00000BH   BYTE   UNIT     CODE/B1        ?L?COM03EC
00E2C3H   00E2CEH   00000CH   BYTE   UNIT     CODE/B1        ?L?COM02BD
00E2CFH   00E2FEH   000030H   BYTE   UNIT     CODE/B1        ?PR?RELOADROUTEDESTINATIONS?ZW_SLAVE
00E2FFH   00E312H   000014H   BYTE   UNIT     CODE/B1        ?PR?SLAVEINITDONE?ZW_SLAVE
00E313H   00E328H   000016H   BYTE   UNIT     CODE/B1        ?PR?_ZW_REQUESTNETWORKUPDATE?ZW_SLAVE
00E329H   00E344H   00001CH   BYTE   UNIT     CODE/B1        ?PR?REMOVEALLRETURNROUTEDESTINATION?ZW_SLAVE
00E345H   00E455H   000111H   BYTE   UNIT     CODE/B1        ?PR?_GETRESPONSEROUTE?ZW_ROUTING_ALL
00E456H   00E45CH   000007H   BYTE   UNIT     CODE/B1        ?L?COM0457
00E45DH   00E468H   00000CH   BYTE   UNIT     CODE/B1        ?L?COM03EA
00E469H   00E478H   000010H   BYTE   UNIT     CODE/B1        ?L?COM027F
00E479H   00E52BH   0000B3H   BYTE   UNIT     CODE/B1        ?PR?_GENERATENODEINFORMATION?ZW_SLAVE
00E52CH   00E569H   00003EH   BYTE   UNIT     CODE/B1        ?PR?_ZW_SENDDATAMULTI?ZW_TRANSPORT_MULTI
00E56AH   00E587H   00001EH   BYTE   UNIT     CODE/B1        ?PR?_UPDATENODEINFORMATION?ZW_SLAVE
00E588H   00E58EH   000007H   BYTE   UNIT     CODE/B1        ?L?COM0504
00E58FH   00E604H   000076H   BYTE   UNIT     CODE/B1        ?PR?KEYSTORE_KEYPAIR_CHECK_AND_GENERATE?ZW_KEYSTORE
00E605H   00E60BH   000007H   BYTE   UNIT     CODE/B1        ?L?COM0428
00E60CH   00E617H   00000CH   BYTE   UNIT     CODE/B1        ?L?COM04F0
00E618H   00E67EH   000067H   BYTE   UNIT     CODE/B1        ?PR?_ZW_KEYSTORENVMUPDATE?ZW_KEYSTORE
00E67FH   00E697H   000019H   BYTE   UNIT     CODE/B1        ?L?COM0209
00E698H   00E6F7H   000060H   BYTE   UNIT     CODE/B1        ?PR?_ZW_KEYSTOREINIT?ZW_KEYSTORE
00E6F8H   00E70AH   000013H   BYTE   UNIT     CODE/B1        ?PR?_KEYSTORE_PUBLIC_KEY_WRITE?ZW_KEYSTORE
00E70BH   00E72BH   000021H   BYTE   UNIT     CODE/B1        ?PR?_CRYPTO_SCALARMULT_CURVE25519_BASE?CURVE25519
00E72CH   00E7BBH   000090H   BYTE   UNIT     CODE/B1        ?PR?_CRYPTO_SCALARMULT_CURVE25519?CURVE25519
00E7BCH   00E7BCH   000001H   BYTE   UNIT     CODE/B1        ?PR?SECURE_LEARNIFACEL_NEW_KEYS?ZW_SECURE_LEARN_SUPPORT
00E7BDH   00E7C4H   000008H   BYTE   UNIT     CODE/B1        ?L?COM0385
00E7C5H   00E7CCH   000008H   BYTE   UNIT     CODE/B1        ?L?COM04F2
00E7CDH   00E7D5H   000009H   BYTE   UNIT     CODE/B1        ?L?COM031D
00E7D6H   00E7DFH   00000AH   BYTE   UNIT     CODE/B1        ?L?COM0597
00E7E0H   00E7E4H   000005H   BYTE   UNIT     CODE/B1        ?PR?ZW_FOLLOWUPRECEIVED?ZW_TRANSPORT_MULTI
00E7E5H   00E7F3H   00000FH   BYTE   UNIT     CODE/B1        ?PR?RESETSUC?ZW_SLAVE
00E7F4H   00E82CH   000039H   BYTE   UNIT     CODE/B1        ?PR?_NETWORKTIMERSTART?ZW_SLAVE
00E82DH   00E839H   00000DH   BYTE   UNIT     CODE/B1        ?L?COM010F
00E83AH   00E858H   00001FH   BYTE   UNIT     CODE/B1        ?PR?_ZCB_REQUPDATECALLBACK?ZW_SLAVE
00E859H   00E871H   000019H   BYTE   UNIT     CODE/B1        ?PR?ZCB_REQUESTUPDATETIMEOUT?ZW_SLAVE
00E872H   00E885H   000014H   BYTE   UNIT     CODE/B1        ?L?COM0391
00E886H   00E88BH   000006H   BYTE   UNIT     CODE/B1        ?PR?ZCB_NEIGHBORCOMPLETEFAILCALL?ZW_SLAVE
00E88CH   00E898H   00000DH   BYTE   UNIT     CODE/B1        ?PR?DELAYNEIGHBORCOMPLETEFAILCALL?ZW_SLAVE
00E899H   00E8AAH   000012H   BYTE   UNIT     CODE/B1        ?PR?ASSIGNTIMERSTOP?ZW_SLAVE
00E8ABH   00E8CCH   000022H   BYTE   UNIT     CODE/B1        ?PR?ZCB_ASSIGNTIMEOUT?ZW_SLAVE
00E8CDH   00E8F3H   000027H   BYTE   UNIT     CODE/B1        ?PR?_ASSIGNTIMERSTART?ZW_SLAVE
00E8F4H   00E8FAH   000007H   BYTE   UNIT     CODE/B1        ?L?COM0669
00E8FBH   00E94AH   000050H   BYTE   UNIT     CODE/B1        ?PR?_SLAVEINIT?ZW_SLAVE
00E94BH   00E9D3H   000089H   BYTE   UNIT     CODE/B1        ?PR?_ZW_LOCKROUTE?ZW_ROUTING_ALL
00E9D4H   00E9DDH   00000AH   BYTE   UNIT     CODE/B1        ?L?COM0527
00E9DEH   00E9E5H   000008H   BYTE   UNIT     CODE/B1        ?L?COM0660
00E9E6H   00E9F5H   000010H   BYTE   UNIT     CODE/B1        ?PR?_REMOVERESPONSEROUTE?ZW_ROUTING_ALL
00E9F6H   00EA15H   000020H   BYTE   UNIT     CODE/B1        ?PR?_GETRESPONSEROUTEINDEX?ZW_ROUTING_ALL
00EA16H   00EA2EH   000019H   BYTE   UNIT     CODE/B1        ?L?COM0304
00EA2FH   00EA34H   000006H   BYTE   UNIT     CODE/B1        ?PR?ZW_GETSUCNODEID?ZW_SLAVE
00EA35H   00EA63H   00002FH   BYTE   UNIT     CODE/B1        ?PR?_TRANSPORTSERVICE_MSG_RECEIVED_EVENT?ZW_SLAVE
00EA64H   00EA72H   00000FH   BYTE   UNIT     CODE/B1        ?PR?_SECURE_LEARN_UNSETTIMER?ZW_SECURE_LEARN_SUPPORT
00EA73H   00EA7DH   00000BH   BYTE   UNIT     CODE/B1        ?L?COM01E5
00EA7EH   00EA88H   00000BH   BYTE   UNIT     CODE/B1        ?L?COM03EE
00EA89H   00EA94H   00000CH   BYTE   UNIT     CODE/B1        ?L?COM02A0
00EA95H   00EAA5H   000011H   BYTE   UNIT     CODE/B1        ?PR?RESPONSEROUTEFULL?ZW_ROUTING_ALL
00EAA6H   00EAD3H   00002EH   BYTE   UNIT     CODE/B1        ?PR?_LIST_TAIL?LIST
00EAD4H   00EADBH   000008H   BYTE   UNIT     CODE/B1        ?L?COM0192
00EADCH   00EAEDH   000012H   BYTE   UNIT     CODE/B1        ?PR?RESETROUTEDRESPONSEROUTES?ZW_ROUTING_ALL
00EAEEH   00EB0FH   000022H   BYTE   UNIT     CODE/B1        ?PR?INIT_ZW_HW?ZW_HW_INIT
00EB10H   00EB16H   000007H   BYTE   UNIT     CODE/B1        ?PR?_ZW_SOFTRESET?ZW_HW_INIT
LX51 LINKER/LOCATER V4.66.41.0                                                        08/02/2018  17:16:59  PAGE 15


00EB17H   00EB1EH   000008H   BYTE   UNIT     CODE/B1        ?L?COM065F
00EB1FH   00EB32H   000014H   BYTE   UNIT     CODE/B1        ?PR?ZW_GETSWWAKEUPREASON?ZW_HW_INIT
00EB33H   00EB66H   000034H   BYTE   UNIT     CODE/B1        ?PR?_ZW_SETSWWAKEUPREASON?ZW_HW_INIT
00EB67H   00EBA8H   000042H   BYTE   UNIT     CODE/B1        ?PR?RFDRIVERINITHWFLIRS?ZW_RF_DRIVER_INIT
00EBA9H   00EBB1H   000009H   BYTE   UNIT     CODE/B1        ?L?COM0599
00EBB2H   00EBEFH   00003EH   BYTE   UNIT     CODE/B1        ?PR?RFDRIVERINITHW?ZW_RF_DRIVER_INIT
00EBF0H   00EBF8H   000009H   BYTE   UNIT     CODE/B1        ?L?COM05E7
00EBF9H   00EC3FH   000047H   BYTE   UNIT     CODE/B1        ?PR?RFDRIVERINITSW?ZW_RF_DRIVER_INIT
00EC40H   00EC48H   000009H   BYTE   UNIT     CODE/B1        ?L?COM05E8
00EC49H   00EC6FH   000027H   BYTE   UNIT     CODE/B1        ?PR?_RFDRIVERPOWERTOINDEX?ZW_RF_DRIVER_INIT
00EC70H   00EC7EH   00000FH   BYTE   UNIT     CODE/B1        ?PR?ZCB_RETRANSMITDELAY?ZW_TXQ_PROTOCOL
00EC7FH   00ECA3H   000025H   BYTE   UNIT     CODE/B1        ?PR?_GETREPEATERS?ZW_TXQ_PROTOCOL
00ECA4H   00ECABH   000008H   BYTE   UNIT     CODE/B1        ?L?COM065E
00ECACH   00ECB6H   00000BH   BYTE   UNIT     CODE/B1        ?L?COM04F1
00ECB7H   00ECC8H   000012H   BYTE   UNIT     CODE/B1        ?PR?CLEARSENDDATATXSTATUS?ZW_TXQ_PROTOCOL
00ECC9H   00ECCEH   000006H   BYTE   UNIT     CODE/B1        ?PR?SECURE_LEARN_GET_ERRNO?ZW_SECURE_LEARN_SUPPORT
00ECCFH   00ECEFH   000021H   BYTE   UNIT     CODE/B1        ?PR?_SECURE_LEARNIFACE_COMPLETE?ZW_SECURE_LEARN_SUPPORT
00ECF0H   00ECF5H   000006H   BYTE   UNIT     CODE/B1        ?PR?SECURE_LEARN_SET_ERRNO_RESET?ZW_SECURE_LEARN_SUPPORT
00ECF6H   00ED00H   00000BH   BYTE   UNIT     CODE/B1        ?L?COM044A
00ED01H   00ED01H   000001H   BYTE   UNIT     CODE/B1        ?PR?SECURITY_SAVE_STATE?ZW_SECURE_LEARN_SUPPORT
00ED02H   00ED1CH   00001BH   BYTE   UNIT     CODE/B1        ?PR?_ZCB_TIMEOUT?ZW_SECURE_LEARN_SUPPORT
00ED1DH   00ED23H   000007H   BYTE   UNIT     CODE/B1        ?L?COM054D
00ED24H   00ED81H   00005EH   BYTE   UNIT     CODE/B1        ?PR?_SECURE_LEARNIFACE_SEND_COMMANDS_SUPPORTED?ZW_SECURE_L
                                                             -EARN_SUPPORT
00ED82H   00ED88H   000007H   BYTE   UNIT     CODE/B1        ?L?COM055E
00ED89H   00ED90H   000008H   BYTE   UNIT     CODE/B1        ?L?COM065C
00ED91H   00ED99H   000009H   BYTE   UNIT     CODE/B1        ?L?COM05E5
00ED9AH   00ED9AH   000001H   BYTE   UNIT     CODE/B1        ?PR?SECURE_LEARNIFACEL_SAVE_STATE?ZW_SECURE_LEARN_SUPPORT
00ED9BH   00EDA0H   000006H   BYTE   UNIT     CODE/B1        ?PR?GET_NET_SCHEME?ZW_SECURE_LEARN_SUPPORT
00EDA1H   00EDA8H   000008H   BYTE   UNIT     CODE/B1        ?PR?SECURE_LEARNIFACEL_SET_INCLUSION_KEY?ZW_SECURE_LEARN_S
                                                             -UPPORT
00EDA9H   00EDAEH   000006H   BYTE   UNIT     CODE/B1        ?PR?_SECURE_LEARNIFACEI_REGISTER_SCHEME?ZW_SECURE_LEARN_SU
                                                             -PPORT
00EDAFH   00EDFFH   000051H   BYTE   UNIT     CODE/B1        ?PR?_SECURE_LEARNIFACEL_SEND_KEY_VERIFY?ZW_SECURE_LEARN_SU
                                                             -PPORT
00EE00H   00EE04H   000005H   BYTE   UNIT     CODE/B1        ?PR?_SECURITY_ADD_BEGIN?ZW_SECURE_LEARN_SUPPORT
00EE05H   00EE0AH   000006H   BYTE   UNIT     CODE/B1        ?PR?_SECURE_LEARNIFACEI_SEND_SCHEME_GET?ZW_SECURE_LEARN_SU
                                                             -PPORT
00EE0BH   00EE10H   000006H   BYTE   UNIT     CODE/B1        ?PR?_SECURE_LEARNIFACEI_SEND_KEY?ZW_SECURE_LEARN_SUPPORT
00EE11H   00EE16H   000006H   BYTE   UNIT     CODE/B1        ?PR?_SECURE_LEARNIFACEI_SEND_SCHEME_INHERIT?ZW_SECURE_LEAR
                                                             -N_SUPPORT
00EE17H   00EE17H   000001H   BYTE   UNIT     CODE/B1        ?PR?SECURE_LEARNIFACEI_RESTORE_KEY?ZW_SECURE_LEARN_SUPPORT
00EE18H   00EE3EH   000027H   BYTE   UNIT     CODE/B1        ?PR?_KEYSTORE_PUBLIC_KEY_READ?ZW_KEYSTORE
00EE3FH   00EE53H   000015H   BYTE   UNIT     CODE/B1        ?PR?_KEYSTORE_NETWORK_KEY_READ?ZW_KEYSTORE
00EE54H   00EEAFH   00005CH   BYTE   UNIT     CODE/B1        ?PR?_CONVERT_TO_OCTET_STRING?CCM
00EEB0H   00EEB9H   00000AH   BYTE   UNIT     CODE/B1        ?L?COM0531
00EEBAH   00EFCDH   000114H   BYTE   UNIT     CODE/B1        ?PR?_ENCRYPT_OR_DECRYPT?CCM
00EFCEH   00EFD3H   000006H   BYTE   UNIT     CODE/B1        ?L?COM053D
00EFD4H   00EFDAH   000007H   BYTE   UNIT     CODE/B1        ?L?COM0543
00EFDBH   00EFFFH   000025H   BYTE   UNIT     CODE/B1        ?PR?_GET_Q_N_T?CCM
00F000H   00F006H   000007H   BYTE   UNIT     CODE/B1        ?PR?_GET_Q?CCM
00F007H   00F02EH   000028H   BYTE   UNIT     CODE/B1        ?PR?_XOR_128?AES_CMAC
00F02FH   00F16CH   00013EH   BYTE   UNIT     CODE/B1        ?PR?_AES_CMAC_CALCULATE?AES_CMAC
00F16DH   00F174H   000008H   BYTE   UNIT     CODE/B1        ?L?COM0243
00F175H   00F1FFH   00008BH   BYTE   UNIT     CODE/B1        ?PR?_GENERATE_SUBKEY?AES_CMAC
00F200H   00F208H   000009H   BYTE   UNIT     CODE/B1        ?L?COM0426
00F209H   00F218H   000010H   BYTE   UNIT     CODE/B1        ?L?COM0366
00F219H   00F289H   000071H   BYTE   UNIT     CODE/B1        ?PR?_LEFTSHIFT_ONEBIT?AES_CMAC
00F28AH   00F30CH   000083H   BYTE   UNIT     CODE/B1        ?PR?_GENERIC_EXPAND?KDERIV
00F30DH   00F317H   00000BH   BYTE   UNIT     CODE/B1        ?L?COM0127
00F318H   00F32DH   000016H   BYTE   UNIT     CODE/B1        ?L?COM00E0
00F32EH   00F349H   00001CH   BYTE   UNIT     CODE/B1        ?L?COM013F
00F34AH   00F3CAH   000081H   BYTE   UNIT     CODE/B1        ?PR?_CKDF_NONCE0_EXPAND?NEXTNONCE
00F3CBH   00F3D0H   000006H   BYTE   UNIT     CODE/B1        ?L?COM058E
00F3D1H   00F3D7H   000007H   BYTE   UNIT     CODE/B1        ?L?COM058D
LX51 LINKER/LOCATER V4.66.41.0                                                        08/02/2018  17:16:59  PAGE 16


00F3D8H   00F3E0H   000009H   BYTE   UNIT     CODE/B1        ?L?COM024A
00F3E1H   00F3ECH   00000CH   BYTE   UNIT     CODE/B1        ?L?COM0348
00F3EDH   00F3F8H   00000CH   BYTE   UNIT     CODE/B1        ?L?COM0461
00F3F9H   00F419H   000021H   BYTE   UNIT     CODE/B1        ?L?COM008D
00F41AH   00F421H   000008H   BYTE   UNIT     CODE/B1        ?L?COM0655
00F422H   00F42AH   000009H   BYTE   UNIT     CODE/B1        ?L?COM026F
00F42BH   00F434H   00000AH   BYTE   UNIT     CODE/B1        ?L?COM050B
00F435H   00F441H   00000DH   BYTE   UNIT     CODE/B1        ?L?COM0077
00F442H   00F44EH   00000DH   BYTE   UNIT     CODE/B1        ?L?COM0486
00F44FH   00F47BH   00002DH   BYTE   UNIT     CODE/B1        ?PR?_NETWORKKEY_EXPAND?KDERIV
00F47CH   00F4ACH   000031H   BYTE   UNIT     CODE/B1        ?PR?_TEMPKEY_EXPAND?KDERIV
00F4ADH   00F4FFH   000053H   BYTE   UNIT     CODE/B1        ?PR?_TEMPKEY_EXTRACT?KDERIV
00F500H   00F553H   000054H   BYTE   UNIT     CODE/B1        ?PR?_AES_CMAC_VERIFY?AES_CMAC
00F554H   00F55BH   000008H   BYTE   UNIT     CODE/B1        ?L?COM05E2
00F55CH   00F564H   000009H   BYTE   UNIT     CODE/B1        ?L?COM0589
00F565H   00F56DH   000009H   BYTE   UNIT     CODE/B1        ?L?COM058A
00F56EH   00F576H   000009H   BYTE   UNIT     CODE/B1        ?L?COM058B
00F577H   00F583H   00000DH   BYTE   UNIT     CODE/B1        ?L?COM031E
00F584H   00F626H   0000A3H   BYTE   UNIT     CODE/B1        ?PR?_AES_CTR_DRBG_GENERATE?CTR_DRBG
00F627H   00F62EH   000008H   BYTE   UNIT     CODE/B1        ?L?COM0654
00F62FH   00F637H   000009H   BYTE   UNIT     CODE/B1        ?L?COM0208
00F638H   00F63EH   000007H   BYTE   UNIT     CODE/B1        ?L?COM0555
00F63FH   00F650H   000012H   BYTE   UNIT     CODE/B1        ?L?COM025C
00F651H   00F658H   000008H   BYTE   UNIT     CODE/B1        ?L?COM0653
00F659H   00F71FH   0000C7H   BYTE   UNIT     CODE/B1        ?PR?_MLADDER?CURVE25519
00F720H   00F72AH   00000BH   BYTE   UNIT     CODE/B1        ?L?COM01A7
00F72BH   00F758H   00002EH   BYTE   UNIT     CODE/B1        ?PR?_AES_CTR_DRBG_INCREMENT?CTR_DRBG
00F759H   00F777H   00001FH   BYTE   UNIT     CODE/B1        ?PR?_NEXT_NONCE_GENERATE?NEXTNONCE
00F778H   00F8A5H   00012EH   BYTE   UNIT     CODE/B1        ?PR?_LADDERSTEP?CURVE25519
00F8A6H   00F8ABH   000006H   BYTE   UNIT     CODE/B1        ?L?COM053B
00F8ACH   00F8BDH   000012H   BYTE   UNIT     CODE/B1        ?L?COM01E7
00F8BEH   00F8C5H   000008H   BYTE   UNIT     CODE/B1        ?L?COM04D4
00F8C6H   00F8CDH   000008H   BYTE   UNIT     CODE/B1        ?L?COM0666
00F8CEH   00F8E0H   000013H   BYTE   UNIT     CODE/B1        ?L?COM0147
00F8E1H   00F8E8H   000008H   BYTE   UNIT     CODE/B1        ?L?COM0667
00F8E9H   00F8F1H   000009H   BYTE   UNIT     CODE/B1        ?L?COM059F
00F8F2H   00F8FAH   000009H   BYTE   UNIT     CODE/B1        ?L?COM05BD
00F8FBH   00F904H   00000AH   BYTE   UNIT     CODE/B1        ?L?COM059E
00F905H   00F90FH   00000BH   BYTE   UNIT     CODE/B1        ?L?COM0528
00F910H   00F91CH   00000DH   BYTE   UNIT     CODE/B1        ?L?COM021A
00F91DH   00F92CH   000010H   BYTE   UNIT     CODE/B1        ?L?COM01A9
00F92DH   00F936H   00000AH   BYTE   UNIT     CODE/B1        ?L?COM054A
00F937H   00F93EH   000008H   BYTE   UNIT     CODE/B1        ?L?COM0661
00F93FH   00F946H   000008H   BYTE   UNIT     CODE/B1        ?L?COM0662
00F947H   00F950H   00000AH   BYTE   UNIT     CODE/B1        ?L?COM0596
00F951H   00F95EH   00000EH   BYTE   UNIT     CODE/B1        ?L?COM022B
00F95FH   00F968H   00000AH   BYTE   UNIT     CODE/B1        ?L?COM03F6
00F969H   00F971H   000009H   BYTE   UNIT     CODE/B1        ?L?COM05E6
00F972H   00F978H   000007H   BYTE   UNIT     CODE/B1        ?L?COM0663
00F979H   00F981H   000009H   BYTE   UNIT     CODE/B1        ?L?COM0556
00F982H   00F98DH   00000CH   BYTE   UNIT     CODE/B1        ?L?COM03D9
00F98EH   00F99BH   00000EH   BYTE   UNIT     CODE/B1        ?L?COM0462
00F99CH   00F9A4H   000009H   BYTE   UNIT     CODE/B1        ?L?COM05A2
00F9A5H   00F9ADH   000009H   BYTE   UNIT     CODE/B1        ?L?COM05B3
00F9AEH   00F9B6H   000009H   BYTE   UNIT     CODE/B1        ?L?COM05C0
00F9B7H   00F9BFH   000009H   BYTE   UNIT     CODE/B1        ?L?COM05E9
00F9C0H   00F9C5H   000006H   BYTE   UNIT     CODE/B1        ?L?COM0402
00F9C6H   00F9CFH   00000AH   BYTE   UNIT     CODE/B1        ?L?COM0455
00F9D0H   00F9D8H   000009H   BYTE   UNIT     CODE/B1        ?L?COM0476
00F9D9H   00F9E2H   00000AH   BYTE   UNIT     CODE/B1        ?L?COM0532
00F9E3H   00F9ECH   00000AH   BYTE   UNIT     CODE/B1        ?L?COM0593
00F9EDH   00F9F6H   00000AH   BYTE   UNIT     CODE/B1        ?L?COM0595
00F9F7H   00FA00H   00000AH   BYTE   UNIT     CODE/B1        ?L?COM05A5
00FA01H   00FA0EH   00000EH   BYTE   UNIT     CODE/B1        ?L?COM0437
00FA0FH   00FA19H   00000BH   BYTE   UNIT     CODE/B1        ?L?COM04D2
LX51 LINKER/LOCATER V4.66.41.0                                                        08/02/2018  17:16:59  PAGE 17


00FA1AH   00FA2BH   000012H   BYTE   UNIT     CODE/B1        ?L?COM0270
00FA2CH   00FA33H   000008H   BYTE   UNIT     CODE/B1        ?L?COM0658
00FA34H   00FA3BH   000008H   BYTE   UNIT     CODE/B1        ?L?COM0673
00FA3CH   00FA44H   000009H   BYTE   UNIT     CODE/B1        ?L?COM0446
00FA45H   00FA4EH   00000AH   BYTE   UNIT     CODE/B1        ?L?COM058C
00FA4FH   00FA56H   000008H   BYTE   UNIT     CODE/B1        ?L?COM065A
00FA57H   00FA5EH   000008H   BYTE   UNIT     CODE/B1        ?L?COM066F
00FA5FH   00FA67H   000009H   BYTE   UNIT     CODE/B1        ?L?COM0021
00FA68H   00FA70H   000009H   BYTE   UNIT     CODE/B1        ?L?COM058F
00FA71H   00FA79H   000009H   BYTE   UNIT     CODE/B1        ?L?COM0590
00FA7AH   00FA82H   000009H   BYTE   UNIT     CODE/B1        ?L?COM0591
00FA83H   00FA8BH   000009H   BYTE   UNIT     CODE/B1        ?L?COM0592
00FA8CH   00FA95H   00000AH   BYTE   UNIT     CODE/B1        ?L?COM0557
00FA96H   00FAA2H   00000DH   BYTE   UNIT     CODE/B1        ?L?COM04BE
00FAA3H   00FAAFH   00000DH   BYTE   UNIT     CODE/B1        ?L?COM04BF
00FAB0H   00FAB6H   000007H   BYTE   UNIT     CODE/B1        ?L?COM0607
00FAB7H   00FAC7H   000011H   BYTE   UNIT     CODE/B1        ?L?COM030C
00FAC8H   00FAD3H   00000CH   BYTE   UNIT     CODE/B1        ?L?COM03B5
00FAD4H   00FAE0H   00000DH   BYTE   UNIT     CODE/B1        ?L?COM040F
00FAE1H   00FAEBH   00000BH   BYTE   UNIT     CODE/B1        ?L?COM001C
00FAECH   00FB08H   00001DH   BYTE   UNIT     CODE/B1        ?L?COM01E9
00FB09H   00FB21H   000019H   BYTE   UNIT     CODE/B1        ?L?COM0221
00FB22H   00FB38H   000017H   BYTE   UNIT     CODE/B1        ?L?COM0294
00FB39H   00FB42H   00000AH   BYTE   UNIT     CODE/B1        ?L?COM029D
00FB43H   00FB4AH   000008H   BYTE   UNIT     CODE/B1        ?L?COM0659
00FB4BH   00FB5DH   000013H   BYTE   UNIT     CODE/B1        ?L?COM0331
00FB5EH   00FB6CH   00000FH   BYTE   UNIT     CODE/B1        ?L?COM033B
00FB6DH   00FB80H   000014H   BYTE   UNIT     CODE/B1        ?L?COM0393
00FB81H   00FB8EH   00000EH   BYTE   UNIT     CODE/B1        ?L?COM03D6
00FB8FH   00FB97H   000009H   BYTE   UNIT     CODE/B1        ?L?COM03D7
00FB98H   00FB9DH   000006H   BYTE   UNIT     CODE/B1        ?L?COM0406
00FB9EH   00FBA6H   000009H   BYTE   UNIT     CODE/B1        ?L?COM0463
00FBA7H   00FBAFH   000009H   BYTE   UNIT     CODE/B1        ?L?COM0467
00FBB0H   00FBBCH   00000DH   BYTE   UNIT     CODE/B1        ?L?COM0488
00FBBDH   00FBC9H   00000DH   BYTE   UNIT     CODE/B1        ?L?COM0499
00FBCAH   00FBD5H   00000CH   BYTE   UNIT     CODE/B1        ?L?COM04D1
00FBD6H   00FBE1H   00000CH   BYTE   UNIT     CODE/B1        ?L?COM04F8
00FBE2H   00FBECH   00000BH   BYTE   UNIT     CODE/B1        ?L?COM0509
00FBEDH   00FBF7H   00000BH   BYTE   UNIT     CODE/B1        ?L?COM0515
00FBF8H   00FBFEH   000007H   BYTE   UNIT     CODE/B1        ?L?COM0541
00FBFFH   00FC08H   00000AH   BYTE   UNIT     CODE/B1        ?L?COM0550
00FC09H   00FC12H   00000AH   BYTE   UNIT     CODE/B1        ?L?COM059A
00FC13H   00FC1CH   00000AH   BYTE   UNIT     CODE/B1        ?L?COM059C
00FC1DH   00FC25H   000009H   BYTE   UNIT     CODE/B1        ?L?COM05A0
00FC26H   00FC2CH   000007H   BYTE   UNIT     CODE/B1        ?L?COM05A1
00FC2DH   00FC34H   000008H   BYTE   UNIT     CODE/B1        ?L?COM05B8
00FC35H   00FC3DH   000009H   BYTE   UNIT     CODE/B1        ?L?COM05C1
00FC3EH   00FC46H   000009H   BYTE   UNIT     CODE/B1        ?L?COM05EE
00FC47H   00FC4EH   000008H   BYTE   UNIT     CODE/B1        ?L?COM05FF
00FC4FH   00FC56H   000008H   BYTE   UNIT     CODE/B1        ?L?COM0605
00FC57H   00FC5EH   000008H   BYTE   UNIT     CODE/B1        ?L?COM0609
00FC5FH   00FC66H   000008H   BYTE   UNIT     CODE/B1        ?L?COM0614
00FC67H   00FC6EH   000008H   BYTE   UNIT     CODE/B1        ?L?COM0616
00FC6FH   00FC76H   000008H   BYTE   UNIT     CODE/B1        ?L?COM0621
00FC77H   00FC7EH   000008H   BYTE   UNIT     CODE/B1        ?L?COM0625
00FC7FH   00FC86H   000008H   BYTE   UNIT     CODE/B1        ?L?COM0665
00FC87H   00FC8EH   000008H   BYTE   UNIT     CODE/B1        ?L?COM066C
00FC8FH   00FC96H   000008H   BYTE   UNIT     CODE/B1        ?L?COM0676
00FC97H   00FC9EH   000008H   BYTE   UNIT     CODE/B1        ?L?COM0677
00FC9FH   00FC9FH   000001H   BYTE   UNIT     CONST/B1       ?CO?ZW_FIRMWARE_BANK1_MARK

***   CODE BANK 2   ***
008000H   008036H   000037H   BYTE   UNIT     CODE/B2        ?PR?SAVECONFIGURATION?SHADE
008037H   008783H   00074DH   BYTE   UNIT     CODE/B2        ?PR?_TRANSPORT_APPLICATIONCOMMANDHANDLEREX?SHADE
008784H   0087B0H   00002DH   BYTE   UNIT     CODE/B2        ?L?COM0007
LX51 LINKER/LOCATER V4.66.41.0                                                        08/02/2018  17:16:59  PAGE 18


0087B1H   00895DH   0001ADH   BYTE   UNIT     CODE/B2        ?PR?_REMOVEASSOCIATIONSFROMGROUP?ASSOCIATION_PLUS
00895EH   008963H   000006H   BYTE   UNIT     CODE/B2        ?L?COM00C0
008964H   008BA1H   00023EH   BYTE   UNIT     CODE/B2        ?PR?_NVM_ACTION?ASSOCIATION_PLUS
008BA2H   008CD1H   000130H   BYTE   UNIT     CODE/B2        ?PR?_ASSOCIATIONADDNODE?ASSOCIATION_PLUS
008CD2H   008DD7H   000106H   BYTE   UNIT     CODE/B2        ?PR?_HANDLEASSOCIATIONSET?ASSOCIATION_PLUS
008DD8H   008F1CH   000145H   BYTE   UNIT     CODE/B2        ?PR?_MYHANDLECOMMANDCLASSPOWERLEVEL?SHADE
008F1DH   008F40H   000024H   BYTE   UNIT     CODE/B2        ?L?COM004A
008F41H   008F46H   000006H   BYTE   UNIT     CODE/B2        ?L?COM00CC
008F47H   008F73H   00002DH   BYTE   UNIT     CODE/B2        ?L?COM0038
008F74H   008F7CH   000009H   BYTE   UNIT     CODE/B2        ?L?COM0204
008F7DH   008F86H   00000AH   BYTE   UNIT     CODE/B2        ?L?COM02F5
008F87H   008F98H   000012H   BYTE   UNIT     CODE/B2        ?L?COM016E
008F99H   008F9FH   000007H   BYTE   UNIT     CODE/B2        ?L?COM055C
008FA0H   008FA6H   000007H   BYTE   UNIT     CODE/B2        ?L?COM0569
008FA7H   008FAAH   000004H   BYTE   UNIT     CODE/B2        ?PR?ASSOCIATIONSTOREALL?ASSOCIATION_PLUS
008FABH   008FBAH   000010H   BYTE   UNIT     CODE/B2        ?L?COM005A
008FBBH   008FC0H   000006H   BYTE   UNIT     CODE/B2        ?L?COM021F
008FC1H   008FC8H   000008H   BYTE   UNIT     CODE/B2        ?L?COM01F8
008FC9H   0090E0H   000118H   BYTE   UNIT     CODE/B2        ?PR?_MYHANDLECOMMANDCLASSMULTILEVELSWITCH?SHADE
0090E1H   0090E7H   000007H   BYTE   UNIT     CODE/B2        ?L?COM041E
0090E8H   009103H   00001CH   BYTE   UNIT     CODE/B2        ?L?COM00E4
009104H   009110H   00000DH   BYTE   UNIT     CODE/B2        ?PR?FREERESPONSEBUFFER?ZW_TX_MUTEX
009111H   009114H   000004H   BYTE   UNIT     CODE/B2        ?PR?_MUTEXFREE?ZW_TX_MUTEX
009115H   009368H   000254H   BYTE   UNIT     CODE/B2        ?PR?_MULTICHANCOMMANDHANDLER?COMMANDCLASSMULTICHAN
009369H   009381H   000019H   BYTE   UNIT     CODE/B2        ?L?COM003D
009382H   00950EH   00018DH   BYTE   UNIT     CODE/B2        ?PR?_HANDLECOMMANDCLASSSUPERVISION?COMMANDCLASSSUPERVISION
00950FH   00951AH   00000CH   BYTE   UNIT     CODE/B2        ?L?COM005C
00951BH   009543H   000029H   BYTE   UNIT     CODE/B2        ?L?COM000C
009544H   00955BH   000018H   BYTE   UNIT     CODE/B2        ?L?COM0035
00955CH   0096F1H   000196H   BYTE   UNIT     CODE/B2        ?PR?_CC_AGI_HANDLER?COMMANDCLASSASSOCIATIONGROUPINFO
0096F2H   0096FDH   00000CH   BYTE   UNIT     CODE/B2        ?L?COM0093
0096FEH   00977EH   000081H   BYTE   UNIT     CODE/B2        ?PR?_TRANSPORT_SENDRESPONSEEP?ZW_TRANSPORTENDPOINT
00977FH   00978AH   00000CH   BYTE   UNIT     CODE/B2        ?L?COM009F
00978BH   00978DH   000003H   BYTE   UNIT     CODE/B2        ?PR?GETRESPONSEBUFFER?ZW_TX_MUTEX
00978EH   0097BCH   00002FH   BYTE   UNIT     CODE/B2        ?PR?_GETRESPONSEBUFFERCB?ZW_TX_MUTEX
0097BDH   0097C5H   000009H   BYTE   UNIT     CODE/B2        ?L?COM0055
0097C6H   009984H   0001BFH   BYTE   UNIT     CODE/B2        ?PR?_ASSOCIATIONGET?ASSOCIATION_PLUS
009985H   0099B7H   000033H   BYTE   UNIT     CODE/B2        ?L?COM0016
0099B8H   009A1EH   000067H   BYTE   UNIT     CODE/B2        ?PR?_SENDUART?DIAG_PROTOCOL
009A1FH   009A5EH   000040H   BYTE   UNIT     CODE/B2        ?PR?_PUTBYTE?DIAG_PROTOCOL
009A5FH   009D53H   0002F5H   BYTE   UNIT     CODE/B2        ?PR?DECODEUARTCOMMAND?DIAG_PROTOCOL
009D54H   009D69H   000016H   BYTE   UNIT     CODE/B2        ?L?COM00B3
009D6AH   009DEBH   000082H   BYTE   UNIT     CODE/B2        ?PR?_ASSGROUPMAPPINGLOOKUP?ASSOCIATION_PLUS
009DECH   009DF2H   000007H   BYTE   UNIT     CODE/B2        ?L?COM048B
009DF3H   009ED1H   0000DFH   BYTE   UNIT     CODE/B2        ?PR?DIAG_PROTOCOL_POLL?DIAG_PROTOCOL
009ED2H   009ED9H   000008H   BYTE   UNIT     CODE/B2        ?L?COM0638
009EDAH   009EE6H   00000DH   BYTE   UNIT     CODE/B2        ?L?COM04AA
009EE7H   009EF7H   000011H   BYTE   UNIT     CODE/B2        ?PR?DIAG_PROTOCOL_DONE?DIAG_PROTOCOL
009EF8H   009F08H   000011H   BYTE   UNIT     CODE/B2        ?L?COM0057
009F09H   009F1CH   000014H   BYTE   UNIT     CODE/B2        ?L?COM00A4
009F1DH   009F68H   00004CH   BYTE   UNIT     CODE/B2        ?PR?_CC_VERSION_GETFIRMWAREVERSION_HANDLER?SHADE
009F69H   009F6FH   000007H   BYTE   UNIT     CODE/B2        ?L?COM0419
009F70H   009F76H   000007H   BYTE   UNIT     CODE/B2        ?L?COM0497
009F77H   009F7FH   000009H   BYTE   UNIT     CODE/B2        ?L?COM03C8
009F80H   009F89H   00000AH   BYTE   UNIT     CODE/B2        ?L?COM02B1
009F8AH   009F90H   000007H   BYTE   UNIT     CODE/B2        ?L?COM04E4
009F91H   009F9BH   00000BH   BYTE   UNIT     CODE/B2        ?L?COM0507
009F9CH   009FA7H   00000CH   BYTE   UNIT     CODE/B2        ?L?COM04DF
009FA8H   009FAEH   000007H   BYTE   UNIT     CODE/B2        ?L?COM04E3
009FAFH   009FB5H   000007H   BYTE   UNIT     CODE/B2        ?L?COM050F
009FB6H   009FBEH   000009H   BYTE   UNIT     CODE/B2        ?L?COM04AD
009FBFH   009FE5H   000027H   BYTE   UNIT     CODE/B2        ?PR?ASSOCIATIONENDPOINTCLEARALL?ASSOCIATION_PLUS
009FE6H   009FFEH   000019H   BYTE   UNIT     CODE/B2        ?L?COM0097
009FFFH   00A019H   00001BH   BYTE   UNIT     CODE/B2        ?L?COM0070
00A01AH   00A181H   000168H   BYTE   UNIT     CODE/B2        ?PR?_REQNODELIST?AGI
LX51 LINKER/LOCATER V4.66.41.0                                                        08/02/2018  17:16:59  PAGE 19


00A182H   00A187H   000006H   BYTE   UNIT     CODE/B2        ?L?COM0538
00A188H   00A193H   00000CH   BYTE   UNIT     CODE/B2        ?L?COM02A7
00A194H   00A209H   000076H   BYTE   UNIT     CODE/B2        ?PR?LOADCONFIGURATION?SHADE
00A20AH   00A219H   000010H   BYTE   UNIT     CODE/B2        ?PR?SETDEFAULTCONFIGURATION?SHADE
00A21AH   00A247H   00002EH   BYTE   UNIT     CODE/B2        ?PR?ASSOCIATIONCLEARALL?ASSOCIATION_PLUS
00A248H   00A250H   000009H   BYTE   UNIT     CODE/B2        ?L?COM00FB
00A251H   00A25BH   00000BH   BYTE   UNIT     CODE/B2        ?L?COM01DF
00A25CH   00A266H   00000BH   BYTE   UNIT     CODE/B2        ?L?COM051A
00A267H   00A28CH   000026H   BYTE   UNIT     CODE/B2        ?PR?ASSOCIATIONINIT?ASSOCIATION_PLUS
00A28DH   00A359H   0000CDH   BYTE   UNIT     CODE/B2        ?PR?_CC_ENGINE_MULTICAST_REQUEST?COMMANDCLASS
00A35AH   00A3CAH   000071H   BYTE   UNIT     CODE/B2        ?PR?_CC_DEVICERESETLOCALLY_NOTIFICATION_TX?COMMANDCLASSDEV
                                                             -ICERESETLOCALLY
00A3CBH   00A52DH   000163H   BYTE   UNIT     CODE/B2        ?PR?_ZW_TRANSPORTMULTICAST_SENDREQUEST?ZW_TRANSPORTMULTICA
                                                             -ST
00A52EH   00A534H   000007H   BYTE   UNIT     CODE/B2        ?L?COM03DC
00A535H   00A53AH   000006H   BYTE   UNIT     CODE/B2        ?L?COM053A
00A53BH   00A541H   000007H   BYTE   UNIT     CODE/B2        ?L?COM0560
00A542H   00A548H   000007H   BYTE   UNIT     CODE/B2        ?L?COM0561
00A549H   00A552H   00000AH   BYTE   UNIT     CODE/B2        ?L?COM015E
00A553H   00A675H   000123H   BYTE   UNIT     CODE/B2        ?PR?_SETEVSTATE?OTA_UTIL
00A676H   00A6E4H   00006FH   BYTE   UNIT     CODE/B2        ?PR?_SENDFIRMWAREUPDATESTATUSREPORT?OTA_UTIL
00A6E5H   00A6E9H   000005H   BYTE   UNIT     CODE/B2        ?PR?REBOOT?OTA_UTIL
00A6EAH   00A6F2H   000009H   BYTE   UNIT     CODE/B2        ?L?COM0563
00A6F3H   00A707H   000015H   BYTE   UNIT     CODE/B2        ?PR?TIMERCANCELFWUPDATEFRAMEGET?OTA_UTIL
00A708H   00A711H   00000AH   BYTE   UNIT     CODE/B2        ?L?COM0415
00A712H   00A71DH   00000CH   BYTE   UNIT     CODE/B2        ?L?COM02AA
00A71EH   00A72DH   000010H   BYTE   UNIT     CODE/B2        ?PR?FREEREQUESTBUFFER?ZW_TX_MUTEX
00A72EH   00A73CH   00000FH   BYTE   UNIT     CODE/B2        ?L?COM02C6
00A73DH   00A759H   00001DH   BYTE   UNIT     CODE/B2        ?PR?_ZCB_FINISHFWUPDATE?OTA_UTIL
00A75AH   00A763H   00000AH   BYTE   UNIT     CODE/B2        ?L?COM02D5
00A764H   00A76AH   000007H   BYTE   UNIT     CODE/B2        ?L?COM061A
00A76BH   00A772H   000008H   BYTE   UNIT     CODE/B2        ?L?COM05CC
00A773H   00A77AH   000008H   BYTE   UNIT     CODE/B2        ?L?COM062E
00A77BH   00A781H   000007H   BYTE   UNIT     CODE/B2        ?L?COM063D
00A782H   00A7A5H   000024H   BYTE   UNIT     CODE/B2        ?PR?_ZCB_DEVICERESETLOCALLYDONE?SHADE
00A7A6H   00A7A6H   000001H   BYTE   UNIT     CODE/B2        ?PR?TRANSPORT_SETDEFAULT?ZW_TRANSPORTSECPROTOCOL
00A7A7H   00A7B3H   00000DH   BYTE   UNIT     CODE/B2        ?L?COM0275
00A7B4H   00A7BAH   000007H   BYTE   UNIT     CODE/B2        ?L?COM0630
00A7BBH   00A821H   000067H   BYTE   UNIT     CODE/B2        ?PR?APPLTIMERINIT?APPL_TIMER
00A822H   00A82FH   00000EH   BYTE   UNIT     CODE/B2        ?L?COM0259
00A830H   00A8A5H   000076H   BYTE   UNIT     CODE/B2        ?PR?ZCB_APPLTIMERACTION?APPL_TIMER
00A8A6H   00A8B4H   00000FH   BYTE   UNIT     CODE/B2        ?L?COM01D0
00A8B5H   00A8D4H   000020H   BYTE   UNIT     CODE/B2        ?L?COM00D5
00A8D5H   00A95BH   000087H   BYTE   UNIT     CODE/B2        ?PR?_APPLTIMERSTART?APPL_TIMER
00A95CH   00A961H   000006H   BYTE   UNIT     CODE/B2        ?L?COM04A5
00A962H   00A970H   00000FH   BYTE   UNIT     CODE/B2        ?L?COM01CE
00A971H   00A993H   000023H   BYTE   UNIT     CODE/B2        ?PR?_APPLTIMERRESTART?APPL_TIMER
00A994H   00A9A2H   00000FH   BYTE   UNIT     CODE/B2        ?L?COM01D2
00A9A3H   00A9C2H   000020H   BYTE   UNIT     CODE/B2        ?PR?_APPLTIMERGETTIME?APPL_TIMER
00A9C3H   00A9EFH   00002DH   BYTE   UNIT     CODE/B2        ?PR?_APPLTIMERSTOP?APPL_TIMER
00A9F0H   00B040H   000651H   BYTE   UNIT     CODE/B2        ?PR?_APPLICATIONPOLL?SHADE
00B041H   00B05DH   00001DH   BYTE   UNIT     CODE/B2        ?PR?GETCURRENTPOSITION?SHADEFUNCTIONS
00B05EH   00B065H   000008H   BYTE   UNIT     CODE/B2        ?PR?STOPMOVEMENTNOW?SHADE
00B066H   00B067H   000002H   BYTE   UNIT     CODE/B2        ?PR?STOPMOVEMENT?SHADEFUNCTIONS
00B068H   00B124H   0000BDH   BYTE   UNIT     CODE/B2        ?PR?_WRITEMOTOR?SHADEFUNCTIONS
00B125H   00B127H   000003H   BYTE   UNIT     CODE/B2        ?PR?_I2C_DELAY?B_I2C
00B128H   00B262H   00013BH   BYTE   UNIT     CODE/B2        ?PR?I2C_WRITE_BYTE?B_I2C
00B263H   00B2ADH   00004BH   BYTE   UNIT     CODE/B2        ?PR?I2C_WRITE_BIT?B_I2C
00B2AEH   00B2CCH   00001FH   BYTE   UNIT     CODE/B2        ?L?COM0029
00B2CDH   00B3A6H   0000DAH   BYTE   UNIT     CODE/B2        ?PR?I2C_START_COND?B_I2C
00B3A7H   00B3ADH   000007H   BYTE   UNIT     CODE/B2        ?L?COM0171
00B3AEH   00B3B8H   00000BH   BYTE   UNIT     CODE/B2        ?L?COM0172
00B3B9H   00B3C3H   00000BH   BYTE   UNIT     CODE/B2        ?L?COM019E
00B3C4H   00B3F7H   000034H   BYTE   UNIT     CODE/B2        ?PR?I2C_READ_BIT?B_I2C
00B3F8H   00B43DH   000046H   BYTE   UNIT     CODE/B2        ?PR?I2C_READ_BYTE?B_I2C
LX51 LINKER/LOCATER V4.66.41.0                                                        08/02/2018  17:16:59  PAGE 20


00B43EH   00B448H   00000BH   BYTE   UNIT     CODE/B2        ?L?COM01F3
00B449H   00B498H   000050H   BYTE   UNIT     CODE/B2        ?PR?I2C_STOP_COND?B_I2C
00B499H   00B4A2H   00000AH   BYTE   UNIT     CODE/B2        ?L?COM01F7
00B4A3H   00B4ACH   00000AH   BYTE   UNIT     CODE/B2        ?L?COM02A9
00B4ADH   00B4B9H   00000DH   BYTE   UNIT     CODE/B2        ?L?COM01F6
00B4BAH   00B582H   0000C9H   BYTE   UNIT     CODE/B2        ?PR?_READMOTOR?SHADEFUNCTIONS
00B583H   00B588H   000006H   BYTE   UNIT     CODE/B2        ?L?COM0613
00B589H   00B6DDH   000155H   BYTE   UNIT     CODE/B2        ?PR?_APPLICATIONINITSW?SHADE
00B6DEH   00B6E7H   00000AH   BYTE   UNIT     CODE/B2        ?L?COM03C9
00B6E8H   00B6EEH   000007H   BYTE   UNIT     CODE/B2        ?L?COM0570
00B6EFH   00B70CH   00001EH   BYTE   UNIT     CODE/B2        ?PR?_LED_SET_MODE?SHADE
00B70DH   00B714H   000008H   BYTE   UNIT     CODE/B2        ?L?COM063A
00B715H   00B724H   000010H   BYTE   UNIT     CODE/B2        ?L?COM02A8
00B725H   00B76DH   000049H   BYTE   UNIT     CODE/B2        ?PR?_APPLICATIONINITHW?SHADE
00B76EH   00B774H   000007H   BYTE   UNIT     CODE/B2        ?L?COM056F
00B775H   00B77DH   000009H   BYTE   UNIT     CODE/B2        ?L?COM05B5
00B77EH   00B787H   00000AH   BYTE   UNIT     CODE/B2        ?L?COM0413
00B788H   00B7A6H   00001FH   BYTE   UNIT     CODE/B2        ?PR?_CRC8?B_I2C
00B7A7H   00B7AAH   000004H   BYTE   UNIT     CODE/B2        ?PR?TOGGLEHANDBIT?SHADEFUNCTIONS
00B7ABH   00B7B0H   000006H   BYTE   UNIT     CODE/B2        ?PR?_GETMOTORMETRICS?SHADEFUNCTIONS
00B7B1H   00B7B6H   000006H   BYTE   UNIT     CODE/B2        ?L?COM04E6
00B7B7H   00B7C7H   000011H   BYTE   UNIT     CODE/B2        ?PR?ZAF_MUTEX_ISACTIVE?ZW_TX_MUTEX
00B7C8H   00B7CEH   000007H   BYTE   UNIT     CODE/B2        ?L?COM02EB
00B7CFH   00B857H   000089H   BYTE   UNIT     CODE/B2        ?PR?_SETMOTORPOSITION?SHADE
00B858H   00B860H   000009H   BYTE   UNIT     CODE/B2        ?L?COM03F8
00B861H   00B871H   000011H   BYTE   UNIT     CODE/B2        ?PR?GOTOTARGET?SHADEFUNCTIONS
00B872H   00B87AH   000009H   BYTE   UNIT     CODE/B2        ?L?COM043D
00B87BH   00B883H   000009H   BYTE   UNIT     CODE/B2        ?L?COM0376
00B884H   00B898H   000015H   BYTE   UNIT     CODE/B2        ?PR?_HANDLEBASICSETCOMMAND?SHADE
00B899H   00B95AH   0000C2H   BYTE   UNIT     CODE/B2        ?PR?_HANDLECOMMANDCLASSBASIC?COMMANDCLASSBASIC
00B95BH   00B960H   000006H   BYTE   UNIT     CODE/B2        ?L?COM012F
00B961H   00BAB9H   000159H   BYTE   UNIT     CODE/B2        ?PR?_HANDLECOMMANDCLASSASSOCIATION?COMMANDCLASSASSOCIATION
00BABAH   00BAC8H   00000FH   BYTE   UNIT     CODE/B2        ?L?COM0084
00BAC9H   00BBDBH   000113H   BYTE   UNIT     CODE/B2        ?PR?_HANDLECOMMANDCLASSMULTICHANNELASSOCIATION?COMMANDCLAS
                                                             -SMULTICHANASSOCIATION
00BBDCH   00BBE4H   000009H   BYTE   UNIT     CODE/B2        ?L?COM0252
00BBE5H   00BC03H   00001FH   BYTE   UNIT     CODE/B2        ?L?COM001D
00BC04H   00BE85H   000282H   BYTE   UNIT     CODE/B2        ?PR?_CC_VERSION_HANDLER?COMMANDCLASSVERSION
00BE86H   00BE90H   00000BH   BYTE   UNIT     CODE/B2        ?L?COM00C4
00BE91H   00BE97H   000007H   BYTE   UNIT     CODE/B2        ?L?COM03DA
00BE98H   00BE9EH   000007H   BYTE   UNIT     CODE/B2        ?L?COM04A9
00BE9FH   00BEAAH   00000CH   BYTE   UNIT     CODE/B2        ?L?COM02AE
00BEABH   00BEB9H   00000FH   BYTE   UNIT     CODE/B2        ?L?COM0220
00BEBAH   ---       000000H   BYTE   UNIT     CODE/B2        ?PR?_HANDLEGETMAXASSOCIATIONGROUPS?ASSOCIATION_PLUS
00BEBAH   00BEC8H   00000FH   BYTE   UNIT     CODE/B2        ?PR?_CC_AGI_GROUPCOUNT_HANDLER?AGI
00BEC9H   00BECFH   000007H   BYTE   UNIT     CODE/B2        ?L?COM0567
00BED0H   00BEDBH   00000CH   BYTE   UNIT     CODE/B2        ?L?COM04D9
00BEDCH   00BEE7H   00000CH   BYTE   UNIT     CODE/B2        ?L?COM04DD
00BEE8H   00BEF5H   00000EH   BYTE   UNIT     CODE/B2        ?L?COM0101
00BEF6H   00BF90H   00009BH   BYTE   UNIT     CODE/B2        ?PR?_ZAF_CC_MULTICHANNEL_ISCCSUPPORTED?COMMANDCLASSMULTICH
                                                             -AN
00BF91H   00BF96H   000006H   BYTE   UNIT     CODE/B2        ?L?COM0548
00BF97H   00BF9DH   000007H   BYTE   UNIT     CODE/B2        ?L?COM061F
00BF9EH   00BFA6H   000009H   BYTE   UNIT     CODE/B2        ?L?COM05C5
00BFA7H   00BFB1H   00000BH   BYTE   UNIT     CODE/B2        ?L?COM0517
00BFB2H   00BFBEH   00000DH   BYTE   UNIT     CODE/B2        ?L?COM047D
00BFBFH   00C2B4H   0002F6H   BYTE   UNIT     CODE/B2        ?PR?_HANDLECOMMANDCLASSFWUPDATE?COMMANDCLASSFIRMWAREUPDATE
00C2B5H   00C2BAH   000006H   BYTE   UNIT     CODE/B2        ?L?COM0485
00C2BBH   00C2D4H   00001AH   BYTE   UNIT     CODE/B2        ?PR?_HANDLEFIRMWAREIDGET?SHADE
00C2D5H   00C3CAH   0000F6H   BYTE   UNIT     CODE/B2        ?PR?_HANDLECMDCLASSFIRMWAREUPDATEMDREQGET?OTA_UTIL
00C3CBH   00C3D0H   000006H   BYTE   UNIT     CODE/B2        ?L?COM03F7
00C3D1H   00C3D3H   000003H   BYTE   UNIT     CODE/B2        ?PR?CC_VERSION_GETNUMBEROFFIRMWARETARGETS_HANDLER?SHADE
00C3D4H   00C3DEH   00000BH   BYTE   UNIT     CODE/B2        ?L?COM027D
00C3DFH   00C3EAH   00000CH   BYTE   UNIT     CODE/B2        ?L?COM03DE
00C3EBH   00C3FBH   000011H   BYTE   UNIT     CODE/B2        ?L?COM007B
LX51 LINKER/LOCATER V4.66.41.0                                                        08/02/2018  17:16:59  PAGE 21


00C3FCH   00C438H   00003DH   BYTE   UNIT     CODE/B2        ?PR?HANDLECOMMANDCLASSFIRMWAREUPDATEMAXFRAGMENTSIZE?OTA_UT
                                                             -IL
00C439H   00C441H   000009H   BYTE   UNIT     CODE/B2        ?L?COM05C9
00C442H   00C576H   000135H   BYTE   UNIT     CODE/B2        ?PR?_HANDLECMDCLASSFIRMWAREUPDATEMDREPORT?OTA_UTIL
00C577H   00C581H   00000BH   BYTE   UNIT     CODE/B2        ?L?COM03C7
00C582H   00C58EH   00000DH   BYTE   UNIT     CODE/B2        ?L?COM04A4
00C58FH   00C594H   000006H   BYTE   UNIT     CODE/B2        ?L?COM0547
00C595H   00C5A2H   00000EH   BYTE   UNIT     CODE/B2        ?L?COM01D7
00C5A3H   00C5B9H   000017H   BYTE   UNIT     CODE/B2        ?PR?INITEVSTATE?OTA_UTIL
00C5BAH   00C5D6H   00001DH   BYTE   UNIT     CODE/B2        ?PR?_OTA_WRITEDATA?OTA_UTIL
00C5D7H   00C5D7H   000001H   BYTE   UNIT     CODE/B2        ?PR?_APPLICATIONSLAVEUPDATE?SHADE
00C5D8H   00C5F5H   00001EH   BYTE   UNIT     CODE/B2        ?PR?TIMERSTARTHOSTRESPONSE?OTA_UTIL
00C5F6H   00C66BH   000076H   BYTE   UNIT     CODE/B2        ?PR?_CMDCLASSFIRMWAREUPDATEMDGET?COMMANDCLASSFIRMWAREUPDAT
                                                             -E
00C66CH   00C672H   000007H   BYTE   UNIT     CODE/B2        ?L?COM032B
00C673H   00C70AH   000098H   BYTE   UNIT     CODE/B2        ?PR?_CMDCLASSFIRMWAREUPDATEMDSTATUSREPORT?COMMANDCLASSFIRM
                                                             -WAREUPDATE
00C70BH   00C712H   000008H   BYTE   UNIT     CODE/B2        ?L?COM038C
00C713H   00C7A0H   00008EH   BYTE   UNIT     CODE/B2        ?PR?_TRANSPORT_SENDREQUESTEP?ZW_TRANSPORTENDPOINT
00C7A1H   00C7A7H   000007H   BYTE   UNIT     CODE/B2        ?L?COM0386
00C7A8H   00C7AEH   000007H   BYTE   UNIT     CODE/B2        ?L?COM045A
00C7AFH   00C7B6H   000008H   BYTE   UNIT     CODE/B2        ?L?COM023D
00C7B7H   00C7DFH   000029H   BYTE   UNIT     CODE/B2        ?PR?_CHECK_NOT_LEGAL_RESPONSE_JOB?ZW_TRANSPORTENDPOINT
00C7E0H   00C8C0H   0000E1H   BYTE   UNIT     CODE/B2        ?PR?_HANDLECOMMANDCLASSMANUFACTURERSPECIFIC?COMMANDCLASSMA
                                                             -NUFACTURERSPECIFIC
00C8C1H   00C8CCH   00000CH   BYTE   UNIT     CODE/B2        ?L?COM04DC
00C8CDH   00C8DBH   00000FH   BYTE   UNIT     CODE/B2        ?L?COM0262
00C8DCH   00C8EAH   00000FH   BYTE   UNIT     CODE/B2        ?L?COM0439
00C8EBH   00C985H   00009BH   BYTE   UNIT     CODE/B2        ?PR?_CC_AGI_GROUPINFOGET_HANDLER?AGI
00C986H   00C99AH   000015H   BYTE   UNIT     CODE/B2        ?L?COM02CB
00C99BH   00C9A2H   000008H   BYTE   UNIT     CODE/B2        ?L?COM0380
00C9A3H   00C9ADH   00000BH   BYTE   UNIT     CODE/B2        ?L?COM0503
00C9AEH   00C9C2H   000015H   BYTE   UNIT     CODE/B2        ?L?COM019B
00C9C3H   00CA1AH   000058H   BYTE   UNIT     CODE/B2        ?PR?_GETAPPLGROUPCOMMANDLIST?AGI
00CA1BH   00CA9EH   000084H   BYTE   UNIT     CODE/B2        ?PR?SENDASSOGROUPINFOREPORT?COMMANDCLASSASSOCIATIONGROUPIN
                                                             -FO
00CA9FH   00CAA9H   00000BH   BYTE   UNIT     CODE/B2        ?L?COM03E0
00CAAAH   00CB3DH   000094H   BYTE   UNIT     CODE/B2        ?PR?_CC_AGI_GROUPNAMEGET_HANDLER?AGI
00CB3EH   00CB4CH   00000FH   BYTE   UNIT     CODE/B2        ?L?COM01C6
00CB4DH   00CB66H   00001AH   BYTE   UNIT     CODE/B2        ?PR?_CC_AGI_RESOURCEGROUPSETUP?AGI
00CB67H   00CB95H   00002FH   BYTE   UNIT     CODE/B2        ?PR?_ZW_STRLEN?ZW_STRING
00CB96H   00CBE3H   00004EH   BYTE   UNIT     CODE/B2        ?PR?CC_AGI_INIT?AGI
00CBE4H   00CBEBH   000008H   BYTE   UNIT     CODE/B2        ?L?COM03A0
00CBECH   00CBF3H   000008H   BYTE   UNIT     CODE/B2        ?L?COM04DE
00CBF4H   00CC03H   000010H   BYTE   UNIT     CODE/B2        ?L?COM0418
00CC04H   00CC05H   000002H   BYTE   UNIT     CODE/B2        ?PR?ZCB_AGIREPORTSENDTIMER?COMMANDCLASSASSOCIATIONGROUPINF
                                                             -O
00CC06H   00CC0DH   000008H   BYTE   UNIT     CODE/B2        ?L?COM038A
00CC0EH   00CC15H   000008H   BYTE   UNIT     CODE/B2        ?L?COM0634
00CC16H   00CC25H   000010H   BYTE   UNIT     CODE/B2        ?L?COM02DC
00CC26H   00CC39H   000014H   BYTE   UNIT     CODE/B2        ?PR?_CC_AGI_LIFELINEGROUPSETUP?AGI
00CC3AH   00CC4BH   000012H   BYTE   UNIT     CODE/B2        ?L?COM0210
00CC4CH   00CC62H   000017H   BYTE   UNIT     CODE/B2        ?PR?_ZAF_CC_AGI_CORRECTGROUPIDIFINVALID?AGI
00CC63H   00CC7CH   00001AH   BYTE   UNIT     CODE/B2        ?PR?_GETAPPLGROUPCOMMANDLISTSIZE?AGI
00CC7DH   00CD01H   000085H   BYTE   UNIT     CODE/B2        ?PR?_RXTOTXOPTIONS?ZW_TRANSPORTENDPOINT
00CD02H   00CD0FH   00000EH   BYTE   UNIT     CODE/B2        ?L?COM0430
00CD10H   00CE42H   000133H   BYTE   UNIT     CODE/B2        ?PR?_ASSOCIATIONREMOVE?ASSOCIATION_PLUS
00CE43H   00CE4BH   000009H   BYTE   UNIT     CODE/B2        ?L?COM05D0
00CE4CH   00CE57H   00000CH   BYTE   UNIT     CODE/B2        ?L?COM04AB
00CE58H   00CE5EH   000007H   BYTE   UNIT     CODE/B2        ?L?COM02FB
00CE5FH   00CE6EH   000010H   BYTE   UNIT     CODE/B2        ?L?COM0160
00CE6FH   00CEDEH   000070H   BYTE   UNIT     CODE/B2        ?PR?_REORDERGROUPAFTERREMOVE?ASSOCIATION_PLUS
00CEDFH   00CEEFH   000011H   BYTE   UNIT     CODE/B2        ?L?COM03E4
00CEF0H   00CF76H   000087H   BYTE   UNIT     CODE/B2        ?PR?_HANDLEASSOCIATIONGETNODELIST?ASSOCIATION_PLUS
00CF77H   00CF7EH   000008H   BYTE   UNIT     CODE/B2        ?L?COM03B0
LX51 LINKER/LOCATER V4.66.41.0                                                        08/02/2018  17:16:59  PAGE 22


00CF7FH   00CF86H   000008H   BYTE   UNIT     CODE/B2        ?L?COM05CB
00CF87H   00CF99H   000013H   BYTE   UNIT     CODE/B2        ?L?COM0206
00CF9AH   00CFB9H   000020H   BYTE   UNIT     CODE/B2        ?PR?_HANDLECHECKGROUPIDEN?ASSOCIATION_PLUS
00CFBAH   00CFCDH   000014H   BYTE   UNIT     CODE/B2        ?L?COM0313
00CFCEH   00D0C2H   0000F5H   BYTE   UNIT     CODE/B2        ?PR?_EXTRACTCMDCLASSNODELIST?ASSOCIATION_PLUS
00D0C3H   00D0CFH   00000DH   BYTE   UNIT     CODE/B2        ?L?COM024D
00D0D0H   00D0DBH   00000CH   BYTE   UNIT     CODE/B2        ?L?COM02AD
00D0DCH   00D148H   00006DH   BYTE   UNIT     CODE/B2        ?PR?_ZCB_POWERLEVELTESTCALLBACK?SHADE
00D149H   00D199H   000051H   BYTE   UNIT     CODE/B2        ?PR?_CMDCLASSSUPERVISIONREPORTSEND?COMMANDCLASSSUPERVISION
00D19AH   00D19FH   000006H   BYTE   UNIT     CODE/B2        ?L?COM048C
00D1A0H   00D284H   0000E5H   BYTE   UNIT     CODE/B2        ?PR?_CMDCLASSMULTICHANNELENCAPSULATECMD?COMMANDCLASSMULTIC
                                                             -HAN
00D285H   00D30AH   000086H   BYTE   UNIT     CODE/B2        ?PR?_CMDCLASSMULTICHANNELENCAPSULATE?COMMANDCLASSMULTICHAN
00D30BH   00D317H   00000DH   BYTE   UNIT     CODE/B2        ?L?COM02FC
00D318H   00D320H   000009H   BYTE   UNIT     CODE/B2        ?L?COM04A7
00D321H   00D37AH   00005AH   BYTE   UNIT     CODE/B2        ?PR?GETENDPOINTCMDCLASSLIST?ZW_TRANSPORTENDPOINT
00D37BH   00D45DH   0000E3H   BYTE   UNIT     CODE/B2        ?PR?GETCOMMANDCLASSLIST?ZW_TRANSPORTSECPROTOCOL
00D45EH   00D462H   000005H   BYTE   UNIT     CODE/B2        ?L?COM0405
00D463H   00D46AH   000008H   BYTE   UNIT     CODE/B2        ?L?COM032D
00D46BH   00D478H   00000EH   BYTE   UNIT     CODE/B2        ?L?COM0260
00D479H   00D4DDH   000065H   BYTE   UNIT     CODE/B2        ?PR?_APPLICATIONNODEINFORMATION?ZW_TRANSPORTSECPROTOCOL
00D4DEH   00D517H   00003AH   BYTE   UNIT     CODE/B2        ?PR?_TRANSPORTCMDCLASSSUPPORTED?ZW_TRANSPORTSECPROTOCOL
00D518H   00D576H   00005FH   BYTE   UNIT     CODE/B2        ?PR?_CMDCLASSSUPPORTED?ZW_CMD_CLASS_LIST
00D577H   00D59DH   000027H   BYTE   UNIT     CODE/B2        ?PR?_CHECKCMDCLASS?ZW_CMD_CLASS_LIST
00D59EH   00D5CCH   00002FH   BYTE   UNIT     CODE/B2        ?PR?MUSTCOMMANDBEHANDLED?COMMANDCLASSSUPERVISION
00D5CDH   00D62DH   000061H   BYTE   UNIT     CODE/B2        ?PR?_GETMULTICHANNELENDPOINTFUNCTIONALITY?ZW_TRANSPORTENDP
                                                             -OINT
00D62EH   00D63EH   000011H   BYTE   UNIT     CODE/B2        ?L?COM0182
00D63FH   00D660H   000022H   BYTE   UNIT     CODE/B2        ?PR?_GETHIGHESTSECURELEVEL?ZW_TRANSPORTSECPROTOCOL
00D661H   00D667H   000007H   BYTE   UNIT     CODE/B2        ?L?COM0513
00D668H   00D66AH   000003H   BYTE   UNIT     CODE/B2        ?PR?APPLICATIONSECUREKEYSREQUESTED?SHADE
00D66BH   00D66DH   000003H   BYTE   UNIT     CODE/B2        ?PR?APPLICATIONSECUREAUTHENTICATIONREQUESTED?SHADE
00D66EH   00D670H   000003H   BYTE   UNIT     CODE/B2        ?PR?_APPLICATIONSECURITYEVENT?SHADE
00D671H   00D784H   000114H   BYTE   UNIT     CODE/B2        ?PR?_ZCB_MULTICAST_CALLBACK?ZW_TRANSPORTMULTICAST
00D785H   00D78DH   000009H   BYTE   UNIT     CODE/B2        ?L?COM05CA
00D78EH   00D794H   000007H   BYTE   UNIT     CODE/B2        ?L?COM03C3
00D795H   00D7A0H   00000CH   BYTE   UNIT     CODE/B2        ?L?COM0498
00D7A1H   00D824H   000084H   BYTE   UNIT     CODE/B2        ?PR?_APPLICATIONNETWORKLEARNMODECOMPLETED?SHADE
00D825H   00D82BH   000007H   BYTE   UNIT     CODE/B2        ?PR?_TRANSPORT_ONLEARNCOMPLETED?ZW_TRANSPORTSECPROTOCOL
00D82CH   00D836H   00000BH   BYTE   UNIT     CODE/B2        ?PR?ZAF_PM_KEEPAWAKEAUTO?ZAF_PM
00D837H   00D898H   000062H   BYTE   UNIT     CODE/B2        ?PR?_ZAF_PM_KEEPAWAKE?ZAF_PM
00D899H   00D8A7H   00000FH   BYTE   UNIT     CODE/B2        ?L?COM043A
00D8A8H   00D8ABH   000004H   BYTE   UNIT     CODE/B2        ?PR?_ONEUSDELAY?SHADE
00D8ACH   00D8AFH   000004H   BYTE   UNIT     CODE/B2        ?PR?ZAF_PM_ACTIVATECCWAKEUP?ZAF_PM
00D8B0H   00D93BH   00008CH   BYTE   UNIT     CODE/B2        ?PR?_ZCB_LEARNMODECALLBACK?SHADE
00D93CH   00D941H   000006H   BYTE   UNIT     CODE/B2        ?L?COM0622
00D942H   00D95BH   00001AH   BYTE   UNIT     CODE/B2        ?PR?SHADEJOG?SHADEFUNCTIONS
00D95CH   00D966H   00000BH   BYTE   UNIT     CODE/B2        ?L?COM02C9
00D967H   00D96BH   000005H   BYTE   UNIT     CODE/B2        ?PR?OTA_INVALIDATE?OTA_UTIL
00D96CH   00D970H   000005H   BYTE   UNIT     CODE/B2        ?PR?ZCB_TIMEROUTFWUPDATEFRAMEGET?OTA_UTIL
00D971H   00DA0EH   00009EH   BYTE   UNIT     CODE/B2        ?PR?LED10MS?SHADE
00DA0FH   00DA21H   000013H   BYTE   UNIT     CODE/B2        ?L?COM022E
00DA22H   00DA3DH   00001CH   BYTE   UNIT     CODE/B2        ?PR?SETHOMEFIFTYPERCENT?SHADE
00DA3EH   00DA4BH   00000EH   BYTE   UNIT     CODE/B2        ?L?COM0373
00DA4CH   00DA56H   00000BH   BYTE   UNIT     CODE/B2        ?L?COM03C5
00DA57H   00DA71H   00001BH   BYTE   UNIT     CODE/B2        ?PR?_ZAF_PM_INIT?ZAF_PM
00DA72H   00DA8DH   00001CH   BYTE   UNIT     CODE/B2        ?PR?_APPLICATIONCOMMANDHANDLER?ZW_TRANSPORTSECPROTOCOL
00DA8EH   00DA9CH   00000FH   BYTE   UNIT     CODE/B2        ?L?COM0222
00DA9DH   00DABEH   000022H   BYTE   UNIT     CODE/B2        ?PR?ISMOTORRUNNING?SHADEFUNCTIONS
00DABFH   00DAEEH   000030H   BYTE   UNIT     CODE/B2        ?PR?_SENDBATTERY?SHADE
00DAEFH   00DAF5H   000007H   BYTE   UNIT     CODE/B2        ?L?COM0637
00DAF6H   00DB29H   000034H   BYTE   UNIT     CODE/B2        ?PR?_GETREQUESTBUFFER?ZW_TX_MUTEX
00DB2AH   00DB2FH   000006H   BYTE   UNIT     CODE/B2        ?L?COM056D
00DB30H   00DB76H   000047H   BYTE   UNIT     CODE/B2        ?PR?_APPLICATIONSECURECOMMANDSSUPPORTED?ZW_TRANSPORTSECPRO
                                                             -TOCOL
LX51 LINKER/LOCATER V4.66.41.0                                                        08/02/2018  17:16:59  PAGE 23


00DB77H   00DBCDH   000057H   BYTE   UNIT     CODE/B2        ?PR?RFTEST?DIAG_PROTOCOL
00DBCEH   00DBD5H   000008H   BYTE   UNIT     CODE/B2        ?L?COM046A
00DBD6H   00DBE4H   00000FH   BYTE   UNIT     CODE/B2        ?PR?GETNODEID?ZW_TRANSPORTSECPROTOCOL
00DBE5H   00DBEBH   000007H   BYTE   UNIT     CODE/B2        ?L?COM049C
00DBECH   00DBF2H   000007H   BYTE   UNIT     CODE/B2        ?L?COM0546
00DBF3H   00DC01H   00000FH   BYTE   UNIT     CODE/B2        ?L?COM0438
00DC02H   00DC0DH   00000CH   BYTE   UNIT     CODE/B2        ?L?COM0139
00DC0EH   00DC10H   000003H   BYTE   UNIT     CODE/B2        ?PR?_GETAPPBASICREPORTTARGET?SHADE
00DC11H   00DC13H   000003H   BYTE   UNIT     CODE/B2        ?PR?_GETAPPBASICREPORTDURATION?SHADE
00DC14H   00DC1AH   000007H   BYTE   UNIT     CODE/B2        ?L?COM05C3
00DC1BH   00DC20H   000006H   BYTE   UNIT     CODE/B2        ?PR?_GETAPPBASICREPORT?SHADE
00DC21H   00DC28H   000008H   BYTE   UNIT     CODE/B2        ?L?COM063E
00DC29H   00DC2EH   000006H   BYTE   UNIT     CODE/B2        ?PR?APPLICATIONGETLASTACTIVEGROUPID?AGI
00DC2FH   00DC78H   00004AH   BYTE   UNIT     CODE/B2        ?PR?SENDMULTILEVELREPORT?SHADE
00DC79H   00DC94H   00001CH   BYTE   UNIT     CODE/B2        ?PR?_COMMANDCLASSSUPERVISIONGETADD?COMMANDCLASSSUPERVISION
00DC95H   00DC9DH   000009H   BYTE   UNIT     CODE/B2        ?L?COM056C
00DC9EH   00DCA3H   000006H   BYTE   UNIT     CODE/B2        ?L?COM0564
00DCA4H   00DCA9H   000006H   BYTE   UNIT     CODE/B2        ?L?COM0565
00DCAAH   00DCB4H   00000BH   BYTE   UNIT     CODE/B2        ?L?COM0519
00DCB5H   00DCC6H   000012H   BYTE   UNIT     CODE/B2        ?PR?CC_VERSION_GETHARDWAREVERSION?COMMANDCLASSVERSION
00DCC7H   00DCD5H   00000FH   BYTE   UNIT     CODE/B2        ?PR?_TRANSPORT_ONAPPLICATIONINITSW?ZW_TRANSPORTSECPROTOCOL
00DCD6H   00DCFCH   000027H   BYTE   UNIT     CODE/B2        ?PR?_SETUPACTIVENIF?ZW_TRANSPORTSECPROTOCOL
00DCFDH   00DD31H   000035H   BYTE   UNIT     CODE/B2        ?PR?_ZW_NVRGETAPPVALUE?ZW_NVR_APP_API
00DD32H   00DD73H   000042H   BYTE   UNIT     CODE/B2        ?PR?_COMMANDCLASSSUPERVISIONGETWRITE?COMMANDCLASSSUPERVISI
                                                             -ON
00DD74H   00DDAEH   00003BH   BYTE   UNIT     CODE/B2        ?PR?APPLICATIONTESTPOLL?SHADE
00DDAFH   00DDDBH   00002DH   BYTE   UNIT     CODE/B2        ?PR?DIAG_PROTOCOL_INIT?DIAG_PROTOCOL
00DDDCH   00DE38H   00005DH   BYTE   UNIT     CODE/B2        ?PR?_TRANSPORT_APPLICATIONCOMMANDHANDLER?ZW_TRANSPORTENDPO
                                                             -INT
00DE39H   00DE40H   000008H   BYTE   UNIT     CODE/B2        ?L?COM062B
00DE41H   00DE46H   000006H   BYTE   UNIT     CODE/B2        ?L?COM0539
00DE47H   00DE4EH   000008H   BYTE   UNIT     CODE/B2        ?L?COM062C
00DE4FH   00DEB2H   000064H   BYTE   UNIT     CODE/B2        ?PR?_REQUESTBUFFERSUPERVISIONPAYLOADACTIVATE?ZW_TX_MUTEX
00DEB3H   00DEB9H   000007H   BYTE   UNIT     CODE/B2        ?L?COM0537
00DEBAH   00DEBEH   000005H   BYTE   UNIT     CODE/B2        ?PR?_COMMANDCLASSSUPERVISIONGETGETPAYLOADLENGTH?COMMANDCLA
                                                             -SSSUPERVISION
00DEBFH   00DECBH   00000DH   BYTE   UNIT     CODE/B2        ?PR?MUTEX_INIT?ZW_TX_MUTEX
00DECCH   00DED1H   000006H   BYTE   UNIT     CODE/B2        ?PR?_ZCB_CALLBACK_WRAPPER?ZW_TRANSPORTMULTICAST
00DED2H   00DED8H   000007H   BYTE   UNIT     CODE/B2        ?L?COM0612
00DED9H   00DEF5H   00001DH   BYTE   UNIT     CODE/B2        ?PR?_REQUESTBUFFERSETPAYLOADLENGTH?ZW_TX_MUTEX
00DEF6H   00DEFDH   000008H   BYTE   UNIT     CODE/B2        ?PR?ZW_TRANSPORTMULTICAST_CLEARTIMEOUT?ZW_TRANSPORTMULTICA
                                                             -ST
00DEFEH   00DF0AH   00000DH   BYTE   UNIT     CODE/B2        ?PR?_MUTEXSET?ZW_TX_MUTEX
00DF0BH   00DF17H   00000DH   BYTE   UNIT     CODE/B2        ?PR?_COMMANDCLASSSUPERVISIONGETSETPAYLOADLENGTH?COMMANDCLA
                                                             -SSSUPERVISION
00DF18H   00DF1FH   000008H   BYTE   UNIT     CODE/B2        ?L?COM062A
00DF20H   00DF2CH   00000DH   BYTE   UNIT     CODE/B2        ?PR?_ZCB_RESPONSECOMPLETED?ZW_TRANSPORTENDPOINT
00DF2DH   00DF35H   000009H   BYTE   UNIT     CODE/B2        ?L?COM02D7
00DF36H   00DF53H   00001EH   BYTE   UNIT     CODE/B2        ?PR?_ZCB_REQUESTCOMPLETED?ZW_TRANSPORTENDPOINT
00DF54H   00DF62H   00000FH   BYTE   UNIT     CODE/B2        ?PR?STATUSREGCLEAR?SHADEFUNCTIONS
00DF63H   00DF85H   000023H   BYTE   UNIT     CODE/B2        ?PR?_ZCB_REQUESTJOBSTATUS?ZW_TX_MUTEX
00DF86H   00DFD8H   000053H   BYTE   UNIT     CODE/B2        ?PR?LED_COUNT_NEXT?SHADE
00DFD9H   00DFD9H   000001H   BYTE   UNIT     CODE/B2        ?PR?_APPLICATIONRFNOTIFY?SHADE
00DFDAH   00E005H   00002CH   BYTE   UNIT     CODE/B2        ?PR?_DUPLICATEFRAME?SHADE
00E006H   00E073H   00006EH   BYTE   UNIT     CODE/B2        ?PR?_CC_VERSION_GETCOMMANDCLASSVERSION_HANDLER?SHADE
00E074H   00E079H   000006H   BYTE   UNIT     CODE/B2        ?PR?GETMYNODEID?SHADE
00E07AH   00E07EH   000005H   BYTE   UNIT     CODE/B2        ?PR?_ZCB_OTAFINISH?SHADE
00E07FH   00E085H   000007H   BYTE   UNIT     CODE/B2        ?PR?ZCB_OTASTART?SHADE
00E086H   00E0E2H   00005DH   BYTE   UNIT     CODE/B2        ?PR?_HANDLESTARTCHANGECMD?SHADE
00E0E3H   00E129H   000047H   BYTE   UNIT     CODE/B2        ?PR?GETBATTERY?SHADEFUNCTIONS
00E12AH   00E131H   000008H   BYTE   UNIT     CODE/B2        ?L?COM0639
00E132H   00E1AEH   00007DH   BYTE   UNIT     CODE/B2        ?PR?GETMOTORVERSION?SHADEFUNCTIONS
00E1AFH   00E1CFH   000021H   BYTE   UNIT     CODE/B2        ?PR?GETUPPERLIMIT?SHADEFUNCTIONS
00E1D0H   00E1DFH   000010H   BYTE   UNIT     CODE/B2        ?L?COM041D
00E1E0H   00E200H   000021H   BYTE   UNIT     CODE/B2        ?PR?GETLOWERLIMIT?SHADEFUNCTIONS
LX51 LINKER/LOCATER V4.66.41.0                                                        08/02/2018  17:16:59  PAGE 24


00E201H   00E208H   000008H   BYTE   UNIT     CODE/B2        ?PR?FACTORYLIMITS?SHADEFUNCTIONS
00E209H   00E210H   000008H   BYTE   UNIT     CODE/B2        ?PR?SETUPPERLIMIT?SHADEFUNCTIONS
00E211H   00E218H   000008H   BYTE   UNIT     CODE/B2        ?PR?SETLOWERLIMIT?SHADEFUNCTIONS
00E219H   00E223H   00000BH   BYTE   UNIT     CODE/B2        ?PR?DIAG_PROTOCOL_ENABLED?DIAG_PROTOCOL
00E224H   00E230H   00000DH   BYTE   UNIT     CODE/B2        ?PR?_HANDLEGETMAXNODESINGROUP?ASSOCIATION_PLUS
00E231H   00E24BH   00001BH   BYTE   UNIT     CODE/B2        ?PR?ASSOCIATIONINITENDPOINTSUPPORT?ASSOCIATION_PLUS
00E24CH   00E273H   000028H   BYTE   UNIT     CODE/B2        ?PR?_ZCB_RESPONSEJOBSTATUS?ZW_TX_MUTEX
00E274H   00E2A9H   000036H   BYTE   UNIT     CODE/B2        ?PR?_REQNODELISTTXOPTIONS?AGI
00E2AAH   00E2B8H   00000FH   BYTE   UNIT     CODE/B2        ?L?COM03E2
00E2B9H   00E2F0H   000038H   BYTE   UNIT     CODE/B2        ?PR?SEARCHCMDCLASS?AGI
00E2F1H   00E372H   000082H   BYTE   UNIT     CODE/B2        ?PR?SEARCHPROFILE?AGI
00E373H   00E37AH   000008H   BYTE   UNIT     CODE/B2        ?L?COM0618
00E37BH   00E390H   000016H   BYTE   UNIT     CODE/B2        ?PR?_CC_VERSION_SETHOSTINTERFACEVERSIONINFO?COMMANDCLASSVE
                                                             -RSION
00E391H   00E3A6H   000016H   BYTE   UNIT     CODE/B2        ?PR?_CC_VERSION_SETAPPLICATIONVERSIONINFO?COMMANDCLASSVERS
                                                             -ION
00E3A7H   00E3D0H   00002AH   BYTE   UNIT     CODE/B2        ?PR?_ZCB_AGIREPORT?COMMANDCLASSASSOCIATIONGROUPINFO
00E3D1H   00E3DDH   00000DH   BYTE   UNIT     CODE/B2        ?PR?MANUFACTURERSPECIFICDEVICEIDINIT?COMMANDCLASSMANUFACTU
                                                             -RERSPECIFIC
00E3DEH   00E424H   000047H   BYTE   UNIT     CODE/B2        ?PR?_CMDCLASSBASICREPORTSEND?COMMANDCLASSBASIC
00E425H   00E441H   00001DH   BYTE   UNIT     CODE/B2        ?PR?_OTAINIT?OTA_UTIL
00E442H   00E44EH   00000DH   BYTE   UNIT     CODE/B2        ?L?COM04A6
00E44FH   00E463H   000015H   BYTE   UNIT     CODE/B2        ?PR?ZCB_UPDATESTATUSSUCCESS?OTA_UTIL
00E464H   00E48DH   00002AH   BYTE   UNIT     CODE/B2        ?PR?OTAHOSTFWU_STATUS?OTA_UTIL
00E48EH   00E495H   000008H   BYTE   UNIT     CODE/B2        ?PR?TIMERCANCELHOSTRESPONSE?OTA_UTIL
00E496H   00E4BFH   00002AH   BYTE   UNIT     CODE/B2        ?PR?OTAHOSTFWU_WRITEFINISH?OTA_UTIL
00E4C0H   00E4C8H   000009H   BYTE   UNIT     CODE/B2        ?L?COM05C6
00E4C9H   00E4DCH   000014H   BYTE   UNIT     CODE/B2        ?PR?_ZCB_CMDCLASSFWUPDATEMDREQREPORT?OTA_UTIL
00E4DDH   00E50AH   00002EH   BYTE   UNIT     CODE/B2        ?PR?TIMERSTARTFWUPDATEFRAMEGET?OTA_UTIL
00E50BH   00E50FH   000005H   BYTE   UNIT     CODE/B2        ?PR?ZCB_TIMERTIMEOUTHOSTRESPONSE?OTA_UTIL
00E510H   00E53BH   00002CH   BYTE   UNIT     CODE/B2        ?PR?_TRANSPORT_ADDENDPOINTSUPPORT?ZW_TRANSPORTENDPOINT
00E53CH   00E561H   000026H   BYTE   UNIT     CODE/B2        ?PR?_TRANSPORT_SETUPAGGREGATIONGROUPS?ZW_TRANSPORTENDPOINT
00E562H   00E56EH   00000DH   BYTE   UNIT     CODE/B2        ?PR?_CONVERTENUMKEYTOBITKEY?ZW_TRANSPORTENDPOINT
00E56FH   00E5A6H   000038H   BYTE   UNIT     CODE/B2        ?PR?_GETENDPOINTDEVICECLASS?ZW_TRANSPORTENDPOINT
00E5A7H   00E631H   00008BH   BYTE   UNIT     CODE/B2        ?PR?_FINDENDPOINTS?ZW_TRANSPORTENDPOINT
00E632H   00E69CH   00006BH   BYTE   UNIT     CODE/B2        ?PR?_READAGGREGATEDENDPOINTGROUP?ZW_TRANSPORTENDPOINT
00E69DH   00E6A9H   00000DH   BYTE   UNIT     CODE/B2        ?L?COM035A
00E6AAH   00E6B2H   000009H   BYTE   UNIT     CODE/B2        ?PR?SETFLAGSUPERVISIONENCAP?ZW_TRANSPORTENDPOINT
00E6B3H   00E6CBH   000019H   BYTE   UNIT     CODE/B2        ?PR?_FINDENDPOINTID?ENDPOINT_LOOKUP
00E6CCH   00E6D0H   000005H   BYTE   UNIT     CODE/B2        ?PR?_GETENDPOINTCOUNT?ENDPOINT_LOOKUP
00E6D1H   00E6FDH   00002DH   BYTE   UNIT     CODE/B2        ?PR?_FINDENDPOINTINDEX?ENDPOINT_LOOKUP
00E6FEH   00E6FFH   000002H   BYTE   UNIT     CODE/B2        ?PR?_TRANSPORT_ONAPPLICATIONINITHW?ZW_TRANSPORTSECPROTOCOL
00E700H   00E709H   00000AH   BYTE   UNIT     CODE/B2        ?PR?ZAF_PM_KEEPAWAKECANCEL?ZAF_PM
00E70AH   00E710H   000007H   BYTE   UNIT     CODE/B2        ?PR?ZCB_TIMER_CALLBACK?ZAF_PM
00E711H   00E735H   000025H   BYTE   UNIT     CODE/B2        ?PR?_SETDEFAULTBATTERYCONFIGURATION?ZAF_PM
00E736H   00E745H   000010H   BYTE   UNIT     CODE/B2        ?PR?HANDLEWAKEUPINTERVALGET?ZAF_PM
00E746H   00E750H   00000BH   BYTE   UNIT     CODE/B2        ?L?COM02D9
00E751H   00E75AH   00000AH   BYTE   UNIT     CODE/B2        ?PR?ZAF_PM_ISACTIVE?ZAF_PM
00E75BH   00E75DH   000003H   BYTE   UNIT     CODE/B2        ?PR?ZAF_PM_WAKEUPISACTIVE?ZAF_PM
00E75EH   00E760H   000003H   BYTE   UNIT     CODE/B2        ?PR?ZAF_PM_DEACTIVATECCWAKEUP?ZAF_PM
00E761H   00E775H   000015H   BYTE   UNIT     CODE/B2        ?PR?_COMMANDCLASSSUPERVISIONINIT?COMMANDCLASSSUPERVISION
00E776H   00E7A0H   00002BH   BYTE   UNIT     CODE/B2        ?L?COM00C3
00E7A1H   00E7AAH   00000AH   BYTE   UNIT     CODE/B2        ?L?COM019A
00E7ABH   00E7B8H   00000EH   BYTE   UNIT     CODE/B2        ?L?COM01DD
00E7B9H   00E7CAH   000012H   BYTE   UNIT     CODE/B2        ?L?COM02A2
00E7CBH   00E7DAH   000010H   BYTE   UNIT     CODE/B2        ?L?COM02DE
00E7DBH   00E7E8H   00000EH   BYTE   UNIT     CODE/B2        ?L?COM0316
00E7E9H   00E7F6H   00000EH   BYTE   UNIT     CODE/B2        ?L?COM0375
00E7F7H   00E808H   000012H   BYTE   UNIT     CODE/B2        ?L?COM03C6
00E809H   00E819H   000011H   BYTE   UNIT     CODE/B2        ?L?COM03E3
00E81AH   00E829H   000010H   BYTE   UNIT     CODE/B2        ?L?COM041A
00E82AH   00E837H   00000EH   BYTE   UNIT     CODE/B2        ?L?COM0434
00E838H   00E846H   00000FH   BYTE   UNIT     CODE/B2        ?L?COM043B
00E847H   00E853H   00000DH   BYTE   UNIT     CODE/B2        ?L?COM046B
00E854H   00E861H   00000EH   BYTE   UNIT     CODE/B2        ?L?COM046D
LX51 LINKER/LOCATER V4.66.41.0                                                        08/02/2018  17:16:59  PAGE 25


00E862H   00E86FH   00000EH   BYTE   UNIT     CODE/B2        ?L?COM046E
00E870H   00E87DH   00000EH   BYTE   UNIT     CODE/B2        ?L?COM046F
00E87EH   00E887H   00000AH   BYTE   UNIT     CODE/B2        ?L?COM0483
00E888H   00E893H   00000CH   BYTE   UNIT     CODE/B2        ?L?COM04A3
00E894H   00E8A0H   00000DH   BYTE   UNIT     CODE/B2        ?L?COM04AC
00E8A1H   00E8ABH   00000BH   BYTE   UNIT     CODE/B2        ?L?COM04D5
00E8ACH   00E8B7H   00000CH   BYTE   UNIT     CODE/B2        ?L?COM04D8
00E8B8H   00E8C3H   00000CH   BYTE   UNIT     CODE/B2        ?L?COM04E0
00E8C4H   00E8CFH   00000CH   BYTE   UNIT     CODE/B2        ?L?COM04E1
00E8D0H   00E8DBH   00000CH   BYTE   UNIT     CODE/B2        ?L?COM04E2
00E8DCH   00E8E3H   000008H   BYTE   UNIT     CODE/B2        ?L?COM04E7
00E8E4H   00E8EEH   00000BH   BYTE   UNIT     CODE/B2        ?L?COM0508
00E8EFH   00E8F8H   00000AH   BYTE   UNIT     CODE/B2        ?L?COM050A
00E8F9H   00E903H   00000BH   BYTE   UNIT     CODE/B2        ?L?COM0511
00E904H   00E90EH   00000BH   BYTE   UNIT     CODE/B2        ?L?COM0512
00E90FH   00E919H   00000BH   BYTE   UNIT     CODE/B2        ?L?COM0518
00E91AH   00E923H   00000AH   BYTE   UNIT     CODE/B2        ?L?COM0553
00E924H   00E92DH   00000AH   BYTE   UNIT     CODE/B2        ?L?COM0568
00E92EH   00E937H   00000AH   BYTE   UNIT     CODE/B2        ?L?COM056A
00E938H   00E93EH   000007H   BYTE   UNIT     CODE/B2        ?L?COM056B
00E93FH   00E948H   00000AH   BYTE   UNIT     CODE/B2        ?L?COM056E
00E949H   00E951H   000009H   BYTE   UNIT     CODE/B2        ?L?COM05C8
00E952H   00E95AH   000009H   BYTE   UNIT     CODE/B2        ?L?COM05CF
00E95BH   00E963H   000009H   BYTE   UNIT     CODE/B2        ?L?COM05D1
00E964H   00E96BH   000008H   BYTE   UNIT     CODE/B2        ?L?COM0632
00E96CH   00E973H   000008H   BYTE   UNIT     CODE/B2        ?L?COM0633
00E974H   00E97BH   000008H   BYTE   UNIT     CODE/B2        ?L?COM0635
00E97CH   00E983H   000008H   BYTE   UNIT     CODE/B2        ?L?COM0636
00E984H   00E98BH   000008H   BYTE   UNIT     CODE/B2        ?L?COM063F
00E98CH   00E98CH   000001H   BYTE   UNIT     CONST/B2       ?CO?ZW_FIRMWARE_BANK2_MARK

***   CODE BANK 3   ***
008000H   008008H   000009H   BYTE   UNIT     CODE/B3        ?PR?_FE25519_CMOV?FE25519
008009H   00800FH   000007H   BYTE   UNIT     CODE/B3        ?PR?_MEMORYPUTBYTE?ZW_MEM
008010H   008012H   000003H   BYTE   UNIT     CODE/B3        ?PR?_MEMORYGETBYTE?ZW_MEM
008013H   008028H   000016H   BYTE   UNIT     CODE/B3        ?PR?___ZW_MEMSET?ZW_MEM
008029H   008033H   00000BH   BYTE   UNIT     CODE/B3        ?PR?_MEMORYGETBUFFER?ZW_MEM
008034H   0080CAH   000097H   BYTE   UNIT     CODE/B3        ?PR?_TRANSPORTTIMERSTART?ZW_TRANSPORT_TIMER
0080CBH   0080D5H   00000BH   BYTE   UNIT     CODE/B3        ?PR?TRANSPORTTIMERCANCEL?ZW_TRANSPORT_TIMER
0080D6H   008107H   000032H   BYTE   UNIT     CODE/B3        ?PR?___ZW_MEMCPY?ZW_MEM
008108H   0081EDH   0000E6H   BYTE   UNIT     CODE/B3        ?PR?_EXPLOREQUEUEFRAME?ZW_EXPLORE
0081EEH   00856FH   000382H   BYTE   UNIT     CODE/B3        ?PR?_ISMYEXPLOREFRAME?ZW_EXPLORE
008570H   008579H   00000AH   BYTE   UNIT     CODE/B3        ?L?COM002E
00857AH   0085A1H   000028H   BYTE   UNIT     CODE/B3        ?PR?_MEMORYPUTBUFFER?ZW_MEM_API
0085A2H   0085AAH   000009H   BYTE   UNIT     CODE/B3        ?L?COM005F
0085ABH   0085B0H   000006H   BYTE   UNIT     CODE/B3        ?L?COM048D
0085B1H   0085B7H   000007H   BYTE   UNIT     CODE/B3        ?L?COM049E
0085B8H   0085B8H   000001H   BYTE   UNIT     CODE/B3        ?PR?NOISEDETECTSETDEFAULT?ZW_NOISE_DETECT
0085B9H   008625H   00006DH   BYTE   UNIT     CODE/B3        ?PR?_ZW_CHECKCRC16?ZW_CRC
008626H   00862EH   000009H   BYTE   UNIT     CODE/B3        ?L?COM05E1
00862FH   008686H   000058H   BYTE   UNIT     CODE/B3        ?PR?_ZW_FIRMWAREUPDATE_NVM_WRITE?ZW_FIRMWARE_UPDATE_NVM_WR
                                                             -ITE
008687H   0089E3H   00035DH   BYTE   UNIT     CODE/B3        ?PR?___S2_FSM_POST_EVENT?S2
0089E4H   008A2BH   000048H   BYTE   UNIT     CODE/B3        ?PR?_ZW_AES_ECB?ZW_PHY_AES_050X
008A2CH   008B09H   0000DEH   BYTE   UNIT     CODE/B3        ?PR?_?TX_SESSION_STATE_SET?ZW_SECURITY_SCHEME0
008B0AH   008DBCH   0002B3H   BYTE   UNIT     CODE/B3        ?PR?__S2_ENCRYPT_AND_SEND?S2
008DBDH   008E05H   000049H   BYTE   UNIT     CODE/B3        ?PR?___S2_SEND_RAW?S2
008E06H   008E0CH   000007H   BYTE   UNIT     CODE/B3        ?L?COM01E3
008E0DH   008E12H   000006H   BYTE   UNIT     CODE/B3        ?L?COM039B
008E13H   0090B8H   0002A6H   BYTE   UNIT     CODE/B3        ?PR?_SEC0_DECRYPT_MESSAGE?ZW_SECURITY_SCHEME0
0090B9H   0090BEH   000006H   BYTE   UNIT     CODE/B3        ?PR?_SECURE_LEARNIFACE_SET_TXOPTIONS?SECURE_LEARN
0090BFH   0090C5H   000007H   BYTE   UNIT     CODE/B3        ?L?COM01BB
0090C6H   00916DH   0000A8H   BYTE   UNIT     CODE/B3        ?PR?_SECURE_LEARN_RUNCYCLE?SECURE_LEARN
00916EH   0091CBH   00005EH   BYTE   UNIT     CODE/B3        ?PR?_CLEARINEVENTS?SECURE_LEARN
0091CCH   0091D1H   000006H   BYTE   UNIT     CODE/B3        ?L?COM01D4
LX51 LINKER/LOCATER V4.66.41.0                                                        08/02/2018  17:16:59  PAGE 26


0091D2H   00928EH   0000BDH   BYTE   UNIT     CODE/B3        ?PR?_SECURE_LEARN_ISACTIVE?SECURE_LEARN
00928FH   0092F8H   00006AH   BYTE   UNIT     CODE/B3        ?PR?SEC0_INIT?ZW_SECURITY_SCHEME0
0092F9H   009363H   00006BH   BYTE   UNIT     CODE/B3        ?PR?_SECURE_LEARN_INIT?SECURE_LEARN
009364H   0093ECH   000089H   BYTE   UNIT     CODE/B3        ?PR?_SEC0_SEND_NONCE?ZW_SECURITY_SCHEME0
0093EDH   0093F4H   000008H   BYTE   UNIT     CODE/B3        ?PR?_SECURE_LEARNIFACE_RAISE_TX_FAIL?SECURE_LEARN
0093F5H   009416H   000022H   BYTE   UNIT     CODE/B3        ?PR?_SECURE_LEARN_ENTER?SECURE_LEARN
009417H   00941CH   000006H   BYTE   UNIT     CODE/B3        ?PR?_SECURE_LEARNIFACE_SET_NET_SCHEME?SECURE_LEARN
00941DH   009424H   000008H   BYTE   UNIT     CODE/B3        ?PR?_SECURE_LEARNIFACE_RAISE_TX_DONE?SECURE_LEARN
009425H   00945AH   000036H   BYTE   UNIT     CODE/B3        ?PR?___ZW_MEMCMP?ZW_MEM
00945BH   009510H   0000B6H   BYTE   UNIT     CODE/B3        ?PR?_ZCB_S2_EVT_HANDLER?ZW_S2_INCLUSION_GLUE
009511H   009515H   000005H   BYTE   UNIT     CODE/B3        ?PR?_SEC0_PERSIST_NETKEY?ZW_SECURITY_SCHEME0
009516H   00951EH   000009H   BYTE   UNIT     CODE/B3        ?L?COM03CE
00951FH   00953EH   000020H   BYTE   UNIT     CODE/B3        ?PR?_ZW_MEMORYPUTBUFFER?ZW_MEM
00953FH   009545H   000007H   BYTE   UNIT     CODE/B3        ?L?COM0583
009546H   009546H   000001H   BYTE   UNIT     CODE/B3        ?PR?_CLEAROUTEVENTS?SECURE_LEARN
009547H   00954DH   000007H   BYTE   UNIT     CODE/B3        ?L?COM0580
00954EH   00954EH   000001H   BYTE   UNIT     CODE/B3        ?PR?_SECURE_LEARN_ENTRYACTION?SECURE_LEARN
00954FH   0095A2H   000054H   BYTE   UNIT     CODE/B3        ?PR?_ZW_NVRGETVALUE?ZW_NVR
0095A3H   0095ACH   00000AH   BYTE   UNIT     CODE/B3        ?L?COM0086
0095ADH   00963EH   000092H   BYTE   UNIT     CODE/B3        ?PR?_SECURE_LEARN_REACT_MAIN_REGION_IDLE?SECURE_LEARN
00963FH   009647H   000009H   BYTE   UNIT     CODE/B3        ?L?COM02EC
009648H   009661H   00001AH   BYTE   UNIT     CODE/B3        ?L?COM0044
009662H   0096D0H   00006FH   BYTE   UNIT     CODE/B3        ?PR?_SECURE_LEARN_EXIT?SECURE_LEARN
0096D1H   0096D1H   000001H   BYTE   UNIT     CODE/B3        ?PR?_SECURE_LEARN_EXITACTION?SECURE_LEARN
0096D2H   0096DCH   00000BH   BYTE   UNIT     CODE/B3        ?L?COM00EC
0096DDH   0096EAH   00000EH   BYTE   UNIT     CODE/B3        ?PR?ZW_GETNVRREVISION?ZW_NVR
0096EBH   00975AH   000070H   BYTE   UNIT     CODE/B3        ?PR?SAMPLENOISELEVEL?ZW_NOISE_DETECT
00975BH   009C47H   0004EDH   BYTE   UNIT     CODE/B3        ?PR?___S2_DECRYPT_MSG?S2
009C48H   009C4DH   000006H   BYTE   UNIT     CODE/B3        ?L?COM01D9
009C4EH   009C59H   00000CH   BYTE   UNIT     CODE/B3        ?L?COM0078
009C5AH   009C63H   00000AH   BYTE   UNIT     CODE/B3        ?L?COM01D5
009C64H   009C85H   000022H   BYTE   UNIT     CODE/B3        ?L?COM0106
009C86H   009D08H   000083H   BYTE   UNIT     CODE/B3        ?PR?SEND_LAST_FRAG?TRANSPORT_SERVICE2
009D09H   009D27H   00001FH   BYTE   UNIT     CODE/B3        ?PR?_T2_SM_POST_EVENT?TRANSPORT2_FSM
009D28H   00A045H   00031EH   BYTE   UNIT     CODE/B3        ?PR?RECEIVE?TRANSPORT_SERVICE2
00A046H   00A0EBH   0000A6H   BYTE   UNIT     CODE/B3        ?PR?SEND_FRAG_REQ_CMD?TRANSPORT_SERVICE2
00A0ECH   00A0F3H   000008H   BYTE   UNIT     CODE/B3        ?L?COM05C2
00A0F4H   00A0FCH   000009H   BYTE   UNIT     CODE/B3        ?L?COM040B
00A0FDH   00A114H   000018H   BYTE   UNIT     CODE/B3        ?L?COM009D
00A115H   00A172H   00005EH   BYTE   UNIT     CODE/B3        ?PR?_ZCB_FC_TIMER_EXPIRED?TRANSPORT_SERVICE2
00A173H   00A17DH   00000BH   BYTE   UNIT     CODE/B3        ?L?COM0163
00A17EH   00A186H   000009H   BYTE   UNIT     CODE/B3        ?L?COM03B3
00A187H   00A1A9H   000023H   BYTE   UNIT     CODE/B3        ?PR?_ZCB_NONCE_TIMER_TIMEOUT?ZW_SECURITY_SCHEME0
00A1AAH   00A1CFH   000026H   BYTE   UNIT     CODE/B3        ?PR?_MEMORYGETID?ZW_MEM
00A1D0H   00A253H   000084H   BYTE   UNIT     CODE/B3        ?PR?_ZCB_TS_SENDDATA_CB?TRANSPORT_SERVICE2
00A254H   00A268H   000015H   BYTE   UNIT     CODE/B3        ?L?COM0041
00A269H   00A278H   000010H   BYTE   UNIT     CODE/B3        ?PR?GENERATENIF?ZW_EXPLORE_INCL_REQ
00A279H   00A2A4H   00002CH   BYTE   UNIT     CODE/B3        ?PR?ZW_EXPLOREREQUESTEXCLUSION?ZW_EXPLORE_EXCL_REQ
00A2A5H   00A2E2H   00003EH   BYTE   UNIT     CODE/B3        ?PR?_FE25519_PACK?FE25519
00A2E3H   00A364H   000082H   BYTE   UNIT     CODE/B3        ?PR?_ZW_FIRMWAREUPDATE_NVM_UPDATECRC16?ZW_FIRMWARE_UPDATE_
                                                             -NVM
00A365H   00A36DH   000009H   BYTE   UNIT     CODE/B3        ?L?COM05DF
00A36EH   00A374H   000007H   BYTE   UNIT     CODE/B3        ?L?COM0650
00A375H   00A37EH   00000AH   BYTE   UNIT     CODE/B3        ?L?COM0575
00A37FH   00A389H   00000BH   BYTE   UNIT     CODE/B3        ?L?COM0521
00A38AH   00A3C2H   000039H   BYTE   UNIT     CODE/B3        ?PR?_ZW_FIRMWAREUPDATE_NVM_SET_NEWIMAGE?ZW_FIRMWARE_UPDATE
                                                             -_NVM
00A3C3H   00A466H   0000A4H   BYTE   UNIT     CODE/B3        ?PR?CHECK_COMPRESSED_CRC?OTZ_CHECK_COMPRESSED_CRC
00A467H   00A46CH   000006H   BYTE   UNIT     CODE/B3        ?L?COM0350
00A46DH   00A472H   000006H   BYTE   UNIT     CODE/B3        ?L?COM0491
00A473H   00A532H   0000C0H   BYTE   UNIT     CODE/B3        ?PR?_SECURE_LEARN_REACT_MAIN_REGION_LEARNMODE_R1_START?SEC
                                                             -URE_LEARN
00A533H   00A53DH   00000BH   BYTE   UNIT     CODE/B3        ?L?COM02B8
00A53EH   00A543H   000006H   BYTE   UNIT     CODE/B3        ?L?COM048E
00A544H   00A54CH   000009H   BYTE   UNIT     CODE/B3        ?L?COM01B9
LX51 LINKER/LOCATER V4.66.41.0                                                        08/02/2018  17:16:59  PAGE 27


00A54DH   00A558H   00000CH   BYTE   UNIT     CODE/B3        ?L?COM03BD
00A559H   00A5D5H   00007DH   BYTE   UNIT     CODE/B3        ?PR?SEND_FRAG_COMPLETE_CMD?TRANSPORT_SERVICE2
00A5D6H   00A5EBH   000016H   BYTE   UNIT     CODE/B3        ?L?COM018A
00A5ECH   00A607H   00001CH   BYTE   UNIT     CODE/B3        ?PR?ZW_FIRMWAREUPDATE_NVM_ISVALIDCRC16?ZW_FIRMWARE_UPDATE_
                                                             -NVM
00A608H   00A659H   000052H   BYTE   UNIT     CODE/B3        ?PR?SEND_FRAG_WAIT_CMD?TRANSPORT_SERVICE2
00A65AH   00A67AH   000021H   BYTE   UNIT     CODE/B3        ?L?COM0151
00A67BH   00A695H   00001BH   BYTE   UNIT     CODE/B3        ?L?COM01E1
00A696H   00A6A3H   00000EH   BYTE   UNIT     CODE/B3        ?L?COM00F5
00A6A4H   00A6ADH   00000AH   BYTE   UNIT     CODE/B3        ?L?COM0572
00A6AEH   00A6AFH   000002H   BYTE   UNIT     CODE/B3        ?PR?_SECURE_LEARNIFACE_GET_NODE?SECURE_LEARN
00A6B0H   00A765H   0000B6H   BYTE   UNIT     CODE/B3        ?PR?_SECURE_LEARN_REACT_MAIN_REGION_LEARNMODE_R1_NEWKEY?SE
                                                             -CURE_LEARN
00A766H   00A84DH   0000E8H   BYTE   UNIT     CODE/B3        ?PR?_REPLY_FRAG_REQ?TRANSPORT_SERVICE2
00A84EH   00A94FH   000102H   BYTE   UNIT     CODE/B3        ?PR?_SECURE_LEARN_REACT_MAIN_REGION_LEARNMODE_R1_SCHEME_RE
                                                             -PORT?SECURE_LEARN
00A950H   00A957H   000008H   BYTE   UNIT     CODE/B3        ?L?COM064D
00A958H   00A978H   000021H   BYTE   UNIT     CODE/B3        ?L?COM0113
00A979H   00A986H   00000EH   BYTE   UNIT     CODE/B3        ?L?COM0315
00A987H   00A98CH   000006H   BYTE   UNIT     CODE/B3        ?L?COM04B5
00A98DH   00A9A0H   000014H   BYTE   UNIT     CODE/B3        ?L?COM01A5
00A9A1H   00AA41H   0000A1H   BYTE   UNIT     CODE/B3        ?PR?_SECURE_LEARN_REACT_MAIN_REGION_LEARNMODE_R1_EARLYSTAR
                                                             -T?SECURE_LEARN
00AA42H   00AA47H   000006H   BYTE   UNIT     CODE/B3        ?L?COM053E
00AA48H   00AA52H   00000BH   BYTE   UNIT     CODE/B3        ?L?COM0235
00AA53H   00AA5EH   00000CH   BYTE   UNIT     CODE/B3        ?L?COM040D
00AA5FH   00AA8BH   00002DH   BYTE   UNIT     CODE/B3        ?PR?_ZW_NODEMASKGETNEXTNODE?ZW_NODEMASK
00AA8CH   00AB0BH   000080H   BYTE   UNIT     CODE/B3        ?PR?_SECURE_LEARN_REACT_MAIN_REGION_LEARNMODE_R1_END?SECUR
                                                             -E_LEARN
00AB0CH   00ABB5H   0000AAH   BYTE   UNIT     CODE/B3        ?PR?_ZW_SENDCONST?ZW_TRANSPORT_SUPPORT
00ABB6H   00ABBBH   000006H   BYTE   UNIT     CODE/B3        ?L?COM0588
00ABBCH   00ABF5H   00003AH   BYTE   UNIT     CODE/B3        ?PR?_SECURE_LEARN_RAISETIMEEVENT?SECURE_LEARN
00ABF6H   00ABFDH   000008H   BYTE   UNIT     CODE/B3        ?L?COM064E
00ABFEH   00AC0BH   00000EH   BYTE   UNIT     CODE/B3        ?L?COM02F7
00AC0CH   00AC11H   000006H   BYTE   UNIT     CODE/B3        ?PR?_SECURE_LEARNIFACE_GET_NET_SCHEME?SECURE_LEARN
00AC12H   00AC5FH   00004EH   BYTE   UNIT     CODE/B3        ?PR?SEC0_UNPERSIST_NETKEY?ZW_SECURITY_SCHEME0
00AC60H   00AC86H   000027H   BYTE   UNIT     CODE/B3        ?PR?_AES_ENCRYPT?ZW_SECURITY_SCHEME0
00AC87H   00AC8DH   000007H   BYTE   UNIT     CODE/B3        ?L?COM031A
00AC8EH   00AC97H   00000AH   BYTE   UNIT     CODE/B3        ?L?COM02E5
00AC98H   00ACB0H   000019H   BYTE   UNIT     CODE/B3        ?PR?_SECURE_LEARN_REACT_MAIN_REGION_SENDREPORT?SECURE_LEAR
                                                             -N
00ACB1H   00ACB9H   000009H   BYTE   UNIT     CODE/B3        ?L?COM035F
00ACBAH   00ACE8H   00002FH   BYTE   UNIT     CODE/B3        ?PR?_SECURE_LEARN_REACT_MAIN_REGION_LEARNMODE_R1_INHERITED
                                                             -?SECURE_LEARN
00ACE9H   00AD48H   000060H   BYTE   UNIT     CODE/B3        ?PR?___S2_NETWORK_KEY_UPDATE?S2
00AD49H   00ADB9H   000071H   BYTE   UNIT     CODE/B3        ?PR?_AES_CBC_MAC?ZW_SECURITY_SCHEME0
00ADBAH   00ADBFH   000006H   BYTE   UNIT     CODE/B3        ?L?COM0534
00ADC0H   00ADD0H   000011H   BYTE   UNIT     CODE/B3        ?L?COM03CC
00ADD1H   00ADECH   00001CH   BYTE   UNIT     CODE/B3        ?L?COM02B4
00ADEDH   00ADF2H   000006H   BYTE   UNIT     CODE/B3        ?L?COM0559
00ADF3H   00AE01H   00000FH   BYTE   UNIT     CODE/B3        ?L?COM016A
00AE02H   00AE08H   000007H   BYTE   UNIT     CODE/B3        ?L?COM0533
00AE09H   00AE12H   00000AH   BYTE   UNIT     CODE/B3        ?L?COM0335
00AE13H   00AE25H   000013H   BYTE   UNIT     CODE/B3        ?PR?_FE25519_SETONE?FE25519
00AE26H   00AE32H   00000DH   BYTE   UNIT     CODE/B3        ?PR?_FE25519_SETZERO?FE25519
00AE33H   00AF29H   0000F7H   BYTE   UNIT     CODE/B3        ?PR?___FIND_MPAN_BY_GROUP_ID?S2
00AF2AH   00AF3BH   000012H   BYTE   UNIT     CODE/B3        ?L?COM019F
00AF3CH   00AF43H   000008H   BYTE   UNIT     CODE/B3        ?L?COM0410
00AF44H   00AF4BH   000008H   BYTE   UNIT     CODE/B3        ?L?COM0649
00AF4CH   00AF64H   000019H   BYTE   UNIT     CODE/B3        ?PR?_FE25519_SQUARE?FE25519
00AF65H   00B0DDH   000179H   BYTE   UNIT     CODE/B3        ?PR?_FE25519_INVERT?FE25519
00B0DEH   00B1A0H   0000C3H   BYTE   UNIT     CODE/B3        ?PR?_FE25519_MUL?FE25519
00B1A1H   00B1B3H   000013H   BYTE   UNIT     CODE/B3        ?L?COM023B
00B1B4H   00B1C5H   000012H   BYTE   UNIT     CODE/B3        ?L?COM027B
00B1C6H   00B209H   000044H   BYTE   UNIT     CODE/B3        ?PR?_FE25519_SUB?FE25519
LX51 LINKER/LOCATER V4.66.41.0                                                        08/02/2018  17:16:59  PAGE 28


00B20AH   00B241H   000038H   BYTE   UNIT     CODE/B3        ?L?COM0158
00B242H   00B249H   000008H   BYTE   UNIT     CODE/B3        ?L?COM04EA
00B24AH   00B269H   000020H   BYTE   UNIT     CODE/B3        ?L?COM00AB
00B26AH   00B2E7H   00007EH   BYTE   UNIT     CODE/B3        ?PR?_FE25519_ADD?FE25519
00B2E8H   00B311H   00002AH   BYTE   UNIT     CODE/B3        ?L?COM0099
00B312H   00B319H   000008H   BYTE   UNIT     CODE/B3        ?L?COM04EB
00B31AH   00B34FH   000036H   BYTE   UNIT     CODE/B3        ?PR?___S2_VERIFY_SEQ?S2
00B350H   00B35BH   00000CH   BYTE   UNIT     CODE/B3        ?L?COM04E9
00B35CH   00B363H   000008H   BYTE   UNIT     CODE/B3        ?L?COM0640
00B364H   00B36BH   000008H   BYTE   UNIT     CODE/B3        ?L?COM0641
00B36CH   00B37DH   000012H   BYTE   UNIT     CODE/B3        ?PR?TRANSPORTTIMERRESTART?ZW_TRANSPORT_TIMER
00B37EH   00B396H   000019H   BYTE   UNIT     CODE/B3        ?PR?TRANSPORTTIMERPOLL?ZW_TRANSPORT_TIMER
00B397H   00B39CH   000006H   BYTE   UNIT     CODE/B3        ?PR?TRANSPORTTIMERINIT?ZW_TRANSPORT_TIMER
00B39DH   00B39FH   000003H   BYTE   UNIT     CODE/B3        ?PR?EXTMEMORYWRITEBUSY?ZW_MEM
00B3A0H   00B3BDH   00001EH   BYTE   UNIT     CODE/B3        ?PR?_MEMORYPUTID?ZW_MEM
00B3BEH   00B3C0H   000003H   BYTE   UNIT     CODE/B3        ?PR?MEMORYGETSTATUS?ZW_MEM
00B3C1H   00B3C3H   000003H   BYTE   UNIT     CODE/B3        ?PR?MEMORYCLEARSTATUS?ZW_MEM
00B3C4H   00B3D1H   00000EH   BYTE   UNIT     CODE/B3        ?L?COM0466
00B3D2H   00B3D8H   000007H   BYTE   UNIT     CODE/B3        ?L?COM0496
00B3D9H   00B408H   000030H   BYTE   UNIT     CODE/B3        ?PR?_ZW_EEPROMINIT?ZW_MEM_SUPPORT
00B409H   00B4A4H   00009CH   BYTE   UNIT     CODE/B3        ?PR?___S2_REGISTER_NONCE?S2
00B4A5H   00B5ABH   000107H   BYTE   UNIT     CODE/B3        ?PR?___FIND_SPAN_BY_NODE?S2
00B5ACH   00B5B8H   00000DH   BYTE   UNIT     CODE/B3        ?L?COM0337
00B5B9H   00B5C2H   00000AH   BYTE   UNIT     CODE/B3        ?L?COM01AD
00B5C3H   00B6F5H   000133H   BYTE   UNIT     CODE/B3        ?PR?__S2_ENCRYPT_AND_SEND_MULTI?S2
00B6F6H   00B6FBH   000006H   BYTE   UNIT     CODE/B3        ?L?COM04B3
00B6FCH   00B703H   000008H   BYTE   UNIT     CODE/B3        ?L?COM02A6
00B704H   00B70AH   000007H   BYTE   UNIT     CODE/B3        ?L?COM051D
00B70BH   00B712H   000008H   BYTE   UNIT     CODE/B3        ?L?COM0648
00B713H   00B71DH   00000BH   BYTE   UNIT     CODE/B3        ?PR?GP_TIMEOUT?ZW_TRANSPORT_SUPPORT
00B71EH   00B72AH   00000DH   BYTE   UNIT     CODE/B3        ?L?COM0362
00B72BH   00B746H   00001CH   BYTE   UNIT     CODE/B3        ?PR?__S2_SEND_NONCE_GET?S2
00B747H   00B783H   00003DH   BYTE   UNIT     CODE/B3        ?PR?_START_GP_TIMER?ZW_TRANSPORT_SUPPORT
00B784H   00B7BEH   00003BH   BYTE   UNIT     CODE/B3        ?PR?SENDPRODTESTCARRIER?ZW_TRANSPORT_SUPPORT
00B7BFH   00B7FAH   00003CH   BYTE   UNIT     CODE/B3        ?PR?___S2_SPAN_OK?S2
00B7FBH   00B80EH   000014H   BYTE   UNIT     CODE/B3        ?PR?_ZW_NODEMASKSETBIT?ZW_NODEMASK
00B80FH   00B821H   000013H   BYTE   UNIT     CODE/B3        ?PR?_ZW_NODEMASKCLEARBIT?ZW_NODEMASK
00B822H   00B829H   000008H   BYTE   UNIT     CODE/B3        ?L?COM04EF
00B82AH   00B839H   000010H   BYTE   UNIT     CODE/B3        ?PR?_ZW_NODEMASKCLEAR?ZW_NODEMASK
00B83AH   00B854H   00001BH   BYTE   UNIT     CODE/B3        ?PR?_ZW_NODEMASKBITSIN?ZW_NODEMASK
00B855H   00B85FH   00000BH   BYTE   UNIT     CODE/B3        ?L?COM045E
00B860H   00B879H   00001AH   BYTE   UNIT     CODE/B3        ?PR?_ZW_NODEMASKNODEIN?ZW_NODEMASK
00B87AH   00B8C6H   00004DH   BYTE   UNIT     CODE/B3        ?PR?ZW_NVRCHECK?ZW_NVR
00B8C7H   00B8CDH   000007H   BYTE   UNIT     CODE/B3        ?PR?ZW_ISNVRVALID?ZW_NVR
00B8CEH   00B8E2H   000015H   BYTE   UNIT     CODE/B3        ?PR?_ZW_CREATECRC16?ZW_CRC
00B8E3H   00B915H   000033H   BYTE   UNIT     CODE/B3        ?PR?_EVENTPUSH?ZW_EVENT
00B916H   00B91DH   000008H   BYTE   UNIT     CODE/B3        ?L?COM0627
00B91EH   00B95EH   000041H   BYTE   UNIT     CODE/B3        ?PR?_EVENTPOP?ZW_EVENT
00B95FH   00BA1CH   0000BEH   BYTE   UNIT     CODE/B3        ?PR?EXPLOREMACHINE?ZW_EXPLORE
00BA1DH   00BA23H   000007H   BYTE   UNIT     CODE/B3        ?L?COM00B8
00BA24H   00BA43H   000020H   BYTE   UNIT     CODE/B3        ?PR?_ZCB_EXPLORECOMPLETE?ZW_EXPLORE
00BA44H   00BB02H   0000BFH   BYTE   UNIT     CODE/B3        ?PR?EXPLORESTATETRANSMIT?ZW_EXPLORE
00BB03H   00BB66H   000064H   BYTE   UNIT     CODE/B3        ?PR?EXPLORESTATENEW?ZW_EXPLORE
00BB67H   00BB70H   00000AH   BYTE   UNIT     CODE/B3        ?L?COM018E
00BB71H   00BBA0H   000030H   BYTE   UNIT     CODE/B3        ?PR?EXPLORECHECKDELAYCOUNTTIMEOUT?ZW_EXPLORE
00BBA1H   00BBABH   00000BH   BYTE   UNIT     CODE/B3        ?L?COM0326
00BBACH   00BBB4H   000009H   BYTE   UNIT     CODE/B3        ?L?COM05BA
00BBB5H   00BBCAH   000016H   BYTE   UNIT     CODE/B3        ?PR?EXPLORESTATEDELAYED?ZW_EXPLORE
00BBCBH   00BC4BH   000081H   BYTE   UNIT     CODE/B3        ?PR?EXPLORESTATESEARCH?ZW_EXPLORE
00BC4CH   00BC66H   00001BH   BYTE   UNIT     CODE/B3        ?PR?EXPLORESTATEREPEAT?ZW_EXPLORE
00BC67H   00BC70H   00000AH   BYTE   UNIT     CODE/B3        ?L?COM051B
00BC71H   00BC97H   000027H   BYTE   UNIT     CODE/B3        ?PR?EXPLOREFRAMEIGNORETICK?ZW_EXPLORE
00BC98H   00BC9FH   000008H   BYTE   UNIT     CODE/B3        ?L?COM03D0
00BCA0H   00BCA8H   000009H   BYTE   UNIT     CODE/B3        ?L?COM0364
00BCA9H   00BD04H   00005CH   BYTE   UNIT     CODE/B3        ?PR?_EXPLOREFRAMEIGNOREQUEUEINDEX?ZW_EXPLORE
LX51 LINKER/LOCATER V4.66.41.0                                                        08/02/2018  17:16:59  PAGE 29


00BD05H   00BD12H   00000EH   BYTE   UNIT     CODE/B3        ?PR?EXPLOREQUEUEINDEX?ZW_EXPLORE
00BD13H   00BD1AH   000008H   BYTE   UNIT     CODE/B3        ?L?COM0522
00BD1BH   00BD22H   000008H   BYTE   UNIT     CODE/B3        ?L?COM0652
00BD23H   00BD60H   00003EH   BYTE   UNIT     CODE/B3        ?PR?_EXPLOREFRAMEIGNORECHECK?ZW_EXPLORE
00BD61H   00BDF3H   000093H   BYTE   UNIT     CODE/B3        ?PR?_EXPLOREPURGEQUEUE?ZW_EXPLORE
00BDF4H   00BE03H   000010H   BYTE   UNIT     CODE/B3        ?L?COM031B
00BE04H   00BE0EH   00000BH   BYTE   UNIT     CODE/B3        ?L?COM0525
00BE0FH   00BE1CH   00000EH   BYTE   UNIT     CODE/B3        ?L?COM0475
00BE1DH   00BE67H   00004BH   BYTE   UNIT     CODE/B3        ?PR?_ISNETWORKHOMEIDVALID?ZW_EXPLORE
00BE68H   00BE70H   000009H   BYTE   UNIT     CODE/B3        ?PR?NWISTOPTIMER?ZW_EXPLORE_SUPPORT
00BE71H   00BE7FH   00000FH   BYTE   UNIT     CODE/B3        ?PR?_EXPLORESETNWI?ZW_EXPLORE_SUPPORT
00BE80H   00BE92H   000013H   BYTE   UNIT     CODE/B3        ?PR?_ZW_FLASH_NVR0_GET?ZW_PHY_FLASH_050X
00BE93H   00BE9FH   00000DH   BYTE   UNIT     CODE/B3        ?PR?ZCB_NWITIMEOUT?ZW_EXPLORE_SUPPORT
00BEA0H   00BEC5H   000026H   BYTE   UNIT     CODE/B3        ?PR?NWISTARTTIMER?ZW_EXPLORE_SUPPORT
00BEC6H   00BED7H   000012H   BYTE   UNIT     CODE/B3        ?L?COM03B4
00BED8H   00BF06H   00002FH   BYTE   UNIT     CODE/B3        ?PR?_S2_INCLUSION_SET_TIMEOUT?ZW_S2_INCLUSION_GLUE
00BF07H   00BF13H   00000DH   BYTE   UNIT     CODE/B3        ?PR?_EXPLORESETNWITIMEOUT?ZW_EXPLORE_SUPPORT
00BF14H   00BF4DH   00003AH   BYTE   UNIT     CODE/B3        ?PR?EXPLOREINIF?ZW_EXPLORE_INCL_REQ
00BF4EH   00BF56H   000009H   BYTE   UNIT     CODE/B3        ?L?COM05D9
00BF57H   00BFC9H   000073H   BYTE   UNIT     CODE/B3        ?PR?ZW_EXPLOREREQUESTINCLUSION?ZW_EXPLORE_INCL_REQ
00BFCAH   00C06DH   0000A4H   BYTE   UNIT     CODE/B3        ?PR?ZW_FIRMWAREUPDATE_NVM_INIT?ZW_FIRMWARE_UPDATE_NVM
00C06EH   00C09EH   000031H   BYTE   UNIT     CODE/B3        ?PR?ZW_FIRMWAREUPDATE_NVM_GET_NEWIMAGE?ZW_FIRMWARE_UPDATE_
                                                             -NVM_FLASH
00C09FH   00C0A4H   000006H   BYTE   UNIT     CODE/B3        ?L?COM0586
00C0A5H   00C0BEH   00001AH   BYTE   UNIT     CODE/B3        ?PR?_ZW_GETBACKGROUNDRSSI?ZW_NOISE_DETECT
00C0BFH   00C0C7H   000009H   BYTE   UNIT     CODE/B3        ?PR?_ZW_REGISTERBACKGROUNDRSSICALLBACK?ZW_NOISE_DETECT
00C0C8H   00C0D5H   00000EH   BYTE   UNIT     CODE/B3        ?PR?NOISEDETECTPOWERONINIT?ZW_NOISE_DETECT
00C0D6H   00C0FEH   000029H   BYTE   UNIT     CODE/B3        ?PR?_AES_SET_KEY?ZW_SECURITY_SCHEME0
00C0FFH   00C14DH   00004FH   BYTE   UNIT     CODE/B3        ?PR?_AES_OFB?ZW_SECURITY_SCHEME0
00C14EH   00C2FDH   0001B0H   BYTE   UNIT     CODE/B3        ?PR?_ENCRYPT_MSG?ZW_SECURITY_SCHEME0
00C2FEH   00C303H   000006H   BYTE   UNIT     CODE/B3        ?L?COM0489
00C304H   00C309H   000006H   BYTE   UNIT     CODE/B3        ?L?COM0535
00C30AH   00C32AH   000021H   BYTE   UNIT     CODE/B3        ?PR?_AES_RANDOM8?ZW_SECURITY_SCHEME0
00C32BH   00C3DBH   0000B1H   BYTE   UNIT     CODE/B3        ?PR?_REGISTER_NONCE?ZW_SECURITY_SCHEME0
00C3DCH   00C3E1H   000006H   BYTE   UNIT     CODE/B3        ?L?COM060F
00C3E2H   00C45FH   00007EH   BYTE   UNIT     CODE/B3        ?PR?_GET_NONCE?ZW_SECURITY_SCHEME0
00C460H   00C46EH   00000FH   BYTE   UNIT     CODE/B3        ?L?COM00D3
00C46FH   00C478H   00000AH   BYTE   UNIT     CODE/B3        ?L?COM0125
00C479H   00C486H   00000EH   BYTE   UNIT     CODE/B3        ?L?COM025B
00C487H   00C4A6H   000020H   BYTE   UNIT     CODE/B3        ?PR?_NONCE_CLEAR?ZW_SECURITY_SCHEME0
00C4A7H   00C4B5H   00000FH   BYTE   UNIT     CODE/B3        ?L?COM0241
00C4B6H   00C4BEH   000009H   BYTE   UNIT     CODE/B3        ?L?COM05DE
00C4BFH   00C4CCH   00000EH   BYTE   UNIT     CODE/B3        ?L?COM0474
00C4CDH   00C4D2H   000006H   BYTE   UNIT     CODE/B3        ?L?COM0582
00C4D3H   00C4DBH   000009H   BYTE   UNIT     CODE/B3        ?L?COM05BF
00C4DCH   00C4E4H   000009H   BYTE   UNIT     CODE/B3        ?L?COM05DD
00C4E5H   00C4E9H   000005H   BYTE   UNIT     CODE/B3        ?PR?_ZCB_TX_TIMEOUT?ZW_SECURITY_SCHEME0
00C4EAH   00C4F5H   00000CH   BYTE   UNIT     CODE/B3        ?L?COM032F
00C4F6H   00C504H   00000FH   BYTE   UNIT     CODE/B3        ?L?COM0445
00C505H   00C515H   000011H   BYTE   UNIT     CODE/B3        ?PR?_ZCB_NOCE_GET_CALLBACK?ZW_SECURITY_SCHEME0
00C516H   00C532H   00001DH   BYTE   UNIT     CODE/B3        ?L?COM01FD
00C533H   00C538H   000006H   BYTE   UNIT     CODE/B3        ?L?COM024F
00C539H   00C555H   00001DH   BYTE   UNIT     CODE/B3        ?PR?_ZCB_MSG1_CALLBACK?ZW_SECURITY_SCHEME0
00C556H   00C6DEH   000189H   BYTE   UNIT     CODE/B3        ?PR?___S2_APPLICATION_COMMAND_HANDLER?S2
00C6DFH   00C6E5H   000007H   BYTE   UNIT     CODE/B3        ?L?COM04AF
00C6E6H   00C6F0H   00000BH   BYTE   UNIT     CODE/B3        ?L?COM037D
00C6F1H   00C6F9H   000009H   BYTE   UNIT     CODE/B3        ?L?COM0423
00C6FAH   00C704H   00000BH   BYTE   UNIT     CODE/B3        ?L?COM050D
00C705H   00C711H   00000DH   BYTE   UNIT     CODE/B3        ?L?COM035E
00C712H   00C718H   000007H   BYTE   UNIT     CODE/B3        ?L?COM035D
00C719H   00C735H   00001DH   BYTE   UNIT     CODE/B3        ?PR?_ZCB_MSG2_CALLBACK?ZW_SECURITY_SCHEME0
00C736H   00C742H   00000DH   BYTE   UNIT     CODE/B3        ?PR?___S2_SET_PEER?S2
00C743H   00C77AH   000038H   BYTE   UNIT     CODE/B3        ?PR?_S2_INIT_CTX?S2
00C77BH   00C780H   000006H   BYTE   UNIT     CODE/B3        ?L?COM0578
00C781H   00C78CH   00000CH   BYTE   UNIT     CODE/B3        ?L?COM03E9
LX51 LINKER/LOCATER V4.66.41.0                                                        08/02/2018  17:16:59  PAGE 30


00C78DH   00C795H   000009H   BYTE   UNIT     CODE/B3        ?PR?GET_SEQ?ZW_SECURITY_SCHEME0
00C796H   00C7DCH   000047H   BYTE   UNIT     CODE/B3        ?PR?_SEC0_SEND_DATA?ZW_SECURITY_SCHEME0
00C7DDH   00C7E7H   00000BH   BYTE   UNIT     CODE/B3        ?L?COM0269
00C7E8H   00C834H   00004DH   BYTE   UNIT     CODE/B3        ?PR?_GET_RX_SESSION_BY_NODES?ZW_SECURITY_SCHEME0
00C835H   00C87FH   00004BH   BYTE   UNIT     CODE/B3        ?PR?_SEC0_REGISTER_NONCE?ZW_SECURITY_SCHEME0
00C880H   00C88DH   00000EH   BYTE   UNIT     CODE/B3        ?PR?_IS_FREE?ZW_SECURITY_SCHEME0
00C88EH   00C8E1H   000054H   BYTE   UNIT     CODE/B3        ?PR?_NEW_RX_SESSION?ZW_SECURITY_SCHEME0
00C8E2H   00C8EFH   00000EH   BYTE   UNIT     CODE/B3        ?L?COM01DA
00C8F0H   00C8FBH   00000CH   BYTE   UNIT     CODE/B3        ?PR?_FREE_RX_SESSION?ZW_SECURITY_SCHEME0
00C8FCH   00C906H   00000BH   BYTE   UNIT     CODE/B3        ?L?COM0520
00C907H   00C92EH   000028H   BYTE   UNIT     CODE/B3        ?PR?S2_INIT_PRNG?S2
00C92FH   00C984H   000056H   BYTE   UNIT     CODE/B3        ?PR?SEC0_STATE?ZW_SECURITY_SCHEME0
00C985H   00C990H   00000CH   BYTE   UNIT     CODE/B3        ?PR?SEC0_ABORT_ALL_TX_SESSIONS?ZW_SECURITY_SCHEME0
00C991H   00C995H   000005H   BYTE   UNIT     CODE/B3        ?PR?SEC0_CLEAR_NETKEY?ZW_SECURITY_SCHEME0
00C996H   00C99DH   000008H   BYTE   UNIT     CODE/B3        ?PR?_SECURE_LEARNIFACE_RAISE_LEARNREQUEST?SECURE_LEARN
00C99EH   00C9A5H   000008H   BYTE   UNIT     CODE/B3        ?PR?_SECURE_LEARNIFACE_RAISE_ASSIGNIDDONE?SECURE_LEARN
00C9A6H   00C9B3H   00000EH   BYTE   UNIT     CODE/B3        ?PR?_SECURE_LEARNIFACE_RAISE_INCLUSIONREQUEST?SECURE_LEARN
00C9B4H   00C9DFH   00002CH   BYTE   UNIT     CODE/B3        ?PR?_SECURE_LEARNIFACE_RAISE_COMMANDSSUPPORTEDREQUEST?SECU
                                                             -RE_LEARN
00C9E0H   00C9EDH   00000EH   BYTE   UNIT     CODE/B3        ?PR?_SECURE_LEARNIFACE_RAISE_SCHEME_GET?SECURE_LEARN
00C9EEH   00C9FBH   00000EH   BYTE   UNIT     CODE/B3        ?PR?_SECURE_LEARNIFACE_RAISE_SCHEME_INHERIT?SECURE_LEARN
00C9FCH   00CA09H   00000EH   BYTE   UNIT     CODE/B3        ?PR?_SECURE_LEARNIFACE_RAISE_KEY_SET?SECURE_LEARN
00CA0AH   00CA13H   00000AH   BYTE   UNIT     CODE/B3        ?L?COM013D
00CA14H   00CA21H   00000EH   BYTE   UNIT     CODE/B3        ?PR?_SECURE_LEARNIFACE_RAISE_SCHEME_REPORT?SECURE_LEARN
00CA22H   00CA2FH   00000EH   BYTE   UNIT     CODE/B3        ?PR?_SECURE_LEARNIFACE_RAISE_KEY_VERIFY?SECURE_LEARN
00CA30H   00CA35H   000006H   BYTE   UNIT     CODE/B3        ?PR?_SECURE_LEARNIFACE_GET_SUPPORTED_SCHEMES?SECURE_LEARN
00CA36H   00CA3BH   000006H   BYTE   UNIT     CODE/B3        ?PR?_SECURE_LEARNIFACE_GET_TXOPTIONS?SECURE_LEARN
00CA3CH   00CA3FH   000004H   BYTE   UNIT     CODE/B3        ?PR?_SECURE_LEARNIFACE_GET_ISCONTROLLER?SECURE_LEARN
00CA40H   00CA4BH   00000CH   BYTE   UNIT     CODE/B3        ?L?COM02E8
00CA4CH   00CA52H   000007H   BYTE   UNIT     CODE/B3        ?PR?_SECURE_LEARNIFACE_SET_ISCONTROLLER?SECURE_LEARN
00CA53H   00CA58H   000006H   BYTE   UNIT     CODE/B3        ?PR?_SECURE_LEARNIFACE_SET_NODE?SECURE_LEARN
00CA59H   00CA5EH   000006H   BYTE   UNIT     CODE/B3        ?PR?_SECURE_LEARNIFACE_GET_SCHEME?SECURE_LEARN
00CA5FH   00CA64H   000006H   BYTE   UNIT     CODE/B3        ?PR?_SECURE_LEARNIFACE_SET_SCHEME?SECURE_LEARN
00CA65H   00CA76H   000012H   BYTE   UNIT     CODE/B3        ?PR?_SECURE_LEARN_REACT_MAIN_REGION_LEARNMODE_R1_FAIL?SECU
                                                             -RE_LEARN
00CA77H   00CA80H   00000AH   BYTE   UNIT     CODE/B3        ?L?COM03AC
00CA81H   00CA92H   000012H   BYTE   UNIT     CODE/B3        ?PR?_SECURE_LEARN_REACT_MAIN_REGION_LEARNMODE_R1_INSECUREN
                                                             -ET?SECURE_LEARN
00CA93H   00CAA4H   000012H   BYTE   UNIT     CODE/B3        ?PR?_SECURE_LEARN_REACT_MAIN_REGION_COMPLETE?SECURE_LEARN
00CAA5H   00CAA9H   000005H   BYTE   UNIT     CODE/B3        ?PR?ZCB_S2_INCLUSION_TXQUEUE_EMPTY?ZW_S2_INCLUSION_GLUE
00CAAAH   00CAB8H   00000FH   BYTE   UNIT     CODE/B3        ?L?COM0444
00CAB9H   00CAC5H   00000DH   BYTE   UNIT     CODE/B3        ?PR?S2_INCLUSION_SET_TXQUEUE_EMPTY_EVENT?ZW_S2_INCLUSION_G
                                                             -LUE
00CAC6H   00CAE3H   00001EH   BYTE   UNIT     CODE/B3        ?PR?_S2_GET_COMMANDS_SUPPORTED?ZW_S2_INCLUSION_GLUE
00CAE4H   00CB17H   000034H   BYTE   UNIT     CODE/B3        ?PR?_S2_INCLUSION_SET_PUBLIC_CSA_DSK?ZW_S2_INCLUSION_GLUE
00CB18H   00CB1EH   000007H   BYTE   UNIT     CODE/B3        ?L?COM051E
00CB1FH   00CB2AH   00000CH   BYTE   UNIT     CODE/B3        ?PR?ZW_S2_INCLUSION_INIT?ZW_S2_INCLUSION_GLUE
00CB2BH   00CB3EH   000014H   BYTE   UNIT     CODE/B3        ?PR?_ZW_FLASH_NVR1_GET?ZW_PHY_FLASH_050X
00CB3FH   00CB6FH   000031H   BYTE   UNIT     CODE/B3        ?PR?_ZW_FLASH_CODE_PROG_UNLOCK?ZW_PHY_FLASH_050X
00CB70H   00CB7BH   00000CH   BYTE   UNIT     CODE/B3        ?PR?ZW_FLASH_CODE_PROG_LOCK?ZW_PHY_FLASH_050X
00CB7CH   00CB82H   000007H   BYTE   UNIT     CODE/B3        ?L?COM057D
00CB83H   00CBA8H   000026H   BYTE   UNIT     CODE/B3        ?PR?_ZW_FLASH_CODE_SECTOR_ERASE?ZW_PHY_FLASH_050X
00CBA9H   00CBF0H   000048H   BYTE   UNIT     CODE/B3        ?PR?_ZW_FLASH_CODE_PAGE_PROG?ZW_PHY_FLASH_050X
00CBF1H   00CC50H   000060H   BYTE   UNIT     CODE/B3        ?PR?ZW_FLASH_AUTO_PROG_SET?ZW_PHY_FLASH_050X
00CC51H   00CC58H   000008H   BYTE   UNIT     CODE/B3        ?L?COM064B
00CC59H   00CC5EH   000006H   BYTE   UNIT     CODE/B3        ?PR?ZW_FLASH_PROG_STATE?ZW_PHY_FLASH_050X
00CC5FH   00CC8FH   000031H   BYTE   UNIT     CODE/B3        ?PR?_ZW_AES_ECB_SET?ZW_PHY_AES_050X
00CC90H   00CC96H   000007H   BYTE   UNIT     CODE/B3        ?L?COM057C
00CC97H   00CCADH   000017H   BYTE   UNIT     CODE/B3        ?PR?_ZW_AES_ECB_GET?ZW_PHY_AES_050X
00CCAEH   00CCC4H   000017H   BYTE   UNIT     CODE/B3        ?PR?_ZW_AES_ENABLE?ZW_PHY_AES_050X
00CCC5H   00CCCCH   000008H   BYTE   UNIT     CODE/B3        ?L?COM05D8
00CCCDH   00CCD4H   000008H   BYTE   UNIT     CODE/B3        ?L?COM064A
00CCD5H   00CCDBH   000007H   BYTE   UNIT     CODE/B3        ?PR?ZW_AES_INT_CLEAR?ZW_PHY_AES_050X
00CCDCH   00CCEBH   000010H   BYTE   UNIT     CODE/B3        ?L?COM0424
00CCECH   00CCF4H   000009H   BYTE   UNIT     CODE/B3        ?PR?ZW_AES_INT_GET?ZW_PHY_AES_050X
LX51 LINKER/LOCATER V4.66.41.0                                                        08/02/2018  17:16:59  PAGE 31


00CCF5H   00CD06H   000012H   BYTE   UNIT     CODE/B3        ?PR?_ZW_AES_INT_ENABLE?ZW_PHY_AES_050X
00CD07H   00CD0FH   000009H   BYTE   UNIT     CODE/B3        ?PR?ZW_AES_ACTIVE_GET?ZW_PHY_AES_050X
00CD10H   00CD21H   000012H   BYTE   UNIT     CODE/B3        ?PR?_ZW_AES_SWAP_DATA?ZW_PHY_AES_050X
00CD22H   00CD34H   000013H   BYTE   UNIT     CODE/B3        ?PR?___S2_IS_NODE_MOS?S2
00CD35H   00CE06H   0000D2H   BYTE   UNIT     CODE/B3        ?PR?___S2_ADD_MPAN_EXTENSIONS?S2
00CE07H   00CE18H   000012H   BYTE   UNIT     CODE/B3        ?L?COM00F2
00CE19H   00CE1FH   000007H   BYTE   UNIT     CODE/B3        ?L?COM057A
00CE20H   00CE28H   000009H   BYTE   UNIT     CODE/B3        ?L?COM01A3
00CE29H   00CE32H   00000AH   BYTE   UNIT     CODE/B3        ?L?COM0226
00CE33H   00CE3CH   00000AH   BYTE   UNIT     CODE/B3        ?L?COM055D
00CE3DH   00CE48H   00000CH   BYTE   UNIT     CODE/B3        ?L?COM00D8
00CE49H   00CE67H   00001FH   BYTE   UNIT     CODE/B3        ?PR?_NEXT_MPAN_STATE?S2
00CE68H   00CF18H   0000B1H   BYTE   UNIT     CODE/B3        ?PR?___S2_SEND_NONCE_REPORT?S2
00CF19H   00CF1EH   000006H   BYTE   UNIT     CODE/B3        ?L?COM048A
00CF1FH   00CF32H   000014H   BYTE   UNIT     CODE/B3        ?PR?___S2_SEND_FRAME_DONE_NOTIFY?S2
00CF33H   00CFC9H   000097H   BYTE   UNIT     CODE/B3        ?PR?___S2_MAKE_AAD?S2
00CFCAH   00CFD8H   00000FH   BYTE   UNIT     CODE/B3        ?L?COM0443
00CFD9H   00CFE0H   000008H   BYTE   UNIT     CODE/B3        ?L?COM04C9
00CFE1H   00CFE9H   000009H   BYTE   UNIT     CODE/B3        ?L?COM044F
00CFEAH   00CFFCH   000013H   BYTE   UNIT     CODE/B3        ?PR?__S2_IS_BUSY?S2
00CFFDH   00D035H   000039H   BYTE   UNIT     CODE/B3        ?PR?___S2_IS_MOS?S2
00D036H   00D098H   000063H   BYTE   UNIT     CODE/B3        ?PR?_S2_SET_NODE_MOS?S2
00D099H   00D0B9H   000021H   BYTE   UNIT     CODE/B3        ?PR?___S2_IS_PEERNODE?S2
00D0BAH   00D179H   0000C0H   BYTE   UNIT     CODE/B3        ?PR?_ZW_TRANSPORTSERVICE_SENDDATA?TRANSPORT_SERVICE2
00D17AH   00D181H   000008H   BYTE   UNIT     CODE/B3        ?PR?ZW_TRANSPORTSERVICE_IS_SENDING?TRANSPORT_SERVICE2
00D182H   00D18BH   00000AH   BYTE   UNIT     CODE/B3        ?PR?ZW_TRANSPORTSERVICE_IS_RECEVING?TRANSPORT_SERVICE2
00D18CH   00D1A8H   00001DH   BYTE   UNIT     CODE/B3        ?PR?RECV_OR_SEND?TRANSPORT_SERVICE2
00D1A9H   00D1AFH   000007H   BYTE   UNIT     CODE/B3        ?L?COM0611
00D1B0H   00D1BCH   00000DH   BYTE   UNIT     CODE/B3        ?L?COM0300
00D1BDH   00D21AH   00005EH   BYTE   UNIT     CODE/B3        ?PR?___S2_SEND_DATA?S2
00D21BH   00D34EH   000134H   BYTE   UNIT     CODE/B3        ?PR?SEND_FIRST_FRAG?TRANSPORT_SERVICE2
00D34FH   00D49BH   00014DH   BYTE   UNIT     CODE/B3        ?PR?_TRANSPORTSERVICE_APPLICATIONCOMMANDHANDLER?TRANSPORT_
                                                             -SERVICE2
00D49CH   00D4A5H   00000AH   BYTE   UNIT     CODE/B3        ?L?COM0257
00D4A6H   00D4AFH   00000AH   BYTE   UNIT     CODE/B3        ?L?COM03CA
00D4B0H   00D4B1H   000002H   BYTE   UNIT     CODE/B3        ?PR?_ZCB_WAIT_RESTART_FROM_FIRST?TRANSPORT_SERVICE2
00D4B2H   00D4B7H   000006H   BYTE   UNIT     CODE/B3        ?L?COM0225
00D4B8H   00D4BEH   000007H   BYTE   UNIT     CODE/B3        ?L?COM0482
00D4BFH   00D4C6H   000008H   BYTE   UNIT     CODE/B3        ?L?COM0643
00D4C7H   00D4D7H   000011H   BYTE   UNIT     CODE/B3        ?PR?__S2_IS_SEND_DATA_BUSY?S2
00D4D8H   00D4E2H   00000BH   BYTE   UNIT     CODE/B3        ?L?COM0471
00D4E3H   00D4EEH   00000CH   BYTE   UNIT     CODE/B3        ?PR?__S2_DESTROY?S2
00D4EFH   00D5C8H   0000DAH   BYTE   UNIT     CODE/B3        ?PR?_ZCB_SEND_SUBSEQ_FRAG?TRANSPORT_SERVICE2
00D5C9H   00D5D1H   000009H   BYTE   UNIT     CODE/B3        ?L?COM0267
00D5D2H   00D5E0H   00000FH   BYTE   UNIT     CODE/B3        ?L?COM02E2
00D5E1H   00D5EEH   00000EH   BYTE   UNIT     CODE/B3        ?L?COM0212
00D5EFH   00D60CH   00001EH   BYTE   UNIT     CODE/B3        ?PR?DISCARD_ALL_RECEIVED_FRAGMENTS?TRANSPORT_SERVICE2
00D60DH   00D637H   00002BH   BYTE   UNIT     CODE/B3        ?L?COM00C1
00D638H   00D646H   00000FH   BYTE   UNIT     CODE/B3        ?L?COM02E3
00D647H   00D656H   000010H   BYTE   UNIT     CODE/B3        ?L?COM0420
00D657H   00D671H   00001BH   BYTE   UNIT     CODE/B3        ?L?COM0168
00D672H   00D69DH   00002CH   BYTE   UNIT     CODE/B3        ?PR?GET_NUM_MISSING_FRAG?TRANSPORT_SERVICE2
00D69EH   00D6A8H   00000BH   BYTE   UNIT     CODE/B3        ?L?COM02CD
00D6A9H   00D6DCH   000034H   BYTE   UNIT     CODE/B3        ?PR?CALCULATE_PENDING_SEGMENTS?TRANSPORT_SERVICE2
00D6DDH   00D713H   000037H   BYTE   UNIT     CODE/B3        ?PR?GET_NEXT_MISSING_FRAG?TRANSPORT_SERVICE2
00D714H   00D71EH   00000BH   BYTE   UNIT     CODE/B3        ?L?COM02E0
00D71FH   00D739H   00001BH   BYTE   UNIT     CODE/B3        ?PR?_ZCB_RX_TIMER_EXPIRED?TRANSPORT_SERVICE2
00D73AH   00D760H   000027H   BYTE   UNIT     CODE/B3        ?PR?FIND_MISSING?TRANSPORT_SERVICE2
00D761H   00D769H   000009H   BYTE   UNIT     CODE/B3        ?PR?___S2_SET_INCLUSION_PEER?S2
00D76AH   00D79DH   000034H   BYTE   UNIT     CODE/B3        ?PR?_ADD_CRC?TRANSPORT_SERVICE2
00D79EH   00D7A8H   00000BH   BYTE   UNIT     CODE/B3        ?PR?__S2_TIMEOUT_NOTIFY?S2
00D7A9H   00D807H   00005FH   BYTE   UNIT     CODE/B3        ?PR?_MARK_FRAG_RECEIVED?TRANSPORT_SERVICE2
00D808H   00D818H   000011H   BYTE   UNIT     CODE/B3        ?PR?_ZCB_RESET_TRANSPORT_SERVICE?TRANSPORT_SERVICE2
00D819H   00D837H   00001FH   BYTE   UNIT     CODE/B3        ?PR?___S2_POST_SEND_DONE_EVENT?S2
00D838H   00D87AH   000043H   BYTE   UNIT     CODE/B3        ?PR?___S2_SEND_DATA_MULTICAST?S2
LX51 LINKER/LOCATER V4.66.41.0                                                        08/02/2018  17:16:59  PAGE 32


00D87BH   00D885H   00000BH   BYTE   UNIT     CODE/B3        ?PR?__S2_IS_SEND_DATA_MULTICAST_BUSY?S2
00D886H   00D8CBH   000046H   BYTE   UNIT     CODE/B3        ?PR?_TS_SENDRAW?TRANSPORT_SERVICE2
00D8CCH   00D8DAH   00000FH   BYTE   UNIT     CODE/B3        ?PR?_ZCB_TEMP_CALLBACK_LAST_FRAG?TRANSPORT_SERVICE2
00D8DBH   00D906H   00002CH   BYTE   UNIT     CODE/B3        ?PR?_ZCB_TEMP_CALLBACK_REPLY_FRAG_REQ?TRANSPORT_SERVICE2
00D907H   00D90FH   000009H   BYTE   UNIT     CODE/B3        ?PR?_ZW_TRANSPORTSERVICE_INIT?TRANSPORT_SERVICE2
00D910H   00D92EH   00001FH   BYTE   UNIT     CODE/B3        ?PR?_FIND_TRANSITION?TRANSPORT2_FSM
00D92FH   00D96BH   00003DH   BYTE   UNIT     CODE/B3        ?PR?_FE25519_UNPACK?FE25519
00D96CH   00D975H   00000AH   BYTE   UNIT     CODE/B3        ?L?COM0571
00D976H   00D999H   000024H   BYTE   UNIT     CODE/B3        ?PR?_FE25519_FREEZE?FE25519
00D99AH   00D9BAH   000021H   BYTE   UNIT     CODE/B3        ?L?COM0265
00D9BBH   00D9F9H   00003FH   BYTE   UNIT     CODE/B3        ?L?COM00AF
00D9FAH   00DA26H   00002DH   BYTE   UNIT     CODE/B3        ?L?COM00E9
00DA27H   00DA47H   000021H   BYTE   UNIT     CODE/B3        ?L?COM0123
00DA48H   00DA52H   00000BH   BYTE   UNIT     CODE/B3        ?L?COM0131
00DA53H   00DA70H   00001EH   BYTE   UNIT     CODE/B3        ?L?COM01C8
00DA71H   00DA84H   000014H   BYTE   UNIT     CODE/B3        ?L?COM01CD
00DA85H   00DA99H   000015H   BYTE   UNIT     CODE/B3        ?L?COM01F9
00DA9AH   00DAA5H   00000CH   BYTE   UNIT     CODE/B3        ?L?COM01FB
00DAA6H   00DAB0H   00000BH   BYTE   UNIT     CODE/B3        ?L?COM020E
00DAB1H   00DAC0H   000010H   BYTE   UNIT     CODE/B3        ?L?COM0214
00DAC1H   00DAD4H   000014H   BYTE   UNIT     CODE/B3        ?L?COM023F
00DAD5H   00DAE5H   000011H   BYTE   UNIT     CODE/B3        ?L?COM025A
00DAE6H   00DAF2H   00000DH   BYTE   UNIT     CODE/B3        ?L?COM0277
00DAF3H   00DB06H   000014H   BYTE   UNIT     CODE/B3        ?L?COM02B2
00DB07H   00DB16H   000010H   BYTE   UNIT     CODE/B3        ?L?COM02B6
00DB17H   00DB23H   00000DH   BYTE   UNIT     CODE/B3        ?L?COM0303
00DB24H   00DB2EH   00000BH   BYTE   UNIT     CODE/B3        ?L?COM032E
00DB2FH   00DB38H   00000AH   BYTE   UNIT     CODE/B3        ?L?COM0342
00DB39H   00DB45H   00000DH   BYTE   UNIT     CODE/B3        ?L?COM0354
00DB46H   00DB5BH   000016H   BYTE   UNIT     CODE/B3        ?L?COM0361
00DB5CH   00DB62H   000007H   BYTE   UNIT     CODE/B3        ?L?COM0383
00DB63H   00DB6CH   00000AH   BYTE   UNIT     CODE/B3        ?L?COM03A1
00DB6DH   00DB7AH   00000EH   BYTE   UNIT     CODE/B3        ?L?COM03CD
00DB7BH   00DB85H   00000BH   BYTE   UNIT     CODE/B3        ?L?COM03E5
00DB86H   00DB96H   000011H   BYTE   UNIT     CODE/B3        ?L?COM03E7
00DB97H   00DBA7H   000011H   BYTE   UNIT     CODE/B3        ?L?COM03E8
00DBA8H   00DBB3H   00000CH   BYTE   UNIT     CODE/B3        ?L?COM03FC
00DBB4H   00DBB9H   000006H   BYTE   UNIT     CODE/B3        ?L?COM0403
00DBBAH   00DBC2H   000009H   BYTE   UNIT     CODE/B3        ?L?COM0408
00DBC3H   00DBD2H   000010H   BYTE   UNIT     CODE/B3        ?L?COM040C
00DBD3H   00DBDCH   00000AH   BYTE   UNIT     CODE/B3        ?L?COM0421
00DBDDH   00DBE7H   00000BH   BYTE   UNIT     CODE/B3        ?L?COM043F
00DBE8H   00DBF6H   00000FH   BYTE   UNIT     CODE/B3        ?L?COM0442
00DBF7H   00DC04H   00000EH   BYTE   UNIT     CODE/B3        ?L?COM0468
00DC05H   00DC0EH   00000AH   BYTE   UNIT     CODE/B3        ?L?COM047E
00DC0FH   00DC18H   00000AH   BYTE   UNIT     CODE/B3        ?L?COM0480
00DC19H   00DC21H   000009H   BYTE   UNIT     CODE/B3        ?L?COM0492
00DC22H   00DC2AH   000009H   BYTE   UNIT     CODE/B3        ?L?COM04B0
00DC2BH   00DC37H   00000DH   BYTE   UNIT     CODE/B3        ?L?COM04B2
00DC38H   00DC3EH   000007H   BYTE   UNIT     CODE/B3        ?L?COM04B4
00DC3FH   00DC45H   000007H   BYTE   UNIT     CODE/B3        ?L?COM04B6
00DC46H   00DC51H   00000CH   BYTE   UNIT     CODE/B3        ?L?COM04EC
00DC52H   00DC5DH   00000CH   BYTE   UNIT     CODE/B3        ?L?COM04ED
00DC5EH   00DC65H   000008H   BYTE   UNIT     CODE/B3        ?L?COM04EE
00DC66H   00DC70H   00000BH   BYTE   UNIT     CODE/B3        ?L?COM051C
00DC71H   00DC77H   000007H   BYTE   UNIT     CODE/B3        ?L?COM0526
00DC78H   00DC80H   000009H   BYTE   UNIT     CODE/B3        ?L?COM052E
00DC81H   00DC89H   000009H   BYTE   UNIT     CODE/B3        ?L?COM0544
00DC8AH   00DC8FH   000006H   BYTE   UNIT     CODE/B3        ?L?COM0545
00DC90H   00DC95H   000006H   BYTE   UNIT     CODE/B3        ?L?COM054E
00DC96H   00DC9BH   000006H   BYTE   UNIT     CODE/B3        ?L?COM0551
00DC9CH   00DCA5H   00000AH   BYTE   UNIT     CODE/B3        ?L?COM0552
00DCA6H   00DCACH   000007H   BYTE   UNIT     CODE/B3        ?L?COM0554
00DCADH   00DCB3H   000007H   BYTE   UNIT     CODE/B3        ?L?COM0558
00DCB4H   00DCBDH   00000AH   BYTE   UNIT     CODE/B3        ?L?COM0573
LX51 LINKER/LOCATER V4.66.41.0                                                        08/02/2018  17:16:59  PAGE 33


00DCBEH   00DCC4H   000007H   BYTE   UNIT     CODE/B3        ?L?COM0577
00DCC5H   00DCCDH   000009H   BYTE   UNIT     CODE/B3        ?L?COM0579
00DCCEH   00DCD4H   000007H   BYTE   UNIT     CODE/B3        ?L?COM057B
00DCD5H   00DCDBH   000007H   BYTE   UNIT     CODE/B3        ?L?COM0581
00DCDCH   00DCE5H   00000AH   BYTE   UNIT     CODE/B3        ?L?COM0585
00DCE6H   00DCEEH   000009H   BYTE   UNIT     CODE/B3        ?L?COM0587
00DCEFH   00DCF7H   000009H   BYTE   UNIT     CODE/B3        ?L?COM05BC
00DCF8H   00DD00H   000009H   BYTE   UNIT     CODE/B3        ?L?COM05D4
00DD01H   00DD09H   000009H   BYTE   UNIT     CODE/B3        ?L?COM05D5
00DD0AH   00DD12H   000009H   BYTE   UNIT     CODE/B3        ?L?COM05D6
00DD13H   00DD1BH   000009H   BYTE   UNIT     CODE/B3        ?L?COM05D7
00DD1CH   00DD24H   000009H   BYTE   UNIT     CODE/B3        ?L?COM05DA
00DD25H   00DD2DH   000009H   BYTE   UNIT     CODE/B3        ?L?COM05DB
00DD2EH   00DD36H   000009H   BYTE   UNIT     CODE/B3        ?L?COM05DC
00DD37H   00DD3DH   000007H   BYTE   UNIT     CODE/B3        ?L?COM0601
00DD3EH   00DD45H   000008H   BYTE   UNIT     CODE/B3        ?L?COM0610
00DD46H   00DD4DH   000008H   BYTE   UNIT     CODE/B3        ?L?COM0619
00DD4EH   00DD55H   000008H   BYTE   UNIT     CODE/B3        ?L?COM061C
00DD56H   00DD5DH   000008H   BYTE   UNIT     CODE/B3        ?L?COM0642
00DD5EH   00DD65H   000008H   BYTE   UNIT     CODE/B3        ?L?COM0644
00DD66H   00DD6CH   000007H   BYTE   UNIT     CODE/B3        ?L?COM0645
00DD6DH   00DD74H   000008H   BYTE   UNIT     CODE/B3        ?L?COM0647
00DD75H   00DD7BH   000007H   BYTE   UNIT     CODE/B3        ?L?COM064C
00DD7CH   00DD7CH   000001H   BYTE   UNIT     CONST/B3       ?CO?ZW_FIRMWARE_BANK3_MARK

***   COMMON AREA   ***
000500H   000507H   000008H   BYTE   OFFS..   CODE           ?CO?ZW_MAIN?0
000508H   0017F9H   0012F2H   ---    ---      **GAP**
0017FAH   0017FFH   000006H   BYTE   OFFS..   CODE           ?CO?ZW_BOOTLOADER_CAPABILITIES?0
001800H   001802H   000003H   ---    OFFS..   CODE           ?CO?ZW_STARTUP?4
001803H   001806H   000004H   BYTE   UNIT     CONST          ?CO?ZW_TXQ_PROTOCOL
001807H   001807H   000001H   BYTE   UNIT     CONST          ?CO?ZW_MAIN
001808H   001809H   000002H   BYTE   UNIT     CONST          ?CO?ZW_FIRMWARE_DESCRIPTOR_ADDR
00180AH   00181EH   000015H   BYTE   UNIT     CODE           ?BANK?SELECT
00181FH   00182AH   00000CH   BYTE   UNIT     CODE           ?PR?_ABS?ABS
00182BH   00182DH   000003H   BYTE   OFFS..   CODE           ?ZW_MULTI_INT_050X?0182B
00182EH   001835H   000008H   BYTE   UNIT     CODE           ?CO?SHADEFUNCTIONS
001836H   001845H   000010H   BYTE   UNIT     CONST          ?CO?ZW_SLAVE
001846H   001849H   000004H   BYTE   UNIT     CONST          ?CO?ZW_S2_INCLUSION_GLUE
00184AH   00184AH   000001H   BYTE   UNIT     CODE           ?PR?_S2_DEFAULT_EVT_HANDLER?S2_INCLUSION
00184BH   00184DH   000003H   BYTE   OFFS..   CODE           ?ZW_RF_DRIVER?0184B
00184EH   0018F0H   0000A3H   BYTE   UNIT     CODE           ?C_C51STARTUP
0018F1H   0018FCH   00000CH   BYTE   UNIT     CONST          ?CO?ZW_VERSION
0018FDH   0018FFH   000003H   BYTE   UNIT     CONST          ?CO?COMMANDCLASSFIRMWAREUPDATE
001900H   001E35H   000536H   PAGE   INBLOCK  CODE           ?BANK?SWITCH
001E36H   002989H   000B54H   BYTE   UNIT     CODE           ?C?LIB_CODE
00298AH   002E37H   0004AEH   BYTE   UNIT     CODE           ?C_INITSEG
002E38H   002EBEH   000087H   BYTE   UNIT     CODE           ?PR?_STRNCMP?STRNCMP
002EBFH   002F02H   000044H   BYTE   UNIT     CODE           ?C?LDIV
002F03H   002F3AH   000038H   BYTE   UNIT     CODE           ZW_RAM_CLR_SEG
002F3BH   00308AH   000150H   BYTE   UNIT     CONST          ?CO?TRANSPORT2_FSM
00308BH   0030B8H   00002EH   BYTE   UNIT     CONST          ?CO?KDERIV
0030B9H   0030E5H   00002DH   BYTE   UNIT     CONST          ?CO?ZW_RF_DRIVER
0030E6H   003108H   000023H   BYTE   UNIT     CONST          ?CO?SHADE
003109H   003128H   000020H   BYTE   UNIT     CONST          ?CO?AES_CMAC
003129H   003147H   00001FH   BYTE   UNIT     CONST          ?CO?NEXTNONCE
003148H   003164H   00001DH   BYTE   UNIT     CONST          ?CO?ZW_RF_FTBL
003165H   00317BH   000017H   BYTE   UNIT     CONST          ?CO?AGI
00317CH   00318BH   000010H   BYTE   UNIT     CONST          ?CO?TRANSPORT_SERVICE2
00318CH   003195H   00000AH   BYTE   UNIT     CONST          ?CO?ZW_TRANSPORT
003196H   00319FH   00000AH   BYTE   UNIT     CONST          ?CO?ZW_SECURITY_SCHEME0
0031A0H   0031A9H   00000AH   BYTE   UNIT     CONST          ?CO?OTA_UTIL
0031AAH   0031B1H   000008H   BYTE   UNIT     CONST          ?CO?ZW_PHY_RF_050X
0031B2H   0031B7H   000006H   BYTE   UNIT     CONST          ?CO?ZW_NETWORK_MANAGEMENT
0031B8H   0031BDH   000006H   BYTE   UNIT     CONST          ?CO?ZW_SECURITY_SCHEME2
LX51 LINKER/LOCATER V4.66.41.0                                                        08/02/2018  17:16:59  PAGE 34


0031BEH   0031C3H   000006H   BYTE   UNIT     CONST          ?CO?ZW_SECURE_LEARN_SUPPORT
0031C4H   0031C7H   000004H   BYTE   UNIT     CONST          ?CO?ZW_TX_MUTEX
0031C8H   0031CBH   000004H   BYTE   UNIT     CONST          ?CO?COMMANDCLASSASSOCIATIONGROUPINFO
0031CCH   0031CFH   000004H   BYTE   UNIT     CONST          ?CO?ZW_TRANSPORTENDPOINT
0031D0H   0031D3H   000004H   BYTE   UNIT     CONST          ?CO?ZW_TRANSPORTMULTICAST
0031D4H   0031D5H   000002H   BYTE   UNIT     CONST          ?CO?S2_INCLUSION
0031D6H   0031D7H   000002H   BYTE   UNIT     CONST          ?CO?ZW_TRANSPORT_MULTI
0031D8H   0031D9H   000002H   BYTE   UNIT     CONST          ?CO?ZW_EXPLORE
0031DAH   0031DBH   000002H   BYTE   UNIT     CONST          ?CO?ZW_EXPLORE_SUPPORT
0031DCH   0031DDH   000002H   BYTE   UNIT     CONST          ?CO?COMMANDCLASSDEVICERESETLOCALLY
0031DEH   0031DFH   000002H   BYTE   UNIT     CONST          ?CO?COMMANDCLASSBASIC
0031E0H   0031E1H   000002H   BYTE   UNIT     CONST          ?CO?APPL_TIMER
0031E2H   0031E3H   000002H   BYTE   UNIT     CONST          ?CO?ZAF_PM
0031E4H   0031FBH   000018H   BYTE   UNIT     CODE           ?PR?_ZW_VERSION?ZW_VERSION
0031FCH   0031FEH   000003H   BYTE   UNIT     CODE           ?PR?ZW_TYPE_LIBRARY?ZW_MAIN
0031FFH   003220H   000022H   BYTE   UNIT     CODE           ?PR?_ZW_GETPROTOCOLVERSION?ZW_VERSION
003221H   003228H   000008H   BYTE   UNIT     CODE           ?L?COM0397
003229H   003253H   00002BH   BYTE   UNIT     CODE           ?PR?_MAIN_SETSYSTEMTYPE?ZW_MAIN
003254H   00326AH   000017H   BYTE   UNIT     CODE           ?PR?CALLAPPLICATIONINITSW?ZW_MAIN
00326BH   003596H   00032CH   BYTE   UNIT     CODE           ?PR?MAIN?ZW_MAIN
003597H   0035B4H   00001EH   BYTE   UNIT     CODE           ?L?COM010A
0035B5H   0035BDH   000009H   BYTE   UNIT     CODE           ?PR?MAIN_PROTOCOLSTATEISSHUTDOWNPENDING?ZW_MAIN
0035BEH   00361DH   000060H   BYTE   UNIT     CODE           ?PR?_NVM_EXT_DEEPPOWERDOWN?ZW_PHY_GENERIC_SPI_IF
00361EH   003629H   00000CH   BYTE   UNIT     CODE           ?PR?_ZW_SPI1_TX_SET?ZW_PHY_SPI1_050X
00362AH   0036A4H   00007BH   BYTE   UNIT     CODE           ?PR?NVM_READ_ID?ZW_PHY_GENERIC_SPI_IF
0036A5H   0036C1H   00001DH   BYTE   UNIT     CODE           ?PR?ZW_SPI1_RX_GET?ZW_PHY_SPI1_050X
0036C2H   003701H   000040H   BYTE   UNIT     CODE           ?PR?NVM_EXT_BUSY?ZW_PHY_GENERIC_SPI_IF
003702H   003764H   000063H   BYTE   UNIT     CODE           ?PR?NVM_CS_ENABLE?ZW_PHY_GENERIC_SPI_IF
003765H   0037B8H   000054H   BYTE   UNIT     CODE           ?PR?_NVM_EXT_WRITE_LONG_BYTE?ZW_PHY_GENERIC_SPI_IF
0037B9H   0037CAH   000012H   BYTE   UNIT     CODE           ?PR?_ZW_SPI1_ENABLE?ZW_PHY_SPI1_050X
0037CBH   0037E4H   00001AH   BYTE   UNIT     CODE           ?PR?NVM_SETPAGESIZE256?ZW_PHY_GENERIC_SPI_IF
0037E5H   0037EAH   000006H   BYTE   UNIT     CODE           ?L?COM05F3
0037EBH   0037F2H   000008H   BYTE   UNIT     CODE           ?L?COM042F
0037F3H   003871H   00007FH   BYTE   UNIT     CODE           ?PR?NVM_CS_DISABLE?ZW_PHY_GENERIC_SPI_IF
003872H   003879H   000008H   BYTE   UNIT     CODE           ?L?COM067D
00387AH   003887H   00000EH   BYTE   UNIT     CODE           ?PR?MAIN_APPLICATIONSTATEUPDATE?ZW_MAIN
003888H   003892H   00000BH   BYTE   UNIT     CODE           ?PR?MAIN_APPLICATIONSTATEISACTIVE?ZW_MAIN
003893H   003898H   000006H   BYTE   UNIT     CODE           ?PR?MAIN_PROTOCOLSTATESETACTIVE?ZW_MAIN
003899H   00389FH   000007H   BYTE   UNIT     CODE           ?PR?MAIN_PROTOCOLSTATESETSHUTDOWNPENDING?ZW_MAIN
0038A0H   0038A6H   000007H   BYTE   UNIT     CODE           ?PR?MAIN_PROTOCOLSTATESETSHUTDOWNREADY?ZW_MAIN
0038A7H   0038ADH   000007H   BYTE   UNIT     CODE           ?PR?MAIN_PROTOCOLSTATEISACTIVE?ZW_MAIN
0038AEH   0038B4H   000007H   BYTE   UNIT     CODE           ?L?COM05B1
0038B5H   0038BCH   000008H   BYTE   UNIT     CODE           ?PR?MAIN_PROTOCOLSTATEISREADYFORSHUTDOWN?ZW_MAIN
0038BDH   0039E8H   00012CH   BYTE   UNIT     CODE           ?PR?INIT_ZW_SW?ZW_MAIN
0039E9H   0039F9H   000011H   BYTE   UNIT     CODE           ?PR?_NVM_EXT_READ_BYTE?ZW_PHY_GENERIC_SPI_IF
0039FAH   003A3DH   000044H   BYTE   UNIT     CODE           ?PR?_NVM_EXT_READ_LONG_BYTE?ZW_PHY_GENERIC_SPI_IF
003A3EH   003A59H   00001CH   BYTE   UNIT     CODE           ?PR?_NVM_EXT_WRITE_BUFFER?ZW_PHY_GENERIC_SPI_IF
003A5AH   003B51H   0000F8H   BYTE   UNIT     CODE           ?PR?_NVM_EXT_WRITE_LONG_BUFFER?ZW_PHY_GENERIC_SPI_IF
003B52H   003B7EH   00002DH   BYTE   UNIT     CODE           ?L?COM0164
003B7FH   003B83H   000005H   BYTE   UNIT     CODE           ?PR?_GETLOWESTBIT?ZW_PHY_GENERIC_SPI_IF
003B84H   003BB2H   00002FH   BYTE   UNIT     CODE           ?PR?_GETHIGHESTBIT?ZW_PHY_GENERIC_SPI_IF
003BB3H   003C0BH   000059H   BYTE   UNIT     CODE           ?PR?_GETMODIFIEDLENGTH?ZW_PHY_GENERIC_SPI_IF
003C0CH   003C14H   000009H   BYTE   UNIT     CODE           ?L?COM05CE
003C15H   003C21H   00000DH   BYTE   UNIT     CODE           ?L?COM03B6
003C22H   003C51H   000030H   BYTE   UNIT     CODE           ?L?COM015C
003C52H   003C83H   000032H   BYTE   UNIT     CODE           ?PR?_NVM_EXT_READ_BUFFER?ZW_PHY_GENERIC_SPI_IF
003C84H   003CDFH   00005CH   BYTE   UNIT     CODE           ?PR?_NVM_EXT_READ_LONG_BUFFER?ZW_PHY_GENERIC_SPI_IF
003CE0H   003D7AH   00009BH   BYTE   UNIT     CODE           ?PR?_ISSAVED_SPLIT?ZW_PHY_GENERIC_SPI_IF
003D7BH   003D97H   00001DH   BYTE   UNIT     CODE           ?L?COM0278
003D98H   003D9EH   000007H   BYTE   UNIT     CODE           ?L?COM00D1
003D9FH   003E05H   000067H   BYTE   UNIT     CODE           ?PR?_NVMPUTARRAY_LONG?ZW_PHY_GENERIC_SPI_IF
003E06H   003E1AH   000015H   BYTE   UNIT     CODE           ?PR?ZW_POLL?ZW_MAIN
003E1BH   003E21H   000007H   BYTE   UNIT     CODE           ?L?COM03A7
003E22H   003E28H   000007H   BYTE   UNIT     CODE           ?L?COM0574
003E29H   003E2FH   000007H   BYTE   UNIT     CODE           ?L?COM05B0
LX51 LINKER/LOCATER V4.66.41.0                                                        08/02/2018  17:16:59  PAGE 35


003E30H   003E37H   000008H   BYTE   UNIT     CODE           ?L?COM0318
003E38H   003E3FH   000008H   BYTE   UNIT     CODE           ?L?COM0319
003E40H   003E48H   000009H   BYTE   UNIT     CODE           ?L?COM05BB
003E49H   003E51H   000009H   BYTE   UNIT     CODE           ?L?COM05FE
003E52H   003E5BH   00000AH   BYTE   UNIT     CODE           ?L?COM05A6
003E5CH   003E6AH   00000FH   BYTE   UNIT     CODE           ?PR?ZW_WATCHDOGKICK?ZW_MAIN
003E6BH   003E7FH   000015H   BYTE   UNIT     CODE           ?PR?NVM_EXT_FLUSH?ZW_PHY_GENERIC_SPI_IF
003E80H   003F56H   0000D7H   BYTE   UNIT     CODE           ?PR?_ZW_NETWORKLEARNMODESTART?ZW_NETWORK_MANAGEMENT
003F57H   003F5EH   000008H   BYTE   UNIT     CODE           ?PR?NETWORKMANAGEMENTSMARTSTARTCLEAR?ZW_NETWORK_MANAGEMENT
003F5FH   003F6CH   00000EH   BYTE   UNIT     CODE           ?PR?_NVM_EXT_WRITE_BYTE?ZW_PHY_GENERIC_SPI_IF
003F6DH   003F78H   00000CH   BYTE   UNIT     CODE           ?PR?NETWORKMANAGEMENTSMARTSTARTISENABLED?ZW_NETWORK_MANAGE
                                                             -MENT
003F79H   003F91H   000019H   BYTE   UNIT     CODE           ?PR?S2_RESTORE_SPANS_AND_MPANS?ZW_SECURITY_SCHEME2
003F92H   003FB5H   000024H   BYTE   UNIT     CODE           ?L?COM01C3
003FB6H   003FBCH   000007H   BYTE   UNIT     CODE           ?L?COM01B0
003FBDH   003FC3H   000007H   BYTE   UNIT     CODE           ?L?COM0664
003FC4H   003FCDH   00000AH   BYTE   UNIT     CODE           ?L?COM0425
003FCEH   003FE3H   000016H   BYTE   UNIT     CODE           ?L?COM0353
003FE4H   003FEAH   000007H   BYTE   UNIT     CODE           ?L?COM039C
003FEBH   003FF1H   000007H   BYTE   UNIT     CODE           ?L?COM0414
003FF2H   003FFEH   00000DH   BYTE   UNIT     CODE           ?PR?ZW_WATCHDOGENABLE?ZW_MAIN
003FFFH   004008H   00000AH   BYTE   UNIT     CODE           ?PR?ZW_WATCHDOGDISABLE?ZW_MAIN
004009H   004014H   00000CH   BYTE   UNIT     CODE           ?PR?MAIN_POWERDOWN_SETUP?ZW_MAIN
004015H   00410BH   0000F7H   BYTE   UNIT     CODE           ?PR?_ZCB_NETWORKMANAGEMENTEXPLOREREQUESTCOMPLETE?ZW_NETWOR
                                                             -K_MANAGEMENT
00410CH   004111H   000006H   BYTE   UNIT     CODE           ?L?COM03BB
004112H   004119H   000008H   BYTE   UNIT     CODE           ?L?COM036E
00411AH   004121H   000008H   BYTE   UNIT     CODE           ?L?COM04CB
004122H   004128H   000007H   BYTE   UNIT     CODE           ?L?COM0600
004129H   004130H   000008H   BYTE   UNIT     CODE           ?L?COM05FB
004131H   00413BH   00000BH   BYTE   UNIT     CODE           ?PR?ZW_RANDOM?ZW_MAIN
00413CH   004167H   00002CH   BYTE   UNIT     CODE           ?PR?NETWORKMANAGEMENTSMARTSTARTNEXTSTATE?ZW_NETWORK_MANAGE
                                                             -MENT
004168H   0041A4H   00003DH   BYTE   UNIT     CODE           ?PR?_POWER_MANAGEMENT_SETTIMEOUT?ZW_POWER_MANAGEMENT
0041A5H   0041ABH   000007H   BYTE   UNIT     CODE           ?L?COM0394
0041ACH   004244H   000099H   BYTE   UNIT     CODE           ?PR?ZCB_NETWORKMANAGEMENTLEARNNODESTATETIMEOUT?ZW_NETWORK_
                                                             -MANAGEMENT
004245H   0042B6H   000072H   BYTE   UNIT     CODE           ?PR?NETWORKMANAGEMENTLEARNSTATEPROCESS?ZW_NETWORK_MANAGEME
                                                             -NT
0042B7H   0042BEH   000008H   BYTE   UNIT     CODE           ?L?COM03BA
0042BFH   00431FH   000061H   BYTE   UNIT     CODE           ?PR?_ZW_TIMERLONGSTART?ZW_TIMER
004320H   00432CH   00000DH   BYTE   UNIT     CODE           ?L?COM0322
00432DH   004352H   000026H   BYTE   UNIT     CODE           ?PR?_TIMERCANCEL?ZW_TIMER
004353H   0043DCH   00008AH   BYTE   UNIT     CODE           ?PR?_ZCB_NETWORKMANAGEMENTLEARNMODECOMPLETED?ZW_NETWORK_MA
                                                             -NAGEMENT
0043DDH   0043ECH   000010H   BYTE   UNIT     CODE           ?L?COM0156
0043EDH   0044A4H   0000B8H   BYTE   UNIT     CODE           ?PR?TIMERACTION?ZW_TIMER
0044A5H   0044B4H   000010H   BYTE   UNIT     CODE           ?L?COM00CF
0044B5H   0044C4H   000010H   BYTE   UNIT     CODE           ?L?COM0216
0044C5H   004526H   000062H   BYTE   UNIT     CODE           ?PR?_TIMERSAVE?ZW_TIMER
004527H   0045A4H   00007EH   BYTE   UNIT     CODE           ?PR?_TIMERSTART_?ZW_TIMER
0045A5H   0045B0H   00000CH   BYTE   UNIT     CODE           ?L?COM02C3
0045B1H   0045BFH   00000FH   BYTE   UNIT     CODE           ?L?COM0233
0045C0H   0045D2H   000013H   BYTE   UNIT     CODE           ?L?COM0248
0045D3H   0045E6H   000014H   BYTE   UNIT     CODE           ?L?COM0283
0045E7H   004602H   00001CH   BYTE   UNIT     CODE           ?PR?_TIMERRESTART?ZW_TIMER
004603H   0046DAH   0000D8H   BYTE   UNIT     CODE           ?PR?__PLL_SET_BANK5?ZW_PHY_RF_050X
0046DBH   0046F4H   00001AH   BYTE   UNIT     CODE           ?L?COM0052
0046F5H   0046FFH   00000BH   BYTE   UNIT     CODE           ?L?COM03F1
004700H   004706H   000007H   BYTE   UNIT     CODE           ?L?COM0399
004707H   004723H   00001DH   BYTE   UNIT     CODE           ?PR?START_PHY_TIMER?ZW_PHY_RF_050X
004724H   00473EH   00001BH   BYTE   UNIT     CODE           ?PR?_PLL_BOOST_BIAS?ZW_PHY_RF_050X
00473FH   004781H   000043H   BYTE   UNIT     CODE           ?PR?_WAIT_PHY_TIMER_ELAPSE?ZW_PHY_RF_050X
004782H   00478DH   00000CH   BYTE   UNIT     CODE           ?L?COM03F3
00478EH   00479DH   000010H   BYTE   UNIT     CODE           ?PR?WAIT_PHY_TIMER_TIMEOUT?ZW_PHY_RF_050X
LX51 LINKER/LOCATER V4.66.41.0                                                        08/02/2018  17:16:59  PAGE 36


00479EH   0047BAH   00001DH   BYTE   UNIT     CODE           ?PR?_SET_PHY_TIMER_TIMEOUT?ZW_PHY_RF_050X
0047BBH   0047C1H   000007H   BYTE   UNIT     CODE           ?L?COM0683
0047C2H   0047C9H   000008H   BYTE   UNIT     CODE           ?PR?NETWORKMANAGEMENTWUTPOWERDOWNINTERRUPTED?ZW_NETWORK_MA
                                                             -NAGEMENT
0047CAH   0047D2H   000009H   BYTE   UNIT     CODE           ?L?COM03A8
0047D3H   0047DAH   000008H   BYTE   UNIT     CODE           ?L?COM05F6
0047DBH   0047DCH   000002H   BYTE   UNIT     CODE           ?PR?_ZW_TIMERLONGRESTART?ZW_TIMER
0047DDH   0047E3H   000007H   BYTE   UNIT     CODE           ?PR?STOP_PHY_TIMER?ZW_PHY_RF_050X
0047E4H   0047E9H   000006H   BYTE   UNIT     CODE           ?L?COM053C
0047EAH   0047F0H   000007H   BYTE   UNIT     CODE           ?L?COM053F
0047F1H   004821H   000031H   BYTE   UNIT     CODE           ?PR?MAIN_POWERDOWN_READYCHECK?ZW_MAIN
004822H   00483AH   000019H   BYTE   UNIT     CODE           ?PR?S2_BUSY?ZW_SECURITY_SCHEME2
00483BH   004842H   000008H   BYTE   UNIT     CODE           ?L?COM05FA
004843H   00484FH   00000DH   BYTE   UNIT     CODE           ?L?COM029A
004850H   004864H   000015H   BYTE   UNIT     CODE           ?PR?___S2_SET_TIMEOUT?ZW_SECURITY_SCHEME2
004865H   00488AH   000026H   BYTE   UNIT     CODE           ?PR?S2_SAVE_SPANS_AND_MPANS?ZW_SECURITY_SCHEME2
00488BH   00488DH   000003H   BYTE   UNIT     CODE           ?PR?RFISRECEIVINGBEAM?ZW_RF_DRIVER
00488EH   004895H   000008H   BYTE   UNIT     CODE           ?L?COM0681
004896H   00489EH   000009H   BYTE   UNIT     CODE           ?L?COM0459
00489FH   0048A8H   00000AH   BYTE   UNIT     CODE           ?L?COM05AC
0048A9H   0048F9H   000051H   BYTE   UNIT     CODE           ?PR?_ZW_SETSLEEPMODE?ZW_MAIN
0048FAH   004901H   000008H   BYTE   UNIT     CODE           ?L?COM05AD
004902H   004917H   000016H   BYTE   UNIT     CODE           ?PR?POWER_MANAGEMENT_FLIRSSETUP?ZW_POWER_MANAGEMENT
004918H   00491DH   000006H   BYTE   UNIT     CODE           ?PR?_ZW_POWER_DOWN_WUT_TIMEOUT?ZW_PHY_POWER_050X
00491EH   004950H   000033H   BYTE   UNIT     CODE           ?PR?_ZW_POWER_DOWN_MODE_INIT?ZW_PHY_POWER_050X
004951H   004996H   000046H   BYTE   UNIT     CODE           ?PR?POWER_MANAGEMENT_CHECK?ZW_POWER_MANAGEMENT
004997H   0049C7H   000031H   BYTE   UNIT     CODE           ?PR?_POWER_MANAGEMENT_POWERDOWN?ZW_POWER_MANAGEMENT
0049C8H   0049C9H   000002H   BYTE   UNIT     CODE           ?PR?_ZW_SETWUTTIMEOUT?ZW_MAIN
0049CAH   0049D8H   00000FH   BYTE   UNIT     CODE           ?L?COM0310
0049D9H   0049DCH   000004H   BYTE   UNIT     CODE           ?PR?GOTOSLEEP?ZW_MAIN
0049DDH   0049FAH   00001EH   BYTE   UNIT     CODE           ?PR?_ZW_POWER_DOWN_MODE?ZW_PHY_POWER_050X
0049FBH   004A0EH   000014H   BYTE   UNIT     CODE           ?L?COM0154
004A0FH   004A42H   000034H   BYTE   UNIT     CODE           ?PR?_ZW_INT_EXT_LEVEL_SET?ZW_PHY_050X
004A43H   004A44H   000002H   BYTE   UNIT     CODE           ?PR?_ZW_SETEXTINTLEVEL?ZW_PHY_050X
004A45H   004A5CH   000018H   BYTE   UNIT     CODE           ?PR?NEWIDNEEDED?ZW_MAIN
004A5DH   004A64H   000008H   BYTE   UNIT     CODE           ?L?COM0500
004A65H   004AB2H   00004EH   BYTE   UNIT     CODE           ?PR?NEWIDCREATE?ZW_MAIN
004AB3H   004BF6H   000144H   BYTE   UNIT     CODE           ?PR?_RF_GET_RANDOM_WORD?ZW_PHY_RF_050X
004BF7H   004BFFH   000009H   BYTE   UNIT     CODE           ?L?COM016C
004C00H   004C09H   00000AH   BYTE   UNIT     CODE           ?L?COM03A4
004C0AH   004C3AH   000031H   BYTE   UNIT     CODE           ?PR?__RF_CHECK_CHECKSUM?ZW_PHY_RF_050X
004C3BH   004CC3H   000089H   BYTE   UNIT     CODE           ?PR?_RF_LBT_GET_RSSI?ZW_PHY_RF_050X
004CC4H   004D05H   000042H   BYTE   UNIT     CODE           ?PR?RF_DEMODULATOR_ENABLE?ZW_PHY_RF_050X
004D06H   004D8FH   00008AH   BYTE   UNIT     CODE           ?PR?_RFRECEIVERESTART?ZW_RF_DRIVER
004D90H   004DABH   00001CH   BYTE   UNIT     CODE           ?PR?_RF_CHANNEL_SET?ZW_PHY_RF_050X
004DACH   004DC8H   00001DH   BYTE   UNIT     CODE           ?PR?_ZW_SETRFRECEIVEMODE?ZW_MAIN
004DC9H   004DEFH   000027H   BYTE   UNIT     CODE           ?PR?_RFRXRESTART?ZW_RF_DRIVER
004DF0H   004EA2H   0000B3H   BYTE   UNIT     CODE           ?PR?_RF_WAITFORSOFORTIMEOUT?ZW_RF_DRIVER
004EA3H   004EB5H   000013H   BYTE   UNIT     CODE           ?PR?RF_BYTE_GET?ZW_PHY_RF_050X
004EB6H   004EBDH   000008H   BYTE   UNIT     CODE           ?L?COM047A
004EBEH   004EC6H   000009H   BYTE   UNIT     CODE           ?L?COM0379
004EC7H   004EF6H   000030H   BYTE   UNIT     CODE           ?PR?_SET_PHY_TIMER_TIMEOUT_MAX?ZW_PHY_RF_050X
004EF7H   004F01H   00000BH   BYTE   UNIT     CODE           ?PR?PHY_TIMER_RUNS?ZW_PHY_RF_050X
004F02H   004FC3H   0000C2H   BYTE   UNIT     CODE           ?PR?RF_SENSOR_MODE_ENABLE?ZW_PHY_RF_050X
004FC4H   004FCAH   000007H   BYTE   UNIT     CODE           ?PR?_RSSI_RDY?ZW_PHY_RF_050X
004FCBH   004FDAH   000010H   BYTE   UNIT     CODE           ?PR?RF_DEMODULATOR_ENABLE_GET?ZW_PHY_RF_050X
004FDBH   004FE8H   00000EH   BYTE   UNIT     CODE           ?L?COM036C
004FE9H   004FF7H   00000FH   BYTE   UNIT     CODE           ?L?COM0308
004FF8H   00524AH   000253H   BYTE   UNIT     CODE           ?PR?RFINTERRUPT?ZW_RF_DRIVER
00524BH   005258H   00000EH   BYTE   UNIT     CODE           ?L?COM0323
005259H   005261H   000009H   BYTE   UNIT     CODE           ?PR?RESETSENSORSTATE?ZW_RF_DRIVER
005262H   00526DH   00000CH   BYTE   UNIT     CODE           ?L?COM04FD
00526EH   00527BH   00000EH   BYTE   UNIT     CODE           ?L?COM044D
00527CH   005283H   000008H   BYTE   UNIT     CODE           ?L?COM0239
005284H   0052B4H   000031H   BYTE   UNIT     CODE           ?PR?_ZW_GETDEFAULTPOWERLEVELS?ZW_RF_DRIVER
LX51 LINKER/LOCATER V4.66.41.0                                                        08/02/2018  17:16:59  PAGE 37


0052B5H   0052BEH   00000AH   BYTE   UNIT     CODE           ?L?COM006E
0052BFH   005541H   000283H   BYTE   UNIT     CODE           ?PR?_RFTRANSMITNOW?ZW_RF_DRIVER
005542H   005588H   000047H   BYTE   UNIT     CODE           ?L?COM0011
005589H   005591H   000009H   BYTE   UNIT     CODE           ?L?COM0198
005592H   0055FAH   000069H   BYTE   UNIT     CODE           ?PR?___S2_MSG_RECEIVED_EVENT?ZW_SECURITY_SCHEME2
0055FBH   005601H   000007H   BYTE   UNIT     CODE           ?L?COM03D2
005602H   00560DH   00000CH   BYTE   UNIT     CODE           ?L?COM0345
00560EH   00567CH   00006FH   BYTE   UNIT     CODE           ?PR?_SEC2_SEND_DATA?ZW_SECURITY_SCHEME2
00567DH   0056B5H   000039H   BYTE   UNIT     CODE           ?PR?_ZW_FH_TX_INIT?ZW_PHY_FRAME_HANDLER_050X
0056B6H   005721H   00006CH   BYTE   UNIT     CODE           ?PR?_SEC2_SEND_DATA_MULTI?ZW_SECURITY_SCHEME2
005722H   005728H   000007H   BYTE   UNIT     CODE           ?L?COM0505
005729H   00572FH   000007H   BYTE   UNIT     CODE           ?L?COM052A
005730H   005776H   000047H   BYTE   UNIT     CODE           ?PR?___S2_SEND_FRAME?ZW_SECURITY_SCHEME2
005777H   00577CH   000006H   BYTE   UNIT     CODE           ?L?COM03B9
00577DH   005789H   00000DH   BYTE   UNIT     CODE           ?L?COM0173
00578AH   005796H   00000DH   BYTE   UNIT     CODE           ?L?COM04C6
005797H   0057A3H   00000DH   BYTE   UNIT     CODE           ?L?COM04C7
0057A4H   0057ACH   000009H   BYTE   UNIT     CODE           ?L?COM05FD
0057ADH   0057B6H   00000AH   BYTE   UNIT     CODE           ?L?COM0136
0057B7H   0057C2H   00000CH   BYTE   UNIT     CODE           ?L?COM0306
0057C3H   0057CEH   00000CH   BYTE   UNIT     CODE           ?L?COM04D0
0057CFH   0057DBH   00000DH   BYTE   UNIT     CODE           ?PR?_ZW_FH_BUF0ADDR_SET?ZW_PHY_FRAME_HANDLER_050X
0057DCH   0057E8H   00000DH   BYTE   UNIT     CODE           ?PR?_ZW_FH_TX_BUFLEN_SET?ZW_PHY_FRAME_HANDLER_050X
0057E9H   0057F7H   00000FH   BYTE   UNIT     CODE           ?PR?_GETRANDOM?ZW_MAIN
0057F8H   005806H   00000FH   BYTE   UNIT     CODE           ?PR?PROTOCOLMONITOR?ZW_MAIN
005807H   00582DH   000027H   BYTE   UNIT     CODE           ?PR?RFUPDATEISWAKEUPRECEIVEDSTATUS?ZW_RF_DRIVER
00582EH   005843H   000016H   BYTE   UNIT     CODE           ?PR?_ZW_ADDPOLLTASK?ZW_MAIN
005844H   005855H   000012H   BYTE   UNIT     CODE           ?PR?TASKPOLL?ZW_MAIN
005856H   005878H   000023H   BYTE   UNIT     CODE           ?PR?SYSTIMERINIT?ZW_MULTI_INT_050X
005879H   0058E5H   00006DH   BYTE   UNIT     CODE           ?PR?MULTIINTERRUPT?ZW_MULTI_INT_050X
0058E6H   00591CH   000037H   BYTE   UNIT     CODE           ?L?COM0066
00591DH   0059ACH   000090H   BYTE   UNIT     CODE           ?PR?_CALCULATE_FCW?ZW_PHY_RF_050X
0059ADH   0059BCH   000010H   BYTE   UNIT     CODE           ?L?COM0177
0059BDH   005ADFH   000123H   BYTE   UNIT     CODE           ?PR?_RF_ONETIME_INIT?ZW_PHY_RF_050X
005AE0H   005B05H   000026H   BYTE   UNIT     CODE           ?PR?_RF_GENERATE_CHECKSUM?ZW_PHY_RF_050X
005B06H   005CA8H   0001A3H   BYTE   UNIT     CODE           ?PR?_RF_ONETIME_INIT_AND_RX?ZW_PHY_RF_050X
005CA9H   005CB8H   000010H   BYTE   UNIT     CODE           ?L?COM017F
005CB9H   005CF4H   00003CH   BYTE   UNIT     CODE           ?PR?__SET_FCW?ZW_PHY_RF_050X
005CF5H   005E01H   00010DH   BYTE   UNIT     CODE           ?PR?_RF_SWITCH_TO_TX?ZW_PHY_RF_050X
005E02H   005E08H   000007H   BYTE   UNIT     CODE           ?L?COM05AB
005E09H   005E11H   000009H   BYTE   UNIT     CODE           ?L?COM05F8
005E12H   005E1AH   000009H   BYTE   UNIT     CODE           ?L?COM05F9
005E1BH   005E37H   00001DH   BYTE   UNIT     CODE           ?PR?RF_SHUTDOWN?ZW_PHY_RF_050X
005E38H   005E63H   00002CH   BYTE   UNIT     CODE           ?PR?RF_MODE_GET?ZW_PHY_RF_050X
005E64H   005E93H   000030H   BYTE   UNIT     CODE           ?PR?_RF_LDO_PRECHARGE?ZW_PHY_RF_050X
005E94H   005EEAH   000057H   BYTE   UNIT     CODE           ?PR?__PLL_WAIT_LOCK_AND_SEQUENCER_DONE?ZW_PHY_RF_050X
005EEBH   005EF2H   000008H   BYTE   UNIT     CODE           ?L?COM067F
005EF3H   005EFBH   000009H   BYTE   UNIT     CODE           ?L?COM04C2
005EFCH   005F08H   00000DH   BYTE   UNIT     CODE           ?PR?_RF_GENERAL_SETUP_PER_CH?ZW_PHY_RF_050X
005F09H   005F16H   00000EH   BYTE   UNIT     CODE           ?L?COM0478
005F17H   005F25H   00000FH   BYTE   UNIT     CODE           ?L?COM044C
005F26H   005F3CH   000017H   BYTE   UNIT     CODE           ?PR?_GET_PHY_TIMER?ZW_PHY_RF_050X
005F3DH   005F8AH   00004EH   BYTE   UNIT     CODE           ?PR?__RF_SETUP_RX_AND_FILTER?ZW_PHY_RF_050X
005F8BH   005FDCH   000052H   BYTE   UNIT     CODE           ?PR?__RF_SET_IF_SETTING?ZW_PHY_RF_050X
005FDDH   005FE2H   000006H   BYTE   UNIT     CODE           ?PR?_RF_TX_POWER_SET?ZW_PHY_RF_050X
005FE3H   005FF6H   000014H   BYTE   UNIT     CODE           ?PR?_TIMERSYSSTART?ZW_TIMER
005FF7H   006003H   00000DH   BYTE   UNIT     CODE           ?L?COM044B
006004H   006032H   00002FH   BYTE   UNIT     CODE           ?PR?_SAFETIMERSYSSTART?ZW_TIMER
006033H   006038H   000006H   BYTE   UNIT     CODE           ?L?COM05AF
006039H   006060H   000028H   BYTE   UNIT     CODE           ?PR?_SAFETIMERSTOP?ZW_TIMER
006061H   006071H   000011H   BYTE   UNIT     CODE           ?PR?_TIMERSTART?ZW_TIMER
006072H   006079H   000008H   BYTE   UNIT     CODE           ?PR?_ZW_TIMERLONGCANCEL?ZW_TIMER
00607AH   00608FH   000016H   BYTE   UNIT     CODE           ?PR?_ZW_TIMERLONGGETTIMELEFT?ZW_TIMER
006090H   0060ADH   00001EH   BYTE   UNIT     CODE           ?PR?_TIMEROPTIONCOUNT?ZW_TIMER
0060AEH   0060B3H   000006H   BYTE   UNIT     CODE           ?PR?TIMERGETACTIVESYS?ZW_TIMER
LX51 LINKER/LOCATER V4.66.41.0                                                        08/02/2018  17:16:59  PAGE 38


0060B4H   0060C1H   00000EH   BYTE   UNIT     CODE           ?PR?TIMERGETACTIVE?ZW_TIMER
0060C2H   0060C7H   000006H   BYTE   UNIT     CODE           ?PR?ZW_TIMERGETFREE?ZW_TIMER
0060C8H   0060D6H   00000FH   BYTE   UNIT     CODE           ?PR?GETTICKTIME?ZW_TIMER
0060D7H   0060D8H   000002H   BYTE   UNIT     CODE           ?PR?CLOCK_TIME?ZW_SECURITY_SCHEME2
0060D9H   0060DFH   000007H   BYTE   UNIT     CODE           ?L?COM0603
0060E0H   006108H   000029H   BYTE   UNIT     CODE           ?PR?_GETTICKTIMEPASSED?ZW_TIMER
006109H   00611AH   000012H   BYTE   UNIT     CODE           ?L?COM033E
00611BH   006125H   00000BH   BYTE   UNIT     CODE           ?PR?RFLBTTIMEOUTFUNCTION?ZW_RF_DRIVER
006126H   006136H   000011H   BYTE   UNIT     CODE           ?PR?RFISRECEIVING?ZW_RF_DRIVER
006137H   00613DH   000007H   BYTE   UNIT     CODE           ?PR?RF_ISSOFORPREAMBDETECTED?ZW_PHY_RF_050X
00613EH   006145H   000008H   BYTE   UNIT     CODE           ?PR?RFISTRANSMITTING?ZW_RF_DRIVER
006146H   006151H   00000CH   BYTE   UNIT     CODE           ?PR?_ZW_RFPOWERLEVELREDISCOVERYSET?ZW_RF_DRIVER
006152H   006157H   000006H   BYTE   UNIT     CODE           ?PR?ZW_RFPOWERLEVELGET?ZW_RF_DRIVER
006158H   006180H   000029H   BYTE   UNIT     CODE           ?PR?_ZW_RFPOWERLEVELSET?ZW_RF_DRIVER
006181H   00618DH   00000DH   BYTE   UNIT     CODE           ?L?COM04C8
00618EH   00619EH   000011H   BYTE   UNIT     CODE           ?PR?_RFPOWERGETTXPWRREG?ZW_RF_DRIVER
00619FH   0061D8H   00003AH   BYTE   UNIT     CODE           ?PR?_RF_GET_TX_POWER?ZW_RF_DRIVER
0061D9H   0061FFH   000027H   BYTE   UNIT     CODE           ?PR?RFPOWERLEVELGETREDUCED?ZW_RF_DRIVER
006200H   006206H   000007H   BYTE   UNIT     CODE           ?L?COM04B7
006207H   00636FH   000169H   BYTE   UNIT     CODE           ?PR?__SET_SEPARATION_TX?ZW_PHY_RF_050X
006370H   006377H   000008H   BYTE   UNIT     CODE           ?L?COM05F7
006378H   006394H   00001DH   BYTE   UNIT     CODE           ?L?COM0299
006395H   0063BEH   00002AH   BYTE   UNIT     CODE           ?PR?_SWITCHTOTX?ZW_RF_DRIVER
0063BFH   0063D5H   000017H   BYTE   UNIT     CODE           ?PR?_RF_BYTE_SET?ZW_PHY_RF_050X
0063D6H   006425H   000050H   BYTE   UNIT     CODE           ?PR?_RF_SETUP_TX_MODE?ZW_RF_DRIVER
006426H   006432H   00000DH   BYTE   UNIT     CODE           ?L?COM04C0
006433H   006442H   000010H   BYTE   UNIT     CODE           ?PR?_SPEED2CHANNEL?ZW_RF_DRIVER
006443H   006458H   000016H   BYTE   UNIT     CODE           ?PR?_ZW_SETDEFAULTPOWERLEVELS?ZW_RF_DRIVER
006459H   00646FH   000017H   BYTE   UNIT     CODE           ?PR?_RFPOWERGETTXPWRREG_100?ZW_RF_DRIVER
006470H   00648CH   00001DH   BYTE   UNIT     CODE           ?PR?_RFPOWERCONVERT?ZW_RF_DRIVER
00648DH   00648FH   000003H   BYTE   UNIT     CODE           ?PR?RFPOWERDOWNFORCE?ZW_RF_DRIVER
